:100000000C94D8000C94F5000C94F5000C94F500B9
:100010000C94F5000C94F5000C94F5000C94F5008C
:100020000C94F5000C94F5000C94F5000C94F5007C
:100030000C94F5000C94F5000C94F5000C94F5006C
:100040000C94F5000C94F5000C94F5000C94F5005C
:100050000C94F5000C94F5000C94F5000C94F5004C
:100060000C94F5000C94F5000C94F5000C94F5003C
:100070000C94F5000C94F5000C94F5000C94F5002C
:100080000C94F5000C94F5000C94F5000C94F5001C
:1000900005A84CCDB2D44EB93836A9020C50B9914E
:1000A0008688083CA6AAAA2ABE000000803F6E618E
:1000B0006E00696E660000407A10F35A00A0724E1E
:1000C00018090010A5D4E80000E87648170000E4FD
:1000D0000B54020000CA9A3B000000E1F505000045
:1000E00080969800000040420F000000A0860100AA
:1000F0000000102700000000E8030000000064007A
:10010000000000000A0000000000010000000000E4
:100110002C76D888DC674F0823DFC1DFAE59E1B108
:10012000B796E5E3E453C63AE651997696E8E6C217
:100130008426EB898C9B62ED407C6FFCEFBC9C9F1E
:1001400040F2BAA56FA5F490055A2AF75C936B6C40
:10015000F9676DC11BFCE0E40D47FEF520E6B50034
:10016000D0ED902E0300943577050080841E0800A2
:1001700000204E0A000000C80C333333330F986E52
:1001800012831141EF8D2114893BE65516CFFEE60F
:10019000DB18D1844B381BF77C1D901DA4BBE424D5
:1001A000203284725E228100C9F124ECA1E53D2752
:1001B00011241FBECFEFCDBFDFE7DEBF19E6A0E001
:1001C000B0E6EEEDF0E302C005900D92A63CB1075B
:1001D000D9F72EE6A6ECB9E601C01D92A037B2070A
:1001E000E1F70E9464050C946D180C940000CF9305
:1001F000DF93FC01EC0120E030E00FC09C3261F4A1
:100200001082D901AA0FBB1FA60FB71FCD93DC9395
:10021000EF0121962F5F3F4F31969081992319F07E
:10022000241735075CF3241735076CF4CE17DF0766
:1002300050F4C901880F991FFB01E80FF91FC08313
:10024000D1832F5F3F4FC901DF91CF910895CF93A5
:10025000DF93CDB7DEB76E97CDBFDEBFBE016F5F58
:100260007F4F8EE1FB0111928A95E9F74FE050E054
:1002700086EC99E60E94F7000A970CF47AC0EB81AD
:10028000FC81309799F1DF010D900020E9F711977B
:10029000AE1BBF0B169750F1808190E0C097A2E093
:1002A000BAE6880F982F990F990F890F9181890FBE
:1002B00080538C93828190E0C097880F982F990F7C
:1002C000990F890F9381890F805311968C93119701
:1002D000848190E0C097880F982F990F990F890F0C
:1002E0009581890F805312968C9305C0E2E0FAE65F
:1002F000128211821082EB89FC893097A9F1DF010B
:100300000D900020E9F71197AE1BBF0B169761F512
:10031000808190E0C097A2E0BAE6880F982F990FED
:10032000990F890F9181890F805313968C9313979E
:10033000828190E0C097880F982F990F990F890FAD
:100340009381890F805314968C931497848190E045
:10035000C097880F982F990F990F890F9581890F52
:10036000805315968C9305C0E2E0FAE6158214825C
:1003700013826E96CDBFDEBFDF91CF910895E2E08C
:10038000FAE633812481858190E01F923F931F928A
:100390002F938053984F9F938F938EEA91E69F936C
:1003A0008F931F921F928FEF8F938F9381E08F9384
:1003B0001F920E943B0C8DB79EB70E968DBF9EBFBD
:1003C00008950F931F93CF93DF93A2E0BAE615969B
:1003D000CC911597D0E0FE01E053F84F2C9130E01E
:1003E00014964C918CEF840F863008F44DC0433046
:1003F00019F04A3009F04AC0642F70E06F5F7F4FF8
:100400005DE0569FC001579F900D112465E070E09C
:100410000E949B158B01015E1F4F0E0F1F1FDF01F6
:10042000FF230CF41396B595A795B595A7950A0FDC
:100430001B1FCF0164E670E00E949B15061B170B83
:10044000CF0160E971E00E949B15C801860F971FDC
:1004500007E010E0B8010E949B1599270696B801A5
:100460000E949B159FE1981B433039F45091056A17
:1004700081E0591760F480E00AC05091056A81E07C
:10048000591728F080E003C081E001C080E0882394
:1004900011F083E001C082E0280F311DCF0183708D
:1004A0009927892B81F4CF0164E670E00E949B15A7
:1004B000892B59F4CF0160E971E00E949B15892BCB
:1004C00031F080E005C080E003C081E001C081E040
:1004D000982F9170443061F0463061F0493061F0FE
:1004E0004B3061F0423061F4992361F09DE10BC023
:1004F0009EE109C09EE107C09EE105C09EE103C0E8
:100500009FE101C09CE128313105F4F02851310907
:10051000A2E0BAE613968C9113978F5F13968C9393
:100520001397981708F063C081E013968C93139784
:100530004F5F14964C934D3008F459C08093066A6F
:10054000FE01EF52F84F53C033230CF050C0285E29
:100550003F4FA2E0BAE613968C9113978150139601
:100560008C93811144C041504093066A411106C0EA
:100570008CE08093066AFE01E153F84FCF0183704F
:100580009927892B81F4CF0164E670E00E949B15C6
:10059000892B59F4CF0160E971E00E949B15892BEA
:1005A00031F080E005C080E003C081E001C081E05F
:1005B000982F91708091066A843061F0863061F0E6
:1005C000893061F08B3061F0823061F4992361F001
:1005D0008DE10BC08EE109C08EE107C08EE105C040
:1005E0008EE103C08FE101C08CE18093056AA2E037
:1005F000BAE62C9380E38E0F15968C93DF91CF9102
:100600001F910F9108950F931F93CF93DF9310E0E5
:1006100000E0C0E0D0E00E949D0E01111AC0E12F61
:10062000F0E0E354FE499081891311C01F5F16303A
:1006300091F786E0EDEBF1E6A6ECB9E601900D92BC
:100640008A95E1F710E001E0C6E0D0E0E4CF10E0E9
:10065000E2CFCB33D10528F4FE01EA53F64980837B
:1006600021968A3089F4C230D10570F0FE01EC5336
:10067000F64980818D3041F4CA53D64918820E94D0
:1006800027010E94E10105C0CB33D10520F2109271
:10069000016ADF91CF911F910F91089564E288E67E
:1006A00090E00E94671860E080E690E00E94671882
:1006B0008091650080FDFCCF0895E0EEF5E01282A8
:1006C0001582E0E0F4E084ED818388E0828B838B07
:1006D000E0E4F4E091E0918392E09283808B818B5F
:1006E0008CE08093610408952F923F924F925F9225
:1006F0006F927F928F929F92AF92BF92CF92DF9232
:10070000EF92FF920F931F93CF93DF93CDB7DEB796
:10071000C15ED140CDBFDEBF4C01E62ED72E342EB8
:10072000252EF12C30C00F2D10E0B801012E000C49
:10073000880B990B0E946C1020E537E746ED5DE3CE
:100740000E9460112B013C010E94CD11000F111F6E
:10075000000F111FE1EFF0E0EC0FFD1FE00FF11FA4
:100760006083718382839383C301B2010E942F103F
:10077000E1E0F0E0EC0FFD1FE00FF11F60837183FB
:1007800082839383F3942BE32F1568F680E090E047
:100790000E945B0ADF92EF921F921F9288EF8F9365
:1007A0001F9281E08F9380E18F930E943B0CCDBF1D
:1007B000DEBFCF51DE4F1882C15ED140E12C05C0B3
:1007C000CF51DE4F1882C15ED140AE2CB12CC50195
:1007D00044966CE370E00E949B158C011127B801D0
:1007E000012E000C880B990B0E946C1020E537E756
:1007F00046ED5DE30E9460112B013C0120E030E0FA
:10080000A9010E945B1188230CF445C022ED33E559
:100810004BE750E4C301B2010E942A101816DCF124
:10082000000F111F000F111FE1E0F0E0EC0FFD1FA2
:10083000E00FF11F608171818281938120E030E0BF
:1008400048EC51E40E94601120E030E040E852E4BE
:100850000E94BE0F0E943410F62EE1EFF0E0EC0F84
:10086000FD1FE00FF11F608171818281938120E083
:1008700030E048EC51E40E94601120E030E04CE8A8
:1008800052E40E94BE0F0E94341020E030E044E0A9
:100890008F2D0E94AF0AF12C87C0CF2CD12CC5011F
:1008A0008C0D9D1D6CE370E00E949B158C0111273F
:1008B000B801012E000C880B990B0E946C1020E5EA
:1008C00037E746ED5DE30E9460112B013C0120E01B
:1008D00030E0A9010E942A1088230CF464C022EDA4
:1008E00033E54BE750E4C301B2010E945B111816D7
:1008F0000CF459C0FF20C1F064E170E09B012C1999
:100900003D094FEF429FC001439F900D11240E946B
:100910009B15EFE16E9FC00111246FEF70E00E9404
:100920009B156B01DD2405C00F2EFFE1CF2ED12CCE
:10093000F02D000F111F000F111FE1E0F0E0EC0F90
:10094000FD1FE00FF11F608171818281938120E0A2
:1009500030E048EC51E40E94601120E030E040E8D3
:1009600052E40E94BE0F0E943410462EE1EFF0E0E8
:10097000EC0FFD1FE00FF11F608171818281938177
:1009800020E030E048EC51E40E94601120E030E0CB
:100990004CE852E40E94BE0F0E943410960144E0DD
:1009A000842D0E94AF0AF394F3E1FF1508F075CF90
:1009B000CF51DE4F2881C15ED14021113CC010E0F3
:1009C00029C0C501810F911D6CE370E00E949B1549
:1009D000BC017727072E000C880B990B0E946C1026
:1009E00020E537E746ED5DE30E9460112B013C01F5
:1009F00020E030E0A9010E945B11882354F022ED31
:100A000033E54BE750E4C301B2010E942A101816E7
:100A10002CF41F5F1431A8F281E001C080E088232C
:100A200051F0F40109958823D9F0F1E0CF51DE4F60
:100A3000F883C15ED140EE2011F0EA9404C00F2E7D
:100A4000FBE3EF2EF02D2FEB8BE493E02150804061
:100A50009040E1F700C00000EE2009F4B1CEB5CE21
:100A600080E090E00E945B0A2F923F921F921F92BB
:100A700087E08F9380EE8F9381E08F9380E18F9357
:100A80000E943B0CEFEFFBE722E9E150F0402040F1
:100A9000E1F700C00000CDBFDEBFCF51DE4FCDBFBC
:100AA000DEBFDF91CF911F910F91FF90EF90DF900C
:100AB000CF90BF90AF909F908F907F906F905F90FE
:100AC0004F903F902F9008950E944E030E945D0327
:100AD0000E94DC0880E00E947B0E0E94FC0E0E94B7
:100AE0002E0980E090E00E945B0A0E946D0F44ECAA
:100AF00051E662ED71E680ED98E00E9474030E9479
:100B000003030E94BF010E9435070E943B080E9418
:100B100003030E94BF010E94350784E591E69F937D
:100B20008F9384ED90E69F938F9382EE91E69F934F
:100B30008F931F9284E68F930E94E1078DEF91E6D9
:100B40009F938F938AE38F9388E98F930E94E107A5
:100B50008DB79EB70C968DBF9EBFD9CF1F93CF93F5
:100B6000DF93BC01909141019111FCCFC0E4D1E031
:100B700011E01F8380E090E00E946A102FE632E1CE
:100B800043E85FE30E9460110E943B1080E090E028
:100B90000E946A1020E030E040E05FE30E94BE0F58
:100BA0000E943B106A877B87188619861883DF911D
:100BB000CF911F910895E0E4F1E080818E7F8083E2
:100BC000809141018111FCCF08956EE272E60E948E
:100BD0005417009751F16CE270E00E941F170097C4
:100BE00039F101960E940C16BC0190E019C0292F22
:100BF00030E0F901EE0FFF1FEE0FFF1FE05EFF492F
:100C0000408151816417750751F4220F331F220F61
:100C1000331FF901E05EFF498281938108959F5F50
:100C20009D3228F386E292E608958EE092E60895DA
:100C30008AE192E608950F931F93CF93DF93EC011F
:100C40008B016EE272E60E945417892B71F0CE017F
:100C50000E94E50501501109A801BC01CE010E94C6
:100C60003A17FE01E00FF11F10826BE372E6CE012E
:100C70000E945417009701F18C01045F1F4FFC0183
:100C80002485223211F40F5F1F4F62E270E0C80129
:100C90000E941F17009781F0FC011082F80101905B
:100CA0000020E9F73197AF01401B510B4F5F5F4FB9
:100CB000B801CE010E940D17DF91CF911F910F91C6
:100CC0000895CF92DF92EF92FF920F931F93CF93ED
:100CD000DF937C016B01C0E055C00C2F10E0F801E0
:100CE000EE0FFF1FEE0FFF1FE050F04A6081718191
:100CF000C7010E945417892B09F443C0000F111F2C
:100D0000000F111FE801C050D04A6A817B81860123
:100D100001501109A801C7010E943A17F701E00F1D
:100D2000F11F1082E881F9818081813471F568E4D6
:100D300072E6CF010E945417892B39F1F701019017
:100D40000020E9F73197EE19FF09A6014E1B5F0B52
:100D50004150510964E571E6C7010E942A17F70165
:100D600001900020E9F73197EE19FF09A6014E1B0B
:100D70005F0B415051096BE872E6C7010E942A17C8
:100D800004C0CF5FC83008F4A8CFDF91CF911F9186
:100D90000F91FF90EF90DF90CF900895EF92FF9228
:100DA0001F93CF93DF937C01CB01D42F0E94AE051C
:100DB00010E0C0E018C00E942C0F8D30A1F0D111BE
:100DC00002C08A3081F0DD2321F08A3011F41A301C
:100DD00051F0CF3738F4F701EC0FF11D8083182F55
:100DE000CF5F01C0182F8091430180FFE4CF81E0E5
:100DF000809343010E94DB05F701EC0FF11D108287
:100E0000DF91CF911F91FF90EF9008956CE472E60F
:100E10000E945417009741F105960E940C168336E4
:100E200031F0282F220F330B2157310902C029E15D
:100E30003CEF3F932F93282F082E000C330B3F934A
:100E40008F9382E592E69F938F931F921F921F923A
:100E50008FE18F931F9281E08F930E943B0C8DB79F
:100E60009EB70C968DBF9EBF08950F931F93CF938F
:100E7000DF93CDB7DEB7C058D109CDBFDEBF83E663
:100E800092E69F938F9381E08F930E943B0F8E0198
:100E90000F5F1F4F80E8F80111928A95E9F740E053
:100EA00064E670E0C8010E94CE06C8010E940607F1
:100EB0000F900F900F90C058DF4FCDBFDEBFDF9176
:100EC000CF911F910F910895EF92FF920F931F936F
:100ED000CF93DF93CDB7DEB76697CDBFDEBFFE0100
:100EE00031962AE0DF011D922A95E9F7A2E0BAE6E1
:100EF0004C912DEC429F312D112436953695369527
:100F000050E3530F5983330F532F550F550F350FA0
:100F1000431B405D4A831AE31B8311964C91119742
:100F2000429F312D112436953695369550E3530F57
:100F30005C83330F532F550F550F350F431B405D07
:100F40004D831E8312963C91329F212D11242695AC
:100F50002695269540E3420F4F83220F422F440FE0
:100F6000440F240F321B305D388720E22987EB873E
:100F7000FC878D879E876F87788B86E0E8EAF1E6AD
:100F8000DE01519601900D928A95E1F70F2EF3E064
:100F9000EF2EF12CF02D8E010F5E1F4F9E01255F6D
:100FA0003F4F40E050E060E083E00E94460D6696CF
:100FB000CDBFDEBFDF91CF911F910F91FF90EF90DA
:100FC0000895EF92FF920F931F93CF93DF93CDB7C6
:100FD000DEB7DA95CDBFDEBF9E01235F3E4FC55F12
:100FE000DE4F48815981CB50D14060E870E08E01DE
:100FF0000F5F1F4FC8010E94D4170E9403030E9475
:10100000BF011F930F938BE692E69F938F9381E02E
:101010008F930E943B0F7E0181E8E80EF11C80E86F
:10102000F70111928A95E9F740E0C75FDE4F6881CA
:101030007981C950D140C7010E94CE0660E870E0B6
:10104000C7010E941B0660E870E0C8010E946106AB
:10105000B701C8010E9464070F900F900F900F9086
:101060000F90D395CDBFDEBFDF91CF911F910F9130
:10107000FF90EF900895CF93DF938EE692E69F93D3
:101080008F93D7E0DF93CAE3CF930E94E1078DE807
:1010900092E69F938F93DF93CF930E94E10785EBB6
:1010A00092E69F938F93DF93CF930E94E10783ECA7
:1010B00092E69F938F93DF93CF930E94E10781ED98
:1010C00092E69F938F931F92C4E6CF930E94E1070D
:1010D0008EED92E69F938F931F92CF930E94E1072C
:1010E0008DB79EB748968DBF9EBFDF91CF91089573
:1010F000EF92FF920F931F93CF93DF9300D000D016
:10110000CDB7DEB789839A8380EA91E08B839C8395
:10111000EE24E394F12C8E010D5F1F4F9E012F5F93
:101120003F4F40E050E061E086E00E94460D2FEF27
:101130008BE792E9215080409040E1F700C0000029
:101140002496CDBFDEBFDF91CF911F910F91FF900D
:10115000EF9008950F931F93CF93DF93CDB7DEB732
:10116000C058D109CDBFDEBF8E010F5F1F4F20E8F1
:10117000F80111922A95E9F741E0BC01C8010E94EB
:10118000CE06C8010E94780881E08093096AC058A1
:10119000DF4FCDBFDEBFDF91CF911F910F9108953B
:1011A00080E197E20E94AA088091096A882311F0E1
:1011B00080E0089581E00895E0E4F9E081E3808330
:1011C00084E08183089580934409809143098823B2
:1011D000E4F70895CF93C82F892F0E94E3088C2F3E
:1011E0000E94E308CF9108951F93CF93DF9394E07B
:1011F00090936604C0E0D4E010E81E830E94E308E8
:101200001D83DF91CF911F9108951F93CF93DF939B
:1012100094E090936504C0E0D4E010E81E830E943F
:10122000E3081D83DF91CF911F910895E0E6F4E07C
:1012300088E086832FEF3DEE92E0215030409040D1
:10124000E1F700C0000085832FEF35EA8EE02150E2
:1012500030408040E1F700C0000008950E94160968
:1012600081E10E94F4082FEF89EC98E02150804042
:101270009040E1F700C0000081EB0E94F40885E097
:101280000E9405098CE30E9405098CE30E94050970
:1012900082EB0E94F40885E00E9405098CE30E941D
:1012A00005098CE30E94050983EB0E94F40885E0A0
:1012B0000E9405098CE30E9405098CE30E94050940
:1012C00085E00E9405098CE30E9405098CE30E94D9
:1012D000050984EB0E94F40883E00E94050980EC74
:1012E0000E94F40888E20E94050988E00E9405092E
:1012F00084E00E94050981EC0E94F40880EC0E94C1
:10130000050982EC0E94F4088DE00E94050980E046
:101310000E94050983EC0E94F4088DE80E940509EB
:101320008AE20E94050984EC0E94F4088DE80E947C
:1013300005098EEE0E94050985EC0E94F4088AE1F9
:101340000E94050986E30E94F40880EC0E940509CA
:101350008AE30E94F40885E00E94050980EE0E945D
:10136000F40884E00E94050982E20E94050987E0F2
:101370000E9405098AE00E9405098EE20E94050983
:1013800080E30E94050985E20E9405098AE20E9425
:10139000050988E20E94050986E20E9405098EE29D
:1013A0000E9405098AE30E94050980E00E94050960
:1013B00081E00E94050983E00E94050983E10E9403
:1013C000050981EE0E94F40884E00E94050986E187
:1013D0000E94050986E00E9405098DE00E9405092A
:1013E0008DE20E94050986E20E94050983E20E94BF
:1013F000050987E20E94050987E20E94050985E246
:101400000E9405098DE20E9405098BE30E940509EF
:1014100080E00E94050981E00E94050984E00E94A5
:10142000050983E10E94050989E20E94F4082FEF73
:1014300086E791E0215080409040E1F700C0000035
:101440000895CF92DF92EF92FF920F931F93CF9365
:10145000DF93D82EC92E162F072FF42EE52EC22F7C
:10146000D32F8AE20E94F4088C2D0E9405098D2D4D
:101470000E9405098E2D0E9405098F2D0E940509E5
:101480008BE20E94F408802F0E940509812F0E94A0
:1014900005098D2F0E9405098C2F0E9405098CE2F9
:1014A0000E94F408DF91CF911F910F91FF90EF9070
:1014B000DF90CF900895CF92DF92EF92FF92CF937B
:1014C000DF93EC012FE930E04FE750E060E070E09F
:1014D00080E090E00E94210A84E08093650480E827
:1014E00080930604C12CD12C760108C0CE010E9445
:1014F000EA088FEFC81AD80AE80AF80AC11480E58A
:10150000D806E104F10490F380E880930504DF91AC
:10151000CF91FF90EF90DF90CF900895EF92FF92E0
:101520001F93CF93DF938038910598F4603A71054B
:1015300080F47A019B01AC010E94210A84E080932F
:101540006504C0E0D4E010E81E83C7010E94EA08E9
:101550001D83DF91CF911F91FF90EF9008958F929F
:101560009F92AF92BF92CF92DF92EF92FF920F9332
:101570001F93CF93DF93882E962E7901042F10E0CE
:10158000CC24DD24C01AD10A560129C0CC9FC00149
:10159000CD9F900D900D1124AA9C9001AB9C300D15
:1015A000300D1124820F931F009F9001019F300D79
:1015B000300D1124281739074CF0A701B501690D2A
:1015C000711DCE01880D911D0E948E0A219601C0C9
:1015D000E6010C171D07D4F68FEFA81AB80A0A15F2
:1015E0001B05B4F7DF91CF911F910F91FF90EF9002
:1015F000DF90CF90BF90AF909F908F9008955F92B3
:101600006F927F928F929F92AF92BF92CF92DF9212
:10161000EF92FF920F931F93CF93DF935C014B01E7
:10162000E22E532E80EE840F803608F04FE350E018
:10163000405251093A01660C771C660C771C460D26
:10164000571DCA018C5899493C01C12CD12C1EC090
:10165000F301EC0DFD1DF080C0E0D0E011C0F0FE04
:1016600003C04E2D552D02C0402F512FBE01680DD5
:10167000791DC6018A0D9B1D0E948E0AF694219643
:10168000C730D10564F39FEFC91AD90A85E0C8169F
:10169000D104F4F2DF91CF911F910F91FF90EF9061
:1016A000DF90CF90BF90AF909F908F907F906F9082
:1016B0005F900895AC0190E001C09F5FFA01E90FCF
:1016C000F11D20812111F9CF892F880F980F292F23
:1016D000220F613019F0623069F00FC080E890E0AD
:1016E000AC01421B5109CA0199230CF4019695954E
:1016F0008795089580E8821B089580E008952F92D1
:101700003F924F925F926F927F928F929F92AF9291
:10171000BF92CF92DF92EF92FF920F931F93CF93DE
:10172000DF93CDB7DEB76C97CDBFDEBF898F6C8FEF
:101730001A012F8B388F3801F80101900020E9F74A
:101740003197CF01801B910B8A8F9B8FA12CB12CDD
:1017500073C08A8C9B8C8A189B0896E18916910429
:1017600028F00F2EF5E18F2E912CF02D80E090E0E7
:1017700009C0F501E80FF91FE60DF71D20812A3099
:1017800029F0019688159905A0F301C04C01A40128
:10179000B3016A0D7B1DCE0101960E943A17E1E06C
:1017A000F0E0EC0FFD1FE80DF91D10826C8DCE01ED
:1017B00001960E945A0BC82ED12C898D482E512C8F
:1017C000440C551C440C551C440C551CE12CF12CAC
:1017D00014C0E1E0F0E0EC0FFD1FEE0DFF1D0F89DE
:1017E000188D91014081B201C6010E94FF0A96E066
:1017F000C90ED11C8FEFE81AF80ADE011196FD011F
:1018000001900020E9F73197EA1BFB0BEE16FF066B
:1018100000F3A80CB91C8A8D9B8DA816B90648F454
:10182000F301EA0DFB1D80818A3019F49FEFA91A9C
:10183000B90A898D8F5F898F8A8D9B8DA816B9060D
:1018400020F4998D943108F484CF6C96CDBFDEBF1F
:10185000DF91CF911F910F91FF90EF90DF90CF908C
:10186000BF90AF909F908F907F906F905F904F90C0
:101870003F902F9008950F931F93CF93DF93CDB791
:10188000DEB7C45AD140CDBFDEBF9E012D543E4FBE
:10189000CF54DE4F48815981C15BD14064EA71E089
:1018A000CE0101960E94D4178E010F5F1F4FC155C4
:1018B000DE4F28813981CF5AD140C355DE4F488150
:1018C0005981CD5AD140C455DE4F6881CC5AD140A0
:1018D000C555DE4F8881CB5AD1400E947F0BCC5535
:1018E000DE4FCDBFDEBFDF91CF911F910F910895E5
:1018F0002F923F924F925F926F927F928F929F9220
:10190000AF92BF92CF92DF92EF92FF920F931F930D
:10191000CF93DF93CDB7DEB76697CDBFDEBF682E1E
:101920007B01242E312C6EC0732C760C770C770C37
:10193000770C22E4329EC00111249C01255F3549B9
:10194000490180E090E0A12CB12C15C0FC01EE0F04
:10195000FF1FE80FF91FE80DF91D2081222371F008
:10196000E1E0F0E0EC0FFD1FE80FF91F20833FEFEF
:10197000A31AB30A01968531910540F3E1E0F0E046
:10198000EC0FFD1FEA0DFB1D1082622DCE010196AA
:101990000E945A0B482E512CC12CD12C12C0A701E9
:1019A000B601670D711DC8010E948E0A0F5F1F4F9F
:1019B00002C000E010E0003811058CF38FEFC81A68
:1019C000D80A28E0C216D104A4F3C12CD12C16C029
:1019D000F601EE0FFF1FEC0DFD1DE80DF91D218135
:1019E0003281672D70E087014081C2010E94FF0AA9
:1019F00036E0430E511C8FEFC81AD80ACA14DB0414
:101A000038F33394A0900A6A3A1408F48DCF1FC0BB
:101A1000BA2CB60CBB0CBB0CBB0CC12CD12C12C00D
:101A2000A701B6016B0D711DC8010E948E0A0F5FE0
:101A30001F4F02C000E010E0003811058CF32FEFBB
:101A4000C21AD20A38E0C316D104A4F3A3942A2DF3
:101A500030E084E190E08619910928173907C4F233
:101A60006696CDBFDEBFDF91CF911F910F91FF90A2
:101A7000EF90DF90CF90BF90AF909F908F907F902E
:101A80006F905F904F903F902F9008953F924F92AC
:101A90005F926F928F929F92AF92CF92DF92EF926E
:101AA000FF920F931F93CF93DF93CDB7DEB7C6544A
:101AB000D109CDBFDEBF682E362E27964EAF5FAF61
:101AC000279725962EAF3FAF25974801270184E140
:101AD000A82EA618FE01319682E4DF011D928A9598
:101AE000E9F7C12CD12C80E090E092C0A601440F10
:101AF000551F2596EEADFFAD2597E40FF51F00812C
:101B00001181F401E40FF51FE080F18060E070E0E6
:101B100076C02A3021F08531910508F45CC0AC0113
:101B2000440F551F840F951FE1E0F0E0EC0FFD1FFF
:101B3000E80FF91F108290910A6A9A15D8F430C004
:101B4000482F50E032E4349FF001359FF00D11240E
:101B5000E55FF54941505109349FD001359FB00DE3
:101B60001124A55FB54942E401900D924A95E1F731
:101B70008F5F01C081E0891718F3892F90E00197EA
:101B800042E4489FD001499FB00D1124A55FB5499B
:101B900082E4FE01319601900D928A95E1F710C022
:101BA00042E4949FD0011124A55FB54982E4FE016F
:101BB000319601900D928A95E1F79F5F90930A6AA2
:101BC000FE01319682E4DF011D928A95E9F72A3001
:101BD00091F080E090E0FC01EE0FFF1FE80FF91F8D
:101BE00041E050E04C0F5D1FE40FF51F2083E182C0
:101BF000F282019602C080E090E06F5F7F4FF801B3
:101C0000E60FF71F2081211184CF5FEFC51AD50A97
:101C1000C414D50408F46ACF009709F450C0FC013D
:101C2000EE0FFF1F8E0F9F1FE1E0F0E0EC0FFD1F96
:101C3000E80FF91F108240910A6A4A15D0F42FC0AC
:101C4000822F90E032E4389FF001399FF00D11248B
:101C5000E55FF5490197389FD001399FB00D1124F8
:101C6000A55FB54982E401900D928A95E1F72F5F57
:101C700001C021E0241720F3842F90E0019722E493
:101C8000289FD001299FB00D1124A55FB54982E49A
:101C9000FE01319601900D928A95E1F710C082E421
:101CA000489FD0011124A55FB54982E4FE01319619
:101CB00001900D928A95E1F74F5F40930A6A432D98
:101CC00027966EAD7FAD2797862D0E94780CCA5B54
:101CD000DF4FCDBFDEBFDF91CF911F910F91FF90FE
:101CE000EF90DF90CF90AF909F908F906F905F902C
:101CF0004F903F9008959091E205987F882311F0CE
:101D000023E001C022E0922B9093E205882319F092
:101D100023E836E002C028E833E120930808309336
:101D2000090891E0811101C090E0E0E0F8E09583BE
:101D300082EC868383E087830895FF920F931F933D
:101D4000CF93DF9380E8809304086894FF24F6F82B
:101D50000DE013E0D0E0C0E0B0E0F0E0E0E01BC058
:101D60002F2D302F412F5D2F6C2F7B2F8F2F9E2FEC
:101D7000AFEF0E94E015F22E032F142FD52FC62FA0
:101D8000B72FF82FE92FA0E00E94EC1521F481E095
:101D900080936E6E04C08091040888230CF78091B4
:101DA0000008DF91CF911F910F91FF9008959091BE
:101DB000040895FFFCCF8093020808950F931F93AA
:101DC000CF93DF938C01C0E0D0E007C0F801EC0FA7
:101DD000FD1F80810E94D70E2196F80101900020FE
:101DE000E9F73197E01BF10BCE17DF0778F3DF91AE
:101DF000CF911F910F910895E0E2F8E081EA91E020
:101E00008087918782EC868383E087830895909111
:101E1000240895FFFCCF8093220808950F931F9309
:101E2000CF93DF938C01C0E0D0E007C0F801EC0F46
:101E3000FD1F80810E94070F2196F801019000206C
:101E4000E9F73197E01BF10BCE17DF0778F3DF914D
:101E5000CF911F910F91089580E88093240804C0CA
:101E60008091430180FD04C0809124088823C4F739
:101E70008091200808951F93CF93DF93CDB7DEB7ED
:101E8000C058D109CDBFDEBFCA57DF4F1881C65831
:101E9000D0409E0127573F4FC957DF4F4881598196
:101EA000C758D04060E870E0CE0101960E94D41778
:101EB000111105C0CE0101960E94DE0E06C0113040
:101EC00021F4CE0101960E940E0FC058DF4FCDBF06
:101ED000DEBFDF91CF911F91089530919D612091D8
:101EE0009C6190919B6180919A61E6EAF1E6418163
:101EF0004F9340814F93E4EAF1E641814F93408153
:101F00004F93E2EAF1E641814F9340814F93E0EA3B
:101F1000F1E641814F9340814F93EEE9F1E6418133
:101F20004F9340814F931F923F931F922F931F9285
:101F30009F931F928F93E8E9F1E681818F938081CF
:101F40008F93E6E9F1E681818F9380818F93E4E9B5
:101F5000F1E681818F9380818F9389E999E69F9340
:101F60008F9384E591E69F938F930E94B2178DB76C
:101F70009EB74C968DBF9EBF08955058BB27AA2789
:101F80000E94D50F0C940D110E94D41038F00E94BD
:101F9000DB1020F039F49F3F19F426F40C94D11093
:101FA0000EF4E095E7FB0C94CB10E92F0E94321160
:101FB00058F3BA17620773078407950720F079F47E
:101FC000A6F50C9454110EF4E0950B2EBA2FA02D0B
:101FD0000B01B90190010C01CA01A0011124FF27D6
:101FE000591B99F0593F50F4503E68F11A16F040D1
:101FF000A22F232F342F4427585FF3CF46953795D0
:102000002795A795F0405395C9F77EF41F16BA0B94
:10201000620B730B840BBAF09150A1F0FF0FBB1F42
:10202000661F771F881FC2F70EC0BA0F621F731F8B
:10203000841F48F4879577956795B795F7959E3FE8
:1020400008F0B0CF9395880F08F09927EE0F979579
:10205000879508950E94A71008F481E008950E94D2
:10206000E410E3950C941E110E943B106894B1118A
:102070000C94551108950E943A1188F09F5798F0DA
:10208000B92F9927B751B0F0E1F0660F771F881F7D
:10209000991F1AF0BA95C9F714C0B13091F00E9497
:1020A0005411B1E008950C945411672F782F8827AC
:1020B000B85F39F0B93FCCF3869577956795B395BE
:1020C000D9F73EF490958095709561957F4F8F4F2D
:1020D0009F4F0895E89409C097FB3EF49095809532
:1020E000709561957F4F8F4F9F4F9923A9F0F92FDE
:1020F00096E9BB279395F695879577956795B7955C
:10210000F111F8CFFAF4BB0F11F460FF1BC06F5F41
:102110007F4F8F4F9F4F16C0882311F096E911C053
:10212000772321F09EE8872F762F05C0662371F074
:1021300096E8862F70E060E02AF09A95660F771F88
:10214000881FDAF7880F9695879597F90895990F64
:102150000008550FAA0BE0E8FEEF16161706E80771
:10216000F907C0F012161306E407F50798F0621B92
:10217000730B840B950B39F40A2661F0232B242B67
:10218000252B21F408950A2609F4A140A6958FEF86
:10219000811D811D089597F99F6780E870E060E0D8
:1021A00008959FEF80EC089500240A9416161706F0
:1021B00018060906089500240A9412161306140638
:1021C000050608950C94D1100E943A11D8F3E894B2
:1021D000E0E0BB279F57F0F02AED3FE049EC06C056
:1021E000EE0FBB0F661F771F881F28F0B23A6207F9
:1021F0007307840728F0B25A620B730B840BE395C4
:102200009A9572F7803830F49A95BB0F661F771F46
:10221000881FD2F790480C94D711092E0394000C14
:1022200011F4882352F0BB0F40F4BF2B11F460FF70
:1022300004C06F5F7F4F8F4F9F4F0895EF93E0FF74
:1022400007C0A2EA2AED3FE049EC5FEB0E94D50F00
:102250000E940D110F90039401FC9058E0E9F0E00A
:102260000C94E31157FD9058440F551F59F05F3FF0
:1022700071F04795880F97FB991F61F09F3F79F0A8
:1022800087950895121613061406551FF2CF46952A
:10229000F1DF08C0161617061806991FF1CF8695AC
:1022A0007105610508940895E894BB276627772790
:1022B000CB0197F908950E94A71008F48FEF0895B5
:1022C0000E9473110C940D110E94D41038F00E94DA
:1022D000DB1020F0952311F00C94CB100C94D1104E
:1022E00011240C9455110E94321170F3959FC1F383
:1022F000950F50E0551F629FF001729FBB27F00DB4
:10230000B11D639FAA27F00DB11DAA1F649F662708
:10231000B00DA11D661F829F2227B00DA11D621F57
:10232000739FB00DA11D621F839FA00D611D221F11
:10233000749F3327A00D611D231F849F600D211DF5
:10234000822F762F6A2F11249F5750409AF0F1F078
:1023500088234AF0EE0FFF1FBB1F661F771F881FE1
:1023600091505040A9F79E3F510580F00C94CB103E
:102370000C9455115F3FE4F3983ED4F3869577951E
:102380006795B795F795E7959F5FC1F7FE2B880F87
:10239000911D9695879597F908959F930E94E41053
:1023A0000F9007FCEE5F0C941E119F3F31F091508F
:1023B00020F4879577956795B795880F911D969529
:1023C000879597F908959F938F937F936F93FF93CA
:1023D000EF939B01AC010E946011EF91FF910E946D
:1023E000F7112F913F914F915F910C946011DF9302
:1023F000CF931F930F93FF92EF92DF927B018C019B
:10240000689406C0DA2EEF010E947311FE01E89471
:10241000A5912591359145915591A6F3EF010E9423
:10242000D50FFE019701A801DA9469F7DF90EF90CC
:10243000FF900F911F91CF91DF910895A0E1B0E03F
:10244000E4E2F2E10C94AF157C011B016A01FC018E
:1024500016821782838181FF44C39E012F5F3F4F05
:102460003901F7019381F10193FD859193FF8191EA
:102470001F01882309F431C3853239F493FD859116
:1024800093FF81911F01853239F4B70190E00E94DA
:10249000761756016501E5CF10E0512C912CFFE134
:1024A000F915D8F08B3279F038F4803279F0833234
:1024B000A1F4F92DF0612EC08D3261F0803369F402
:1024C000292D21602DC0392D3260932E892D8460F5
:1024D000982E2AC0E92DE86015C097FC2DC020ED8C
:1024E000280F2A3088F496FE06C03AE0139F200D8C
:1024F0001124122F19C08AE0589E200D1124522E4B
:10250000E92DE0629E2E10C08E3231F496FCE5C2B9
:10251000F92DF0649F2E08C08C3621F4292D2068F7
:10252000922E02C0883641F4F10193FD859193FF0C
:1025300081911F018111B3CF9BEB980F933020F451
:10254000992D9061805E07C09BE9980F933008F049
:1025500066C1992D9F7E96FF16E09F73992E853652
:1025600019F49064992E08C0863621F4392F30680A
:10257000932E02C01111115097FE07C01C3350F466
:1025800044244394410E27E00BC0183038F027E074
:1025900017E005C027E09CE3492E02C0212F412C03
:1025A000560184E0A80EB11CF60160817181828120
:1025B0009381042DA3010E942A166C01F981FC87E6
:1025C000F0FF02C0F3FF06C091FC06C092FE06C0F9
:1025D00000E205C00DE203C00BE201C000E08C8503
:1025E0008C7019F001115AC29BC297FE10C04C0C9E
:1025F000FC85F4FF04C08A81813309F44A941414E1
:1026000074F528E0241578F588E0482E2CC096FC57
:102610002AC0812F90E08C159D059CF03CEFC316DD
:102620003FEFD30674F0892D8068982E0AC0E2E04F
:10263000F0E0EC0FFD1FE10FF11D8081803319F4F4
:1026400011501111F4CF97FE0EC044244394410E53
:10265000812F90E0C816D9062CF41C1904C044241C
:10266000439401C010E097FE06C01C141D0434F40E
:10267000C601019605C085E090E002C081E090E0CF
:1026800001110196112331F0212F30E02F5F3F4FD0
:10269000820F931F252D30E08217930714F4581AE8
:1026A00001C0512C892D897049F4552039F0B701AA
:1026B00080E290E00E9476175A94F7CF002329F029
:1026C000B701802F90E00E94761793FC09C0552037
:1026D00039F0B70180E390E00E9476175A94F7CF63
:1026E00097FE4CC04601D7FE02C0812C912CC6013A
:1026F00088199909F301E80FF91FED87FE87960104
:10270000241931092F87388B012F10E0119501957D
:1027100011093FEF8316930629F4B7018EE290E08A
:102720000E947617C814D9044CF08F8598898815B3
:10273000990524F4ED85FE85818101C080E3F1E0F7
:102740008F1A91082D853E852F5F3F4F2D873E873D
:10275000801691062CF0B70190E00E947617D9CF31
:10276000C814D90441F49A81963320F4953319F4AE
:102770003C8534FF81E3B70190E04EC08A8181330C
:1027800019F09C859F7E9C87B70190E00E94761788
:10279000111105C094FC18C085E690E017C0B70180
:1027A0008EE290E00E9476171E5F82E001E0080F43
:1027B000F301E80FF11D8081B70190E00E947617C8
:1027C000802F0113F3CFE6CF85E490E0B7010E949C
:1027D0007617D7FC06C0C114D10441F4EC85E4FFA0
:1027E00005C0D194C194D1088DE201C08BE2B7013C
:1027F00090E00E94761780E32AE0C216D1042CF004
:102800008F5FFAE0CF1AD108F7CFB70190E00E94AE
:102810007617B701C601C0960E94761754C1833659
:1028200031F0833779F0833509F056C020C0560166
:1028300032E0A30EB11CF6018081898301E010E033
:10284000630112C05601F2E0AF0EB11CF601C08068
:10285000D18096FE03C0612F70E002C06FEF7FEF62
:10286000C6010E9449178C01F92DFF7714C056014B
:1028700022E0A20EB11CF601C080D18096FE03C0FA
:10288000612F70E002C06FEF7FEFC6010E94021758
:102890008C01F92DF0689F2EF3FD1AC0852D90E074
:1028A00008171907A8F4B70180E290E00E94761794
:1028B0005A94F4CFF60197FC859197FE81916F01B0
:1028C000B70190E00E94761751105A9401501109F7
:1028D0000115110579F7F7C0843611F0893661F5D5
:1028E000560197FE09C024E0A20EB11CF6016081DA
:1028F0007181828193810AC0F2E0AF0EB11CF601B2
:1029000060817181072E000C880B990BF92DFF76E1
:102910009F2E97FF09C090958095709561957F4F88
:102920008F4F9F4FF0689F2E2AE030E0A3010E9456
:102930000018C82EC6183FC0092D853721F40F7E18
:102940002AE030E01DC0097F8F3691F018F48835F9
:1029500059F0C3C0803719F0883711F0BEC000614C
:1029600004FF09C0046007C094FE08C0066006C0EA
:1029700028E030E005C020E130E002C020E132E094
:10298000560107FF09C084E0A80EB11CF601608162
:1029900071818281938108C0F2E0AF0EB11CF60113
:1029A0006081718180E090E0A3010E940018C82E30
:1029B000C6180F77902E96FE0BC0092D0E7FC116FC
:1029C00050F494FE0AC092FC08C0092D0E7E05C08A
:1029D000DC2C092D03C0DC2C01C0D12E04FF0DC05E
:1029E000FE01EC0DF11D8081803311F4097E09C0D8
:1029F00002FF06C0D394D39404C0802F867809F0D8
:102A0000D39403FD11C000FF06C01C2DD51480F423
:102A1000150D1D190DC0D51458F4B70180E290E0D2
:102A20000E947617D394F7CFD51410F45D1801C027
:102A3000512C04FF10C0B70180E390E00E9476178C
:102A400002FF17C001FD03C088E790E002C088E5DF
:102A500090E0B7010CC0802F867859F001FF02C0CA
:102A60008BE201C080E207FD8DE2B70190E00E9499
:102A70007617C11638F4B70180E390E00E9476170C
:102A80001150F7CFCA94F301EC0DF11D8081B7010D
:102A900090E00E947617C110F5CF15C0F4E0F5154F
:102AA00060F584E0581A93FE1FC0011127C02C85E1
:102AB00023FF2AC00EEA10E0392D3071932EF80161
:102AC0008491811124C0552009F4E4CCB70180E23F
:102AD00090E00E9476175A94F6CFF701868197818D
:102AE00026C08FEF9FEF23C0B70180E290E00E94E5
:102AF00076175A945110F8CFD8CF512CB701802FA8
:102B000090E00E947617D3CF02EB10E0D5CF911062
:102B10008052B70190E00E9476170F5F1F4FCFCF12
:102B200023E0251510F483E0BDCF512CC0CF609673
:102B3000E2E10C94C81597FB072E16F4009407D019
:102B400077FD09D00E94F81507FC05D03EF490955A
:102B500081959F4F0895709561957F4F08952F92AD
:102B60003F924F925F926F927F928F929F92AF921D
:102B7000BF92CF92DF92EF92FF920F931F93CF936A
:102B8000DF93CDB7DEB7CA1BDB0BCDBFDEBF099429
:102B90002A88398848885F846E847D848C849B84ED
:102BA000AA84B984C884DF80EE80FD800C811B81FB
:102BB000AA81B981CE0FD11DCDBFDEBFED01089531
:102BC0000024A7FD00942A0F301D401D501D601DDC
:102BD000701D801D901D08950024A7FD00942A17E4
:102BE0003005400550056005700580059005089585
:102BF000AA1BBB1B51E107C0AA1FBB1FA617B70723
:102C000010F0A61BB70B881F991F5A95A9F780953E
:102C10009095BC01CD010895FC0188279927E8947F
:102C200021912032E9F3293010F02E30C8F32B32F5
:102C300041F02D3239F4689404C00E946E17820F5F
:102C4000911D219120532A30C0F31EF49095819557
:102C50009F4F0895283008F027E03327DA01990FB5
:102C6000311D87FD916000966105710539F4326070
:102C70002E5F3D9330E32A95E1F708959F3F30F0B2
:102C800080387105610509F03C5F3C5F3D939130F0
:102C900008F08068911DDF93CF931F930F93FF92ED
:102CA000EF92192F987F9695E92F96959695E90FB3
:102CB000FF27E05FFE4F99273327EE24FF24A7016B
:102CC000E70105900894079428F4360FE71EF81ED4
:102CD000491F511D660F771F881F991F0694A1F782
:102CE0000590079428F4E70EF81E491F561FC11DD2
:102CF000770F881F991F661F0694A1F70590079408
:102D000028F4F80E491F561FC71FD11D880F991FA1
:102D1000661F771F0694A1F70590079420F4490FCA
:102D2000561FC71FD81F990F661F771F881F06944D
:102D3000A9F784911095177041F0D695C7955795CE
:102D40004795F794E7941A95C1F7E6EBF0E068949D
:102D50001590159135916591959105907FE2739548
:102D6000E118F10A430B560BC90BD009C0F7E10C6F
:102D7000F11E431F561FC91FD01D7EF4703311F47E
:102D80008A95E6CFE894015030F0080F0AF4002746
:102D9000021708F4202F2395022F7A3328F079E3C5
:102DA0007D932A95E9F710C07D932A9589F60694BC
:102DB00097956795379517951794E118F10A430B86
:102DC000560BC90BD00998F023957E9173957A33F1
:102DD00008F070E37C932013B8F77E9170617D93C7
:102DE00030F0839571E37D9370E32A95E1F7112428
:102DF000EF90FF900F911F91CF91DF91992787FD61
:102E000090950895FC010590615070400110D8F72D
:102E1000809590958E0F9F1F08956817790768F425
:102E2000FB01DC01E40FF51FA40FB51F02C00290E7
:102E30000E9241505040D8F708950C945E18FC0152
:102E40008191861721F08823D9F799270895319722
:102E5000CF010895FB01DC010D900020E9F71197E7
:102E60004150504028F0019000200D92C9F708957C
:102E70001C920895FB01DC014150504048F0019044
:102E80000D920020C9F701C01D9241505040E0F75B
:102E90000895FC016150704001900110D8F78095B1
:102EA00090958E0F9F1F0895FB0151915523A9F016
:102EB000BF01DC014D9145174111E1F759F4CD01F6
:102EC0000190002049F04D9140154111C9F3FB01DB
:102ED0004111EFCF81E090E0019708957AE0979F4C
:102EE000902D879F802D910D112408950F931F938E
:102EF000CF93DF93FB01238121FD03C08FEF9FEF71
:102F00002CC022FF16C0468157812481358142178B
:102F1000530744F4A081B1819D012F5F3F4F20836F
:102F200031838C93268137812F5F3F4F26833783F0
:102F300014C08B01EC01FB010084F185E02D0995A3
:102F4000892BE1F6D80116968D919C9117970196E1
:102F500016968D939C931797CE01DF91CF911F9179
:102F60000F910895AEE0B0E0E8EBF7E10C94BD15E9
:102F70000D891E8986E08C8309831A838FEF9FE772
:102F80008D839E83AE01475E5F4F6F89788DCE0142
:102F900001960E941E12EF81F885E00FF11F10824A
:102FA0002E96E4E00C94D615AEE0B0E0EAEDF7E141
:102FB0000C94BD158C01FA0186E08C8309831A8379
:102FC00077FF02C060E070E8CB0101978D839E839C
:102FD000A901BF01CE0101960E941E124D815E81A2
:102FE00057FD0AC02F813885421753070CF49A0108
:102FF000F801E20FF31F10822E96E4E00C94D61530
:10300000FA01AA27283051F1203181F1E8946F9319
:103010006E7F6E5F7F4F8F4F9F4FAF4FB1E03ED0BF
:10302000B4E03CD0670F781F891F9A1FA11D680F5D
:10303000791F8A1F911DA11D6A0F711D811D911D90
:10304000A11D20D009F468943F912AE0269F112405
:103050003019305D3193DEF6CF010895462F477069
:10306000405D4193B3E00FD0C9F7F6CF462F4F70C4
:10307000405D4A3318F0495D31FD4052419302D022
:10308000A9F7EACFB4E0A6959795879577956795C8
:10309000BA95C9F700976105710508959B01AC01C8
:1030A0000A2E06945795479537952795BA95C9F7EF
:1030B000620F731F841F951FA01D0895FB01DC0183
:1030C00002C001900D9241505040D8F70895DC01A4
:0E30D00028ED209334006C930895F894FFCF00
:1030DE00F36205630C631A636E622F638D6249633C
:1030EE00B5626663C3627C63D1629063DE62A8637D
:1030FE006400BF636500C863C800DC63C900DF639A
:10310E00CA00E763CB00F063CC000E64CD001964F7
:10311E00CE0027642C0137642D0148642E01C6644D
:10312E002F015A64300164643101716433017B6490
:10313E0090018E6491019A649201A7649301B86420
:10314E009401C2649501CC649601DF649701EE642C
:10315E0098010C6599011D659A0126659B012B65E9
:10316E009C013B659D014F659E0168659F017E65D3
:10317E00A0019565A101B565F401C865F501DE658F
:10318E00F601EE65F701FA65F8010E66F9011F66A4
:10319E0058023A66590247665A0255665B025F66E6
:1031AE005C026966687474703A2F2F687474703A92
:1031BE002F2F796F757275726C2E636F6D2F696E0E
:1031CE006465782E7068703F646174613D5B0000C9
:1031DE0000000000000000000000000000000000E1
:1031EE0000000000000000000000000000000000D1
:1031FE0000000000000000000000000000000000C1
:10320E0000000000000000000000000000000000B0
:10321E0000000000000000000000000000000000A0
:10322E000000000000000000000000000000000090
:10323E000000000000000000000000000000000080
:10324E000000000000000000000000000000000070
:10325E000000000000000000000000000000000060
:10326E0000000000C65CCE04F9150D060A0AEF0137
:10327E0034087802E9035508E739E00700F82530ED
:10328E0034752D253032752D253032750024474E7C
:10329E00524D430053494D20507265706172656402
:1032AE002100436865636B696E672053494D2E2E6E
:1032BE002E0041542B48545450504152413D2255FA
:1032CE00524C222C22257325735D220A0041542B69
:1032DE0048545450414354494F4E3D300A004E4FCE
:1032EE0020524553504F4E534500504152534520A6
:1032FE004552524F5200554E4B4E4F574E002B4893
:10330E00545450414354494F4E3A002B534150426E
:10331E00523A20312C312C0055524C002B43535134
:10332E003A00525353493A2025642064426D3A20A4
:10333E0025640041542B4353510A00257300415418
:10334E002B53415042523D332C312C22434F4E547D
:10335E00595045222C2247505253220A0041542BD9
:10336E0053415042523D332C312C2241504E222C8F
:10337E0022696E7465726E65742E74656C65322E7C
:10338E006C74220A0041542B53415042523D312C51
:10339E00310A0041542B53415042523D322C310AD6
:1033AE000041542B48545450494E49540A0041543C
:1033BE002B48545450504152413D22434944222CF3
:1033CE00310A0041542B48545450504152413D2231
:1033DE0055524C220053656E643A200041542B48DE
:1033EE00545450414354494F4E004461746120720D
:1033FE00656365697665207374617475730A00532D
:10340E006574204750525320436F6E6E6563746926
:10341E006F6E20547970650A005365742041504ECA
:10342E00202841636365737320506F696E74204E5C
:10343E00616D65290A004163746976617465204780
:10344E00505253204265617265720A00476574746A
:10345E00696E6720495020616464726573730A0057
:10346E00496E697469616C697A65204854545020BC
:10347E004D6F64756C650A00536574204854545042
:10348E002047505253204368616E6E656C0A0043AC
:10349E006F6E74696E756500537769746368696ED3
:1034AE00672050726F746F636F6C73004F4B0043E5
:1034BE007265617465640041636365707465640070
:1034CE004E6F6E2D417574686F7269746174697692
:1034DE006520496E666F726D6174696F6E004E6F16
:1034EE0020436F6E74656E7400526573657420436D
:1034FE006F6E74656E74005061727469616C2043F6
:10350E006F6E74656E74004D756C7469706C6520A9
:10351E0043686F69636573004D6F7665642050650F
:10352E00726D616E656E746C7900536565204F74B3
:10353E00686572004E6F74204D6F646966696564CC
:10354E00005573652050726F78790054656D706FF9
:10355E0072617279205265646972656374004261AA
:10356E0064205265717565737400556E617574686B
:10357E006F72697A6564005061796D656E74205260
:10358E006571756972656400466F7262696464651F
:10359E006E004E6F7420466F756E64004D657468D4
:1035AE006F64204E6F7420416C6C6F776564004EB3
:1035BE006F742041636365707461626C6500507254
:1035CE006F78792041757468656E7469636174698A
:1035DE006F6E205265717569726564005265717502
:1035EE006573742054696D652D6F757400436F6E2D
:1035FE00666C69637400476F6E65004C656E677428
:10360E006820526571756972656400507265636FEA
:10361E006E646974696F6E204661696C65640052F0
:10362E0065717565737420456E7469747920546F75
:10363E006F204C6172676500526571756573742DEC
:10364E0055524920546F6F204C6172676500556E5C
:10365E00737570706F72746564204D656469612056
:10366E005479706500526571756573746564205286
:10367E00616E6765204E6F7420536174697366695D
:10368E0061626C65004578706563746174696F6E14
:10369E00204661696C656400496E7465726E616C7A
:1036AE0020536572766572204572726F72004E6F8E
:1036BE007420496D706C656D656E74656400426151
:1036CE00642047617465776179005365727669632A
:1036DE006520556E617661696C61626C650047614B
:1036EE0074657761792054696D652D6F7574004826
:1036FE005454502056657273696F6E206E6F74202D
:10370E00737570706F72746564004E6F74204854D8
:10371E00545020504455004E6574776F726B20459F
:10372E0072726F72004E6F206D656D6F727900440C
:10373E004E53204572726F7200537461636B204258
:10374E0075737900000000000000005F00000007A4
:10375E00000700147F147F14242A7F2A12231308D3
:10376E00646236495522500005030000001C2241B8
:10377E00000041221C0014083E081408083E0808E8
:10378E0000503000000808080808006060000020A3
:10379E00100804023E5149453E00427F40004261FE
:1037AE005149462141454B311814127F102745458A
:1037BE0045393C4A494930017109050336494949A1
:1037CE0036064949291E00363600000056360000DE
:1037DE000814224100141414141400412214080277
:1037EE0001510906324979413E7E1111117E7F4900
:1037FE004949363E414141227F4141221C7F494980
:10380E0049417F090909013E4149497A7F08080863
:10381E007F00417F41002040413F017F081422413B
:10382E007F404040407F020C027F7F0408107F3EA5
:10383E004141413E7F090909063E4151215E7F0902
:10384E00192946464949493101017F01013F40404E
:10385E00403F1F2040201F3F4038403F6314081454
:10386E006307087008076151494543007F414100D5
:10387E0002040810200041417F00040201020440AE
:10388E0040404040000307000020545454787F48C5
:10389E004444383844444420384444487F385454CF
:1038AE005418087E090102081454543C7F0804047D
:1038BE007800447D40002040443D007F10284400A5
:1038CE0000417F40007C041804787C08040478389A
:1038DE00444444387C14141408081414187C7C08CE
:1038EE000404084854545420043F4440203C4040B3
:1038FE00207C1C2040201C3C4030403C442810289A
:10390E00440C5050503C4464544C44000836410022
:10391E0000007F0000004136080008082A1C080835
:10392E001C2A080806090906007E1111917E004125
:10393E007FC1007E1111917E3E414141227E1111C7
:10394E00917E7E1111917E7F4949C9417F4949C9B6
:10395E007F3C434243247E4A4B4A4162534A47428C
:10396E007E4A4B4A423E4149497A7F081422410021
:10397E00417F41007F40404040444B4A4B327F04E0
:10398E0008107F7F0408107F3E4141413E3E414179
:10399E00413E3E4141413E3E4141413E4428102878
:1039AE00443F4040C03F7F40404040444B4A4B3232
:1039BE003C4141413C3C4141413C62534A47426299
:1039CE00534A47423649494936205454D478004424
:1039DE007DC000205454547838444444202054541C
:1039EE0054782054545478385454D4183854555468
:1039FE0018384546452038545554184465564D449C
:103A0E003854555418081454543C7F102844000060
:103A1E00447D400000417F400048555655207C08AB
:103A2E000404787C08040478384444443838444408
:103A3E004438384444443838444444380036360018
:103A4E0000384040A07800417F4000485454542034
:103A5E00384242227838424222784465564D4444D8
:103A6E0065564D440005030000253034582530348A
:103A7E00582530345825303258255825303258259F
:103A8E0058253033582530345825303358253033A7
:063A9E00582530345800E9
:00000001FF
