S02300004156523634444433322D53494D3830304C2D4853313830533130422E7372656370
S11300000C9448000C9465000C9465000C946500F5
S11300100C9465000C9465000C9465000C946500C8
S11300200C9465000C9465000C9465000C946500B8
S11300300C9465000C9465000C9465000C946500A8
S11300400C9465000C9465000C9465000C94650098
S11300500C9465000C9465000C9465000C94650088
S11300600C9465000C9465000C9465000C94650078
S11300700C9465000C9465000C9465000C94650068
S11300800C9465000C9465000C9465000C94650058
S113009011241FBECFEFCDBFDFE7DEBF13E6A0E024
S11300A0B0E6EEE6F2E102C005900D92AC37B1077E
S11300B0D9F723E6ACE7B3E601C01D92AE3EB20722
S11300C0E1F70E94EC010C9435090C940000CF93E5
S11300D0DF93FC01EC0120E030E00FC09C3261F4BE
S11300E01082D901AA0FBB1FA60FB71FCD93DC93B3
S11300F0EF0121962F5F3F4F31969081992319F09C
S1130100241735075CF3241735076CF4CE17DF0783
S113011050F4C901880F991FFB01E80FF91FC08330
S1130120D1832F5F3F4FC901DF91CF9108950F9382
S11301301F93CF93DF93CDB7DEB7CA55D109CDBF97
S1130140DEBF8B0160E070E60E94F705009709F4BA
S11301506DC04BE350E0BC01CE0101960E94E8055E
S11301601CAEBE01635C7F4F8EE1FB0111928A9548
S1130170E9F74FE050E0CE0101960E9467000A972C
S11301800CF456C02196AEADBFAD2197109799F1EE
S1130190FD0101900020E9F73197EA1BFB0B36972C
S11301A050F115965C91159714964C9114971396EB
S11301B03C91139712962C91129711969C9111973A
S11301C08C911F925F931F924F931F923F931F92A4
S11301D02F931F929F931F928F9387E090E69F9394
S11301E08F931F928BE08F931F930F930E9411069E
S11301F0CDBFDEBF08C089E0E6E1F0E6D80101909A
S11302000D928A95E1F761966EAD7FAD61976115A8
S1130210710541F049E050E0C8010B960E94E805E1
S113022081E007C0F801138681E003C080E001C0CB
S113023080E0C65ADF4FCDBFDEBFDF91CF911F9163
S11302400F9108950F931F93CF93DF93EC0185E1F2
S1130250FE0111928A95E9F760E070E68CE793E677
S11302600E94F705892B49F0BE018CE793E60E94B2
S11302709700882311F081E08C8B00E010E020EEE1
S113028037E04FE150E660E170E080E090E00E94EA
S11302908B04AE01455F5F4F20EE37E060E170E014
S11302A080E390E00E948B0420EE37E047E250E6C2
S11302B068E170E080E090E00E948B0420EE37E07B
S11302C0AE0168E170E080E390E00E948B04DF916E
S11302D0CF911F910F9108950F931F93CF93DF93A5
S11302E010E000E0C0E0D0E00E94D90401111AC07F
S11302F0E12FF0E0E35DFF499081891311C01F5F96
S1130300163091F786E0EDE2F0E6ACE7B3E6019053
S11303100D928A95E1F710E001E0C6E0D0E0E4CF69
S113032010E0E2CFCB33D10528F4FE01E458FC49B8
S1130330808321968A3069F4C230D10550F0FE01E1
S1130340E658FC4980818D3021F4C458DC49188278
S113035005C0CB33D10540F21092B763DF91CF9142
S11303601F910F91089564E288E690E00E94FE08D0
S113037060E080E690E00E94FE088091650080FDC8
S1130380FCCF0895E0EEF5E012821582E0E0F4E09F
S11303908CED8183A0E6B4E08CE011968C931197E8
S11303A080E911968C93119780E212968C931297A0
S11303B088E054968C93549755968C9394E091834B
S11303C08283828B838BE0E4F4E091E0918392E07A
S11303D09283808B818B08950E94B3010E94C20195
S11303E00E945D0280E00E94B7040E9457050E94AB
S11303F0AF0280E090E00E94DC0384E390E69F93E8
S11304008F9381E08F930E949E050E942A022FEF12
S11304108EE994E2215080409040E1F700C0000052
S11304200E946C0188EB93E60E9422010F900F90CA
S11304300F90E3CF0F931F9300E010E02FE130E023
S1130440AC0160E270E080E090E00E948B041F91B8
S11304500F9108951F93CF93DF93CDB7DEB76997BC
S1130460CDBFDEBFFE01319689E1DF011D928A9581
S1130470E9F71092D16310E00AC00E948705E1E019
S1130480F0E0EC0FFD1FE10FF11D80831F5F8091F1
S1130490D163882391F3E1E0F0E0EC0FFD1FE10F5D
S11304A0F11D1082CE0101960E941A026996CDBFF9
S11304B0DEBFDF91CF911F910895E0E4F9E081E37D
S11304C0808384E081830895809344098091430963
S11304D08823E4F70895CF93C82F892F0E946402DC
S11304E08C2F0E946402CF9108951F93CF93DF93C2
S11304F094E090936604C0E0D4E010E81E830E9468
S113050064021D83DF91CF911F9108951F93CF93B0
S1130510DF9394E090936504C0E0D4E010E81E8378
S11305200E9464021D83DF91CF911F910895E0E63C
S1130530F4E088E086832FEF3DEE92E021503040D6
S11305409040E1F700C0000085832FEF35EA8EE08C
S1130550215030408040E1F700C0000008950E941F
S1130560970281E10E9475022FEF89EC98E02150F7
S113057080409040E1F700C0000081EB0E947502CA
S113058085E00E9486028CE30E9486028CE30E942E
S1130590860282EB0E94750285E00E9486028CE34B
S11305A00E9486028CE30E94860283EB0E947502FD
S11305B085E00E9486028CE30E9486028CE30E94FE
S11305C0860285E00E9486028CE30E9486028CE308
S11305D00E94860284EB0E94750283E00E948602D8
S11305E080EC0E94750288E20E94860288E00E94E4
S11305F0860284E00E94860281EC0E94750280ECEF
S11306000E94860282EC0E9475028DE00E9486029E
S113061080E00E94860283EC0E9475028DE80E94AD
S113062086028AE20E94860284EC0E9475028DE8AA
S11306300E9486028EEE0E94860285EC0E9475025C
S11306408AE10E94860286E30E94750280EC0E9481
S113065086028AE30E94750285E00E94860280EE8B
S11306600E94750284E00E94860282E20E94860251
S113067087E00E9486028AE00E9486028EE20E943F
S1130680860280E30E94860285E20E9486028AE254
S11306900E94860288E20E94860286E20E94860206
S11306A08EE20E9486028AE30E94860280E00E9413
S11306B0860281E00E94860283E00E94860283E132
S11306C00E94860281EE0E94750284E00E948602E6
S11306D086E10E94860286E00E9486028DE00E94E6
S11306E086028DE20E94860286E20E94860283E2EE
S11306F00E94860287E20E94860287E20E948602A6
S113070085E20E9486028DE20E9486028BE30E94AB
S1130710860280E00E94860281E00E94860284E0D4
S11307200E94860283E10E94860289E20E94750289
S11307302FEF86E791E0215080409040E1F700C020
S113074000000895CF92DF92EF92FF920F931F93D0
S1130750CF93DF93D82EC92E162F072FF42EE52E14
S1130760C22FD32F8AE20E9475028C2D0E9486022A
S11307708D2D0E9486028E2D0E9486028F2D0E944E
S113078086028BE20E947502802F0E948602812FCE
S11307900E9486028D2F0E9486028C2F0E94860260
S11307A08CE20E947502DF91CF911F910F91FF900F
S11307B0EF90DF90CF900895CF92DF92EF92FF9267
S11307C0CF93DF93EC012FE930E04FE750E060E096
S11307D070E080E090E00E94A20384E080936504CE
S11307E080E880930604C12CD12C760108C0CE0188
S11307F00E946B028FEFC81AD80AE80AF80AC114DB
S113080080E5D806E104F10490F380E880930504C0
S1130810DF91CF91FF90EF90DF90CF900895EF920A
S1130820FF921F93CF93DF938038910598F4603A39
S1130830710580F47A019B01AC010E94A20384E05B
S113084080936504C0E0D4E010E81E83C7010E94D1
S11308506B021D83DF91CF911F91FF90EF9008955C
S11308605F926F927F928F929F92AF92BF92CF923C
S1130870DF92EF92FF920F931F93CF93DF935C016C
S11308804B01E22E532E80EE840F803608F04FE3A6
S113089050E0405251093A01660C771C660C771CF3
S11308A0460D571DCA01875C9F493C01C12CD12CC0
S11308B01EC0F301EC0DFD1DF080C0E0D0E011C0BE
S11308C0F0FE03C04E2D552D02C0402F512FBE0106
S11308D0680D791DC6018A0D9B1D0E940F04F694B4
S11308E02196C730D10564F39FEFC91AD90A85E070
S11308F0C816D104F4F2DF91CF911F910F91FF90AC
S1130900EF90DF90CF90BF90AF909F908F907F90AB
S11309106F905F9008958F929F92AF92BF92CF9203
S1130920DF92EF92FF920F931F93CF93DF937C019B
S11309304B01EA01590168010AC02196860195011B
S1130940B401C7010E94300486E0E80EF11C48811E
S11309504111F3CFDF91CF911F910F91FF90EF9051
S1130960DF90CF90BF90AF909F908F90089590911B
S1130970E205987F882311F023E001C022E0922B46
S11309809093E205882319F023E836E002C028E8B2
S113099033E1209308083093090891E0811101C0E4
S11309A090E0E0E0F8E0958382EC868383E087833F
S11309B00895FF920F931F93CF93DF9380E8809362
S11309C004086894FF24F6F80DE013E0D0E0C0E0DA
S11309D0B0E0F0E0E0E03AC02F2D302F412F5D2F42
S11309E06C2F7B2F8F2F9E2FAFEF0E94D005F22EFE
S11309F0032F142FD52FC62FB72FF82FE92FA0E0E0
S1130A000E94DC0519F581E08093CE6300E010E0DC
S1130A1020E038EF4EE553E660E070E080E090E0DF
S1130A200E948B042FEF82E597E021508040904094
S1130A30E1F700C0000020E038EF4DE653E660E047
S1130A4070E080E090E00E948B0404C08091040870
S1130A50882314F680910008DF91CF911F910F91A4
S1130A60FF9008959091040895FFFCCF80930208AD
S1130A7008950F931F93CF93DF938C01C0E0D0E0D0
S1130A8007C0F801EC0FFD1F80810E9432052196FA
S1130A90F80101900020E9F73197E01BF10BCE1724
S1130AA0DF0778F3DF91CF911F910F910895E0E272
S1130AB0F8E081EA91E08087918782EC868383E085
S1130AC0878308959091240895FFFCCF8093220892
S1130AD008950F931F93CF93DF938C01C0E0D0E070
S1130AE007C0F801EC0FFD1F80810E94620521966A
S1130AF0F80101900020E9F73197E01BF10BCE17C4
S1130B00DF0778F3DF91CF911F910F91089580E86B
S1130B108093240880EB9EE1A4E0B0E008C0019734
S1130B20A109B10921F481E08093D16304C020912B
S1130B3024082223A4F78091200808951F93CF93BB
S1130B40DF93CDB7DEB7C058D109CDBFDEBFCA57DA
S1130B50DF4F1881C658D0409E0127573F4FC957D1
S1130B60DF4F48815981C758D04060E870E0CE011A
S1130B7001960E944106111105C0CE0101960E9402
S1130B80390506C0113021F4CE0101960E94690591
S1130B90C058DF4FCDBFDEBFDF91CF911F910895C5
S1130BA00024A7FD00942A0F301D401D501D601D18
S1130BB0701D801D901D08950024A7FD00942A1720
S1130BC030054005500560057005800590050895C1
S1130BD0FB01DC014150504048F001900D9200208F
S1130BE0C9F701C01D9241505040E0F70895FB0140
S1130BF051915523A9F0BF01DC014D9145174111D5
S1130C00E1F759F4CD010190002049F04D914015D0
S1130C104111C9F3FB014111EFCF81E090E001974D
S1130C200895AEE0B0E0E7E1F6E00C9412090D8916
S1130C301E898F89988D26E02C8309831A8397FF58
S1130C4002C080E090E801978D839E83AE01455EEB
S1130C505F4F698D7A8DCE0101960E946D064D819C
S1130C605E8157FD0AC02F813885421753070CF463
S1130C709A01F801E20FF31F10822E96E4E00C941F
S1130C802B09AEE0B0E0E7E4F6E00C9412098C0125
S1130C90FA0186E08C8309831A8377FF02C060E03F
S1130CA070E8CB0101978D839E83A901BF01CE011A
S1130CB001960E946D064D815E8157FD0AC02F8109
S1130CC03885421753070CF49A01F801E20FF31F19
S1130CD010822E96E4E00C942B09ABE0B0E0E3E73D
S1130CE0F6E00C9404096C017B018A01FC01168274
S1130CF01782838181FFCCC1CE0101963C01F601AC
S1130D009381F70193FD859193FF81917F0188235E
S1130D1009F4BAC1853239F493FD859193FF819129
S1130D207F01853229F4B60190E00E946408E7CF80
S1130D30912C212C312CFFE1F315D8F08B3279F072
S1130D4038F4803279F08332A1F4232D20611DC060
S1130D508D3261F0803369F4232D216016C0832D18
S1130D608260382EE32DE4603E2E2AC0F32DF86015
S1130D701DC037FC2DC020ED280F2A3040F08E32E4
S1130D80B9F436FC81C1232D2064322E19C036FEFD
S1130D9006C08AE0989E200D1124922E11C0EAE02C
S1130DA02E9E200D1124222EF32DF0623F2E08C01A
S1130DB08C3621F4832D8068382E02C0883641F4A5
S1130DC0F70193FD859193FF81917F018111B3CF49
S1130DD0982F9F7D9554933028F40C5F1F4F9FE309
S1130DE099830DC0833631F0833771F0833509F070
S1130DF059C021C0F801808189830E5F1F4F882468
S1130E008394912C530113C02801F2E04F0E511C1E
S1130E10F801A080B18036FE03C0692D70E002C0E5
S1130E206FEF7FEFC5010E9459084C018201F32D39
S1130E30FF773F2E16C0280122E0420E511CF80114
S1130E40A080B18036FE03C0692D70E002C06FEF50
S1130E507FEFC5010E944E084C01F32DF0683F2E30
S1130E60820133FC1BC0822D90E088169906B0F4F1
S1130E70B60180E290E00E9464082A94F4CFF50160
S1130E8037FC859137FE81915F01B60190E00E94A5
S1130E90640821102A9421E0821A91088114910493
S1130EA071F7E8C0843611F0893641F5F80137FE50
S1130EB007C060817181828193810C5F1F4F08C0DC
S1130EC060817181072E000C880B990B0E5F1F4FF8
S1130ED0F32DFF763F2E97FF09C09095809570956E
S1130EE061957F4F8F4F9F4FF0683F2E2AE030E08F
S1130EF0A3010E94A008882E861845C0853731F4C6
S1130F00232D2F7EB22E2AE030E025C0932D997F29
S1130F10B92E8F36C1F018F4883579F0B5C0803712
S1130F2019F0883721F0B0C0E92FE061BE2EB4FE7D
S1130F300DC0FB2DF460BF2E09C034FE0AC0292F5A
S1130F402660B22E06C028E030E005C020E130E083
S1130F5002C020E132E0F801B7FE07C06081718170
S1130F60828193810C5F1F4F06C06081718180E094
S1130F7090E00E5F1F4FA3010E94A008882E8618E0
S1130F80FB2DFF773F2E36FE0DC0232D2E7FA22E84
S1130F90891458F434FE0BC032FC09C0832D8E7EB4
S1130FA0A82E05C0B82CA32C03C0B82C01C0B92CA2
S1130FB0A4FE0FC0FE01E80DF11D8081803321F4F1
S1130FC09A2D997EA92E09C0A2FE06C0B394B394AB
S1130FD004C08A2D867809F0B394A3FC11C0A0FE46
S1130FE006C0B21488F4280C922C9B180EC0B214BC
S1130FF060F4B60180E290E00E946408B394F7CFF5
S1131000B21418F42B1802C0982C212CA4FE10C082
S1131010B60180E390E00E946408A2FE17C0A1FC20
S113102003C088E790E002C088E590E0B6010CC0F8
S11310308A2D867859F0A1FE02C08BE201C080E2BD
S1131040A7FC8DE2B60190E00E946408891438F48C
S1131050B60180E390E00E9464089A94F7CF8A94E2
S1131060F301E80DF11D8081B60190E00E9464084F
S11310708110F5CF222009F442CEB60180E290E03F
S11310800E9464082A94F6CFF6018681978102C0F3
S11310908FEF9FEF2B96E2E10C941D09FC01059064
S11310A0615070400110D8F7809590958E0F9F1F66
S11310B00895FC016150704001900110D8F78095AB
S11310C090958E0F9F1F08950F931F93CF93DF93D7
S11310D0FB01238121FD03C08FEF9FEF2CC022FF72
S11310E016C046815781248135814217530744F441
S11310F0A081B1819D012F5F3F4F208331838C9369
S1131100268137812F5F3F4F2683378314C08B019D
S1131110EC01FB010084F185E02D0995892BE1F6B2
S1131120D80116968D919C911797019616968D93DA
S11311309C931797CE01DF91CF911F910F91089542
S1131140FA01AA27283051F1203181F1E8946F93F4
S11311506E7F6E5F7F4F8F4F9F4FAF4FB1E03ED09A
S1131160B4E03CD0670F781F891F9A1FA11D680F38
S1131170791F8A1F911DA11D6A0F711D811D911D6B
S1131180A11D20D009F468943F912AE0269F1124E0
S11311903019305D3193DEF6CF010895462F477044
S11311A0405D4193B3E00FD0C9F7F6CF462F4F709F
S11311B0405D4A3318F0495D31FD4052419302D0FD
S11311C0A9F7EACFB4E0A6959795879577956795A3
S11311D0BA95C9F700976105710508959B01AC01A3
S11311E00A2E06945795479537952795BA95C9F7CA
S11311F0620F731F841F951FA01D0895DC0128ED45
S1131200209334006C9308952F923F924F925F92F3
S11312106F927F928F929F92AF92BF92CF92DF9202
S1131220EF92FF920F931F93CF93DF93CDB7DEB767
S1131230CA1BDB0BCDBFDEBF09942A8839884888D6
S11312405F846E847D848C849B84AA84B984C884DE
S1131250DF80EE80FD800C811B81AA81B981CE0FD5
S1111260D11DCDBFDEBFED010895F894FFCF80
S113126E24474E524D4300256325633A2563256377
S113127E3A256325630030303A30303A3030006C12
S113128E61696B61733A00646174613A0024474E7C
S113129E524D430041540D0A0000000000000000AE
S11312AE5F00000007000700147F147F14242A7FB8
S11312BE2A1223130864623649552250000503008E
S11312CE00001C2241000041221C0014083E081498
S11312DE08083E08080050300000080808080800F6
S11312EE6060000020100804023E5149453E004251
S11312FE7F400042615149462141454B3118141239
S113130E7F1027454545393C4A4949300171090545
S113131E033649494936064949291E003636000026
S113132E005636000008142241001414141414003C
S113133E412214080201510906324979413E7E11B7
S113134E11117E7F494949363E414141227F414137
S113135E221C7F494949417F090909013E414949F6
S113136E7A7F0808087F00417F41002040413F01F9
S113137E7F081422417F404040407F020C027F7F51
S113138E0408107F3E4141413E7F090909063E4152
S113139E51215E7F09192946464949493101017F88
S11313AE01013F4040403F1F2040201F3F40384036
S11313BE3F631408146307087008076151494543D5
S11313CE007F41410002040810200041417F0004C7
S11313DE0201020440404040400003070000205434
S11313EE5454787F48444438384444442038444460
S11313FE487F3854545418087E0901020814545472
S113140E3C7F0804047800447D40002040443D00A5
S113141E7F1028440000417F40007C041804787C2F
S113142E0804047838444444387C1414140808140A
S113143E14187C7C080404084854545420043F4473
S113144E40203C4040207C1C2040201C3C4030402E
S113145E3C44281028440C5050503C4464544C4492
S113146E000836410000007F0000004136080008E5
S113147E082A1C08081C2A080806090906007E11F9
S113148E11917E00417FC1007E1111917E3E41413A
S113149E41227E1111917E7E1111917E7F4949C99F
S11314AE417F4949C97F3C434243247E4A4B4A41CA
S11314BE62534A47427E4A4B4A423E4149497A7FE9
S11314CE0814224100417F41007F40404040444B7C
S11314DE4A4B327F0408107F7F0408107F3E41413F
S11314EE413E3E4141413E3E4141413E3E414141EC
S11314FE3E44281028443F4040C03F7F4040404077
S113150E444B4A4B323C4141413C3C4141413C629B
S113151E534A474262534A47423649494936205450
S113152E54D47800447DC000205454547838444434
S113153E442020545454782054545478385454D459
S113154E18385455541838454645203854555418AF
S113155E4465564D443854555418081454543C7F1D
S113156E1028440000447D400000417F400048554F
S113157E5655207C080404787C08040478384444C6
S113158E4438384444443838444444383844444451
S113159E380036360000384040A07800417F4000C5
S11315AE48545454203842422278384242227844D5
S11315BE65564D444465564D44000503000055538D
S11315CE415254302074696D656F7574002020206B
S10F15DE2020202020202020202020009D
S9030000FC
