:100000000C94D8000C94F5000C94F5000C94F500B9
:100010000C94F5000C94F5000C94F5000C94F5008C
:100020000C94F5000C94F5000C94F5000C94F5007C
:100030000C94F5000C94F5000C94F5000C94F5006C
:100040000C94F5000C94F5000C94F5000C94F5005C
:100050000C94F5000C94F5000C94F5000C94F5004C
:100060000C94F5000C94F5000C94F5000C94F5003C
:100070000C94F5000C94F5000C94F5000C94F5002C
:100080000C94F5000C94F5000C94F5000C94F5001C
:1000900005A84CCDB2D44EB93836A9020C50B9914E
:1000A0008688083CA6AAAA2ABE000000803F6E618E
:1000B0006E00696E660000407A10F35A00A0724E1E
:1000C00018090010A5D4E80000E87648170000E4FD
:1000D0000B54020000CA9A3B000000E1F505000045
:1000E00080969800000040420F000000A0860100AA
:1000F0000000102700000000E8030000000064007A
:10010000000000000A0000000000010000000000E4
:100110002C76D888DC674F0823DFC1DFAE59E1B108
:10012000B796E5E3E453C63AE651997696E8E6C217
:100130008426EB898C9B62ED407C6FFCEFBC9C9F1E
:1001400040F2BAA56FA5F490055A2AF75C936B6C40
:10015000F9676DC11BFCE0E40D47FEF520E6B50034
:10016000D0ED902E0300943577050080841E0800A2
:1001700000204E0A000000C80C333333330F986E52
:1001800012831141EF8D2114893BE65516CFFEE60F
:10019000DB18D1844B381BF77C1D901DA4BBE424D5
:1001A000203284725E228100C9F124ECA1E53D2752
:1001B00011241FBECFEFCDBFDFE7DEBF14E6A0E006
:1001C000B0E6E0EFF7E202C005900D92AC38B1075F
:1001D000D9F729E6ACE8B4E601C01D92AE39B20702
:1001E000E1F70E945A030C94F6130C940000CF938D
:1001F000DF93FC01EC0120E030E00FC09C3261F4A1
:100200001082D901AA0FBB1FA60FB71FCD93DC9395
:10021000EF0121962F5F3F4F31969081992319F07E
:10022000241735075CF3241735076CF4CE17DF0766
:1002300050F4C901880F991FFB01E80FF91FC08313
:10024000D1832F5F3F4FC901DF91CF910895CF93A5
:10025000DF93CDB7DEB76E97CDBFDEBFBE016F5F58
:100260007F4F8EE1FB0111928A95E9F74FE050E054
:100270008CE894E60E94F7000A970CF47AC0EB81B0
:10028000FC81309799F1DF010D900020E9F711977B
:10029000AE1BBF0B169750F1808190E0C097A8EC81
:1002A000B4E6880F982F990F990F890F9181890FC4
:1002B00080538C93828190E0C097880F982F990F7C
:1002C000990F890F9381890F805311968C93119701
:1002D000848190E0C097880F982F990F990F890F0C
:1002E0009581890F805312968C9305C0E8ECF4E653
:1002F000128211821082EB89FC893097A9F1DF010B
:100300000D900020E9F71197AE1BBF0B169761F512
:10031000808190E0C097A8ECB4E6880F982F990FE1
:10032000990F890F9181890F805313968C9313979E
:10033000828190E0C097880F982F990F990F890FAD
:100340009381890F805314968C931497848190E045
:10035000C097880F982F990F990F890F9581890F52
:10036000805315968C9305C0E8ECF4E61582148250
:1003700013826E96CDBFDEBFDF91CF910895E8EC7A
:10038000F4E633812481858190E01F923F931F9290
:100390002F938053984F9F938F938AE090E69F937B
:1003A0008F931F921F928FEF8F938F9381E08F9384
:1003B0001F920E94AC088DB79EB70E968DBF9EBF50
:1003C00008950F931F93CF93DF9310E000E0C0E0F8
:1003D000D0E00E940E0B01111AC0E12FF0E0E15EA7
:1003E000FF499081891311C01F5F163091F786E095
:1003F000EFE1F0E6ACE8B4E601900D928A95E1F702
:1004000010E001E0C6E0D0E0E4CF10E0E2CFCB3373
:10041000D10528F4FE01E457FB49808321968A30F8
:1004200079F4C230D10560F0FE01E657FB498081C6
:100430008D3031F4C457DB4918820E94270105C072
:10044000CB33D10530F21092C764DF91CF911F9169
:100450000F9108950E94E1018091CA64882311F0F0
:1004600080E0089581E0089564E288E690E00E94CB
:10047000F01360E080E690E00E94F0138091650048
:1004800080FDFCCF0895E0EEF5E012821582E0E0F9
:10049000F4E08CED8183A0E6B4E08CE011968C93BF
:1004A000119780E911968C93119780E212968C93A4
:1004B000129788E054968C93549755968C9394E0B9
:1004C00091838283828B838BE0E4F4E091E09183DB
:1004D00092E09283808B818B08954F925F926F920E
:1004E0007F928F929F92AF92BF92CF92EF920F9393
:1004F0001F93CF93DF934C01C62FD72FC42EB52E59
:1005000080E090E00E94CC06DF93CF931F921F9271
:1005100088EF8F931F9281E08F9380E18F930E94E9
:10052000AC088DB79EB708968DBF9EBF0F2EF2E127
:10053000EF2EF02DF4010995882309F48CC010E00A
:1005400087C0C02FD0E0CE018E0D911D6EE170E00E
:100550000E94BC11BC017727072E000C880B990B59
:100560000E948D0C20E537E746E55EE30E94810D91
:100570002B013C0120E030E0A9010E944B0C8823B4
:100580000CF44EC022ED33E54BE750E4C301B20159
:100590000E947C0D18160CF443C00023A9F02FEF25
:1005A0002C9FC0012D9F900D112469E070E00E94E6
:1005B000BC11FFE16F9FC00111246FEF70E00E943A
:1005C000BC11EB01DD2702C0C0E0D0E0C301B201E5
:1005D0000E94500C20E030E040EF51E40E94810D79
:1005E00020E030E040E852E40E94DF0B0E94550C0E
:1005F000A62EC301B2010E94EE0D20E030E040EFD4
:1006000051E40E94810D20E030E04CE852E40E9469
:10061000DF0B0E94550C9E0145E08A2D0E942007A9
:100620000F5F01C000E00A3008F48BCF8E2D90E000
:1006300001966EE170E00E94BC11E82E2FE789EA76
:1006400093E0215080409040E1F700C000001F5F20
:100650001F3140F36FCF80E090E00E94CC06BF9244
:10066000CF921F921F9287E08F9380EE8F9381E04D
:100670008F9380E18F930E94AC08EFEFFBE722E9B4
:10068000E150F0402040E1F700C000008DB79EB778
:1006900008968DBF9EBFDF91CF911F910F91EF9074
:1006A000CF90BF90AF909F908F907F906F905F9012
:1006B0004F9008950E9434020E9443020E944D050B
:1006C00080E00E94EC0A0E946D0B0E949F0580E072
:1006D00090E00E94CC0646E250E664E370E681E4D6
:1006E00095E00E946D0244E450E661E570E68AE21E
:1006F00092E00E946D0264E670E083E690E60E945C
:10070000EC0464E670E087E690E60E94EC046CE29C
:1007100071E086E890E60E94EC046CED75E08EEAEC
:1007200090E60E94EC0464EB70E08CEB90E60E9493
:10073000EC0464E670E089EC90E60E94EC0464EF5F
:1007400071E08EED90E60E94EC0460E177E28BE3CD
:1007500091E60E94EC042FEF37ED88EB95E02150F5
:10076000304080409040D9F700C00000E8CF1F9390
:10077000CF93DF93BC01909141019111FCCFC0E474
:10078000D1E011E01F8380E090E00E948B0C2FE607
:1007900032E143E85FE30E94810D0E945C0C80E03F
:1007A00090E00E948B0C20E030E040E05FE30E948C
:1007B000DF0B0E945C0C6A877B871886198618837A
:1007C000DF91CF911F910895E0E4F1E080818E7F69
:1007D0008083809141018111FCCF0895EF92FF92B7
:1007E0000F931F93CF93DF93CDB7DEB72697CDBF7F
:1007F000DEBF89839A8380EA91E08B839C8380EEBD
:1008000097E08D839E83EE24E394F12C8E010D5F9F
:100810001F4F9E012F5F3F4F40E050E061E086E0B8
:100820000E94B7092FEF8BE792E92150804090405A
:10083000E1F700C000002696CDBFDEBFDF91CF916B
:100840001F910F91FF90EF9008951F93CF93DF9327
:10085000CDB7DEB7C456D109CDBFDEBF0E94B70306
:10086000FE01319684E6DF011D928A95E9F710E0DA
:100870001DC00E949D0B8D3051F0133640F4E1E015
:10088000F0E0EC0FFD1FE10FF11D80831F5F8A3048
:1008900069F4E12FF0E0329781E090E08C0F9D1F2A
:1008A000E80FF91F80818A3009F4115080914301CB
:1008B00080FFDFCF11E0109343010E94E403CE01DB
:1008C00001960E94EE0310933A65CC59DF4FCDBFDD
:1008D000DEBFDF91CF911F910895EF92FF920F93AA
:1008E0001F93CF93DF93CDB7DEB76E97CDBFDEBF3B
:1008F000E8ECF4E640812DEC429F312D1124369531
:100900003695369550E3530F5983330F532F550FB8
:10091000550F350F431B405D4A83AAE3AB834181EA
:10092000429F312D112436953695369550E3530F5D
:100930005C83330F532F550F550F350F431B405D0D
:100940004D83AE833281329F212D11242695269529
:10095000269540E3420F4F83220F422F440F440F4E
:10096000240F321B305D388720E229871A869E01CA
:100970002F5F3F4F2B873C8729E531E62D873E8748
:100980008F87988B8FE591E6898B9A8B6B8B7C8B0D
:100990008AE0E0E0F0E6DE01559601900D928A953E
:1009A000E1F70F2EF5E0EF2EF12CF02D8E010B5E0E
:1009B0001F4F9E01255F3F4F40E050E060E083E025
:1009C0000E94B7096E96CDBFDEBFDF91CF911F9118
:1009D0000F91FF90EF900895CF92DF92FF920F93C7
:1009E0001F93CF93DF93CDB7DEB7C456D109CDBFE8
:1009F000DEBFF82E092F6B010E94E1010E94BF01AA
:100A00000F93FF9281E08F930E94AC0BC6010E946E
:100A1000B703FE01319684E6DF011D928A95E9F75E
:100A20000F900F900F9010E010C00E949D0B8D3022
:100A300061F08A3051F0133640F4E1E0F0E0EC0F61
:100A4000FD1FE10FF11D80831F5F8091430180FF37
:100A5000ECCF81E0809343010E94E403BE016F5F0D
:100A60007F4F8F2D902F0E946D04CC59DF4FCDBF4B
:100A7000DEBFDF91CF911F910F91FF90DF90CF905C
:100A8000089580E197E20E94250480913A658823C9
:100A900011F080E0089581E00895E0E4F9E081E359
:100AA000808384E081830895809344098091430981
:100AB0008823E4F70895CF93C82F892F0E94540507
:100AC0008C2F0E945405CF9108951F93CF93DF93ED
:100AD00094E090936604C0E0D4E010E81E830E9486
:100AE00054051D83DF91CF911F9108951F93CF93DC
:100AF000DF9394E090936504C0E0D4E010E81E8397
:100B00000E9454051D83DF91CF911F910895E0E667
:100B1000F4E088E086832FEF3DEE92E021503040F4
:100B20009040E1F700C0000085832FEF35EA8EE0AA
:100B3000215030408040E1F700C0000008950E943D
:100B4000870581E10E9465052FEF89EC98E021502F
:100B500080409040E1F700C0000081EB0E946505F5
:100B600085E00E9476058CE30E9476058CE30E9466
:100B7000760582EB0E94650585E00E9476058CE390
:100B80000E9476058CE30E94760583EB0E94650542
:100B900085E00E9476058CE30E9476058CE30E9436
:100BA000760585E00E9476058CE30E9476058CE34D
:100BB0000E94760584EB0E94650583E00E9476051D
:100BC00080EC0E94650588E20E94760588E00E941C
:100BD000760584E00E94760581EC0E94650580EC34
:100BE0000E94760582EC0E9465058DE00E947605E4
:100BF00080E00E94760583EC0E9465058DE80E94E6
:100C000076058AE20E94760584EC0E9465058DE8EF
:100C10000E9476058EEE0E94760585EC0E946505A1
:100C20008AE10E94760586E30E94650580EC0E94B9
:100C300076058AE30E94650585E00E94760580EED0
:100C40000E94650584E00E94760582E20E94760596
:100C500087E00E9476058AE00E9476058EE20E9477
:100C6000760580E30E94760585E20E9476058AE299
:100C70000E94760588E20E94760586E20E9476054B
:100C80008EE20E9476058AE30E94760580E00E944B
:100C9000760581E00E94760583E00E94760583E177
:100CA0000E94760581EE0E94650584E00E9476052B
:100CB00086E10E94760586E00E9476058DE00E941E
:100CC00076058DE20E94760586E20E94760583E233
:100CD0000E94760587E20E94760587E20E947605EB
:100CE00085E20E9476058DE20E9476058BE30E94E4
:100CF000760580E00E94760581E00E94760584E01A
:100D00000E94760583E10E94760589E20E946505CE
:100D10002FEF86E791E0215080409040E1F700C03E
:100D200000000895CF92DF92EF92FF920F931F93EE
:100D3000CF93DF93D82EC92E162F072FF42EE52E32
:100D4000C22FD32F8AE20E9465058C2D0E94760562
:100D50008D2D0E9476058E2D0E9476058F2D0E9486
:100D600076058BE20E946505802F0E947605812F13
:100D70000E9476058D2F0E9476058C2F0E947605A5
:100D80008CE20E946505DF91CF911F910F91FF903A
:100D9000EF90DF90CF900895CF92DF92EF92FF9285
:100DA000CF93DF93EC012FE930E04FE750E060E0B4
:100DB00070E080E090E00E94920684E080936504F9
:100DC00080E880930604C12CD12C760108C0CE01A6
:100DD0000E945B058FEFC81AD80AE80AF80AC11406
:100DE00080E5D806E104F10490F380E880930504DF
:100DF000DF91CF91FF90EF90DF90CF900895EF9229
:100E0000FF921F93CF93DF938038910598F4603A57
:100E1000710580F47A019B01AC010E94920684E086
:100E200080936504C0E0D4E010E81E83C7010E94EF
:100E30005B051D83DF91CF911F91FF90EF90089587
:100E40008F929F92AF92BF92CF92DF92EF92FF92DA
:100E50000F931F93CF93DF93882E962E7901042F43
:100E600010E0CC24DD24C01AD10A560129C0CC9F41
:100E7000C001CD9F900D900D1124AA9C9001AB9CB8
:100E8000300D300D1124820F931F009F9001019FA0
:100E9000300D300D1124281739074CF0A701B5018A
:100EA000690D711DCE01880D911D0E94FF062196CE
:100EB00001C0E6010C171D07D4F68FEFA81AB80A77
:100EC0000A151B05B4F7DF91CF911F910F91FF9089
:100ED000EF90DF90CF90BF90AF909F908F9008954C
:100EE0005F926F927F928F929F92AF92BF92CF92BA
:100EF000DF92EF92FF920F931F93CF93DF935C01EA
:100F00004B01E22E532E80EE840F803608F04FE323
:100F100050E0405251093A01660C771C660C771C70
:100F2000460D571DCA018A599E493C01C12CD12C3E
:100F30001EC0F301EC0DFD1DF080C0E0D0E011C03B
:100F4000F0FE03C04E2D552D02C0402F512FBE0183
:100F5000680D791DC6018A0D9B1D0E94FF06F6943F
:100F60002196C730D10564F39FEFC91AD90A85E0ED
:100F7000C816D104F4F2DF91CF911F910F91FF9029
:100F8000EF90DF90CF90BF90AF909F908F907F9029
:100F90006F905F900895AC0190E001C09F5FFA01EF
:100FA000E90FF11D20812111F9CF892F880F980FAA
:100FB000292F220F613019F0623069F00FC080E8EC
:100FC00090E0AC01421B5109CA0199230CF401962F
:100FD00095958795089580E8821B089580E008958F
:100FE0002F923F924F925F926F927F928F929F9239
:100FF000AF92BF92CF92DF92EF92FF920F931F9327
:10100000CF93DF93CDB7DEB76C97CDBFDEBF898FAF
:101010006C8F1A012F8B388F3801F8010190002056
:10102000E9F73197CF01801B910B8A8F9B8FA12C01
:10103000B12C73C08A8C9B8C8A189B0896E1891608
:10104000910428F00F2EF5E18F2E912CF02D80E0E9
:1010500090E009C0F501E80FF91FE60DF71D2081AA
:101060002A3029F0019688159905A0F301C04C019A
:10107000A401B3016A0D7B1DCE0101960E941013DD
:10108000E1E0F0E0EC0FFD1FE80DF91D10826C8D22
:10109000CE0101960E94CB07C82ED12C898D482EF7
:1010A000512C440C551C440C551C440C551CE12C73
:1010B000F12C14C0E1E0F0E0EC0FFD1FEE0DFF1D80
:1010C0000F89188D91014081B201C6010E947007FD
:1010D00096E0C90ED11C8FEFE81AF80ADE011196CE
:1010E000FD0101900020E9F73197EA1BFB0BEE169A
:1010F000FF0600F3A80CB91C8A8D9B8DA816B906B3
:1011000048F4F301EA0DFB1D80818A3019F49FEF4A
:10111000A91AB90A898D8F5F898F8A8D9B8DA81630
:10112000B90620F4998D943108F484CF6C96CDBF24
:10113000DEBFDF91CF911F910F91FF90EF90DF9075
:10114000CF90BF90AF909F908F907F906F905F9067
:101150004F903F902F9008950F931F93CF93DF935D
:10116000CDB7DEB7C45AD140CDBFDEBF9E012D54EE
:101170003E4FCF54DE4F48815981C15BD14064EA74
:1011800071E0CE0101960E9466138E010F5F1F4F22
:10119000C155DE4F28813981CF5AD140C355DE4F2A
:1011A00048815981CD5AD140C455DE4F6881CC5A0F
:1011B000D140C555DE4F8881CB5AD1400E94F007FF
:1011C000CC55DE4FCDBFDEBFDF91CF911F910F9188
:1011D00008952F923F924F925F926F927F928F92DB
:1011E0009F92AF92BF92CF92DF92EF92FF920F93B6
:1011F0001F93CF93DF93CDB7DEB76697CDBFDEBF2A
:10120000682E7B01242E312C6EC0732C760C770C4B
:10121000770C770C22E4329EC00111249C01245CDF
:101220003A49490180E090E0A12CB12C15C0FC01A5
:10123000EE0FFF1FE80FF91FE80DF91D2081222393
:1012400071F0E1E0F0E0EC0FFD1FE80FF91F2083E3
:101250003FEFA31AB30A01968531910540F3E1E00F
:10126000F0E0EC0FFD1FEA0DFB1D1082622DCE0198
:1012700001960E94CB07482E512CC12CD12C12C0B4
:10128000A701B601670D711DC8010E94FF060F5F1F
:101290001F4F02C000E010E0003811058CF38FEF03
:1012A000C81AD80A28E0C216D104A4F3C12CD12C44
:1012B00016C0F601EE0FFF1FEC0DFD1DE80DF91D28
:1012C00021813281672D70E087014081C2010E9437
:1012D000700736E0430E511C8FEFC81AD80ACA14A3
:1012E000DB0438F33394A0903B653A1408F48DCFB7
:1012F0001FC0BA2CB60CBB0CBB0CBB0CC12CD12C28
:1013000012C0A701B6016B0D711DC8010E94FF0636
:101310000F5F1F4F02C000E010E0003811058CF392
:101320002FEFC21AD20A38E0C316D104A4F3A39453
:101330002A2D30E084E190E08619910928173907B9
:10134000C4F26696CDBFDEBFDF91CF911F910F91A2
:10135000FF90EF90DF90CF90BF90AF909F908F90D5
:101360007F906F905F904F903F902F9008953F92A5
:101370004F925F926F928F929F92AF92CF92DF9235
:10138000EF92FF920F931F93CF93DF93CDB7DEB70A
:10139000C654D109CDBFDEBF682E362E27964EAF7C
:1013A0005FAF279725962EAF3FAF259748012701BE
:1013B00084E1A82EA618FE01319682E4DF011D9279
:1013C0008A95E9F7C12CD12C80E090E092C0A6016B
:1013D000440F551F2596EEADFFAD2597E40FF51F81
:1013E00000811181F401E40FF51FE080F18060E0DD
:1013F00070E076C02A3021F08531910508F45CC098
:10140000AC01440F551F840F951FE1E0F0E0EC0F95
:10141000FD1FE80FF91F108290913B659A15D8F4D3
:1014200030C0482F50E032E4349FF001359FF00D7A
:101430001124E45CFA4941505109349FD001359F91
:10144000B00D1124A45CBA4942E401900D924A9572
:10145000E1F78F5F01C081E0891718F3892F90E0D1
:10146000019742E4489FD001499FB00D1124A45C2C
:10147000BA4982E4FE01319601900D928A95E1F716
:1014800010C042E4949FD0011124A45CBA4982E4C4
:10149000FE01319601900D928A95E1F79F5F90933E
:1014A0003B65FE01319682E4DF011D928A95E9F7E2
:1014B0002A3091F080E090E0FC01EE0FFF1FE80F72
:1014C000F91F41E050E04C0F5D1FE40FF51F208332
:1014D000E182F282019602C080E090E06F5F7F4F70
:1014E000F801E60FF71F2081211184CF5FEFC51AA5
:1014F000D50AC414D50408F46ACF009709F450C083
:10150000FC01EE0FFF1F8E0F9F1FE1E0F0E0EC0FDC
:10151000FD1FE80FF91F108240913B654A15D0F47A
:101520002FC0822F90E032E4389FF001399FF00DF8
:101530001124E45CFA490197389FD001399FB00D1E
:101540001124A45CBA4982E401900D928A95E1F7D6
:101550002F5F01C021E0241720F3842F90E0019732
:1015600022E4289FD001299FB00D1124A45CBA4920
:1015700082E4FE01319601900D928A95E1F710C048
:1015800082E4489FD0011124A45CBA4982E4FE01A0
:10159000319601900D928A95E1F74F5F40933B653C
:1015A000432D27966EAD7FAD2797862D0E94E908C3
:1015B000CA5BDF4FCDBFDEBFDF91CF911F910F918F
:1015C000FF90EF90DF90CF90AF909F908F906F90B3
:1015D0005F904F903F9008959091E205987F882307
:1015E00011F023E001C022E0922B9093E2058823C2
:1015F00019F023E836E002C028E833E12093080818
:101600003093090891E0811101C090E0E0E0F8E03A
:10161000958382EC868383E087830895FF920F93FE
:101620001F93CF93DF9380E8809304086894FF248E
:10163000F6F80DE013E0D0E0C0E0B0E0F0E0E0E06C
:101640001BC02F2D302F412F5D2F6C2F7B2F8F2F05
:101650009E2FAFEF0E940112F22E032F142FD52FD1
:10166000C62FB72FF82FE92FA0E00E940D1221F40A
:1016700081E08093CF6404C08091040888230CF734
:1016800080910008DF91CF911F910F91FF900895F5
:101690009091040895FFFCCF8093020808950F9362
:1016A0001F93CF93DF938C01C0E0D0E007C0F80117
:1016B000EC0FFD1F80810E94480B2196F8010190DC
:1016C0000020E9F73197E01BF10BCE17DF0778F325
:1016D000DF91CF911F910F910895E0E2F8E083E848
:1016E00096E08087918782EC868383E087830895E4
:1016F0009091240895FFFCCF8093220808950F93C2
:101700001F93CF93DF938C01C0E0D0E007C0F801B6
:10171000EC0FFD1F80810E94780B2196F80101904B
:101720000020E9F73197E01BF10BCE17DF0778F3C4
:10173000DF91CF911F910F91089580E88093240845
:1017400004C08091430180FD04C080912408882357
:10175000C4F78091200808951F93CF93DF93CDB7EE
:10176000DEB7C058D109CDBFDEBFCA57DF4F1881E1
:10177000C658D0409E0127573F4FC957DF4F488179
:101780005981C758D04060E870E0CE0101960E94B0
:101790006613111105C0CE0101960E944F0B06C0C1
:1017A000113021F4CE0101960E947F0BC058DF4F0B
:1017B000CDBFDEBFDF91CF911F9108955058BB2759
:1017C000AA270E94F60B0C942E0D0E94F50C38F0FF
:1017D0000E94FC0C20F039F49F3F19F426F40C947D
:1017E000F20C0EF4E095E7FB0C94EC0CE92F0E9450
:1017F000530D58F3BA17620773078407950720F053
:1018000079F4A6F50C94750D0EF4E0950B2EBA2F15
:10181000A02D0B01B90190010C01CA01A0011124F6
:10182000FF27591B99F0593F50F4503E68F11A16A2
:10183000F040A22F232F342F4427585FF3CF469533
:1018400037952795A795F0405395C9F77EF41F1655
:10185000BA0B620B730B840BBAF09150A1F0FF0F1F
:10186000BB1F661F771F881FC2F70EC0BA0F621F0B
:10187000731F841F48F4879577956795B795F795FB
:101880009E3F08F0B0CF9395880F08F09927EE0F90
:101890009795879508950E94C80C08F481E00895F3
:1018A0000E94050DE3950C943F0D0E945C0C68941A
:1018B000B1110C94760D08950E945B0D88F09F572E
:1018C00098F0B92F9927B751B0F0E1F0660F771F64
:1018D000881F991F1AF0BA95C9F714C0B13091F05A
:1018E0000E94750DB1E008950C94750D672F782F47
:1018F0008827B85F39F0B93FCCF38695779567951F
:10190000B395D9F73EF490958095709561957F4F8A
:101910008F4F9F4F0895E89409C097FB3EF4909530
:101920008095709561957F4F8F4F9F4F9923A9F0B8
:10193000F92F96E9BB279395F69587957795679547
:10194000B795F111F8CFFAF4BB0F11F460FF1BC08B
:101950006F5F7F4F8F4F9F4F16C0882311F096E91E
:1019600011C0772321F09EE8872F762F05C06623CC
:1019700071F096E8862F70E060E02AF09A95660F85
:10198000771F881FDAF7880F9695879597F908953E
:10199000990F0008550FAA0BE0E8FEEF1616170680
:1019A000E807F907C0F012161306E407F50798F0E8
:1019B000621B730B840B950B39F40A2661F0232B01
:1019C000242B252B21F408950A2609F4A140A6957D
:1019D0008FEF811D811D089597F99F6780E870E062
:1019E00060E008959FEF80EC089500240A94161695
:1019F000170618060906089500240A9412161306FD
:101A00001406050608950C94F20C0E945B0DD8F3A1
:101A1000E894E0E0BB279F57F0F02AED3FE049EC67
:101A200006C0EE0FBB0F661F771F881F28F0B23A63
:101A300062077307840728F0B25A620B730B840B9A
:101A4000E3959A9572F7803830F49A95BB0F661F2C
:101A5000771F881FD2F790480C94F80D092E039435
:101A6000000C11F4882352F0BB0F40F4BF2B11F48B
:101A700060FF04C06F5F7F4F8F4F9F4F0895EF93BC
:101A8000E0FF07C0A2EA2AED3FE049EC5FEB0E94CD
:101A9000F60B0E942E0D0F90039401FC9058E0E984
:101AA000F0E00C94040E57FD9058440F551F59F068
:101AB0005F3F71F04795880F97FB991F61F09F3F3B
:101AC00079F087950895121613061406551FF2CF64
:101AD0004695F1DF08C0161617061806991FF1CFB4
:101AE00086957105610508940895E894BB276627DB
:101AF0007727CB0197F908950E94C80C08F48FEF5F
:101B000008950E94940D0C942E0D0E94F50C38F04F
:101B10000E94FC0C20F0952311F00C94EC0C0C941A
:101B2000F20C11240C94760D0E94530D70F3959FC6
:101B3000C1F3950F50E0551F629FF001729FBB27C4
:101B4000F00DB11D639FAA27F00DB11DAA1F649F60
:101B50006627B00DA11D661F829F2227B00DA11D13
:101B6000621F739FB00DA11D621F839FA00D611D99
:101B7000221F749F3327A00D611D231F849F600DBA
:101B8000211D822F762F6A2F11249F5750409AF0E3
:101B9000F1F088234AF0EE0FFF1FBB1F661F771F6F
:101BA000881F91505040A9F79E3F510580F00C943A
:101BB000EC0C0C94760D5F3FE4F3983ED4F38695DD
:101BC00077956795B795F795E7959F5FC1F7FE2BDA
:101BD000880F911D9695879597F908959F930E9478
:101BE000050D0F9007FCEE5F0C943F0D9F3F31F009
:101BF000915020F4879577956795B795880F911D3B
:101C00009695879597F908959F938F937F936F93F8
:101C1000FF93EF939B01AC010E94810DEF91FF9127
:101C20000E94180E2F913F914F915F910C94810D5E
:101C3000DF93CF931F930F93FF92EF92DF927B017D
:101C40008C01689406C0DA2EEF010E94940DFE010B
:101C5000E894A5912591359145915591A6F3EF0111
:101C60000E94F60BFE019701A801DA9469F7DF9054
:101C7000EF90FF900F911F91CF91DF910895A0E118
:101C8000B0E0E5E4FEE00C94D0117C011B016A0198
:101C9000FC0116821782838181FF44C39E012F5F5E
:101CA0003F4F3901F7019381F10193FD859193FF36
:101CB00081911F01882309F431C3853239F493FDE2
:101CC000859193FF81911F01853239F4B70190E02E
:101CD0000E942A1356016501E5CF10E0512C912C8A
:101CE000FFE1F915D8F08B3279F038F4803279F0D1
:101CF0008332A1F4F92DF0612EC08D3261F0803372
:101D000069F4292D21602DC0392D3260932E892D43
:101D10008460982E2AC0E92DE86015C097FC2DC07C
:101D200020ED280F2A3088F496FE06C03AE0139F73
:101D3000200D1124122F19C08AE0589E200D112465
:101D4000522EE92DE0629E2E10C08E3231F496FCA8
:101D5000E5C2F92DF0649F2E08C08C3621F4292DA0
:101D60002068922E02C0883641F4F10193FD8591DE
:101D700093FF81911F018111B3CF9BEB980F93309B
:101D800020F4992D9061805E07C09BE9980F9330F5
:101D900008F066C1992D9F7E96FF16E09F73992EDD
:101DA000853619F49064992E08C0863621F4392FAF
:101DB0003068932E02C01111115097FE07C01C33DA
:101DC00050F444244394410E27E00BC0183038F0FF
:101DD00027E017E005C027E09CE3492E02C0212F31
:101DE000412C560184E0A80EB11CF601608171817E
:101DF00082819381042DA3010E942D126C01F9812F
:101E0000FC87F0FF02C0F3FF06C091FC06C092FE03
:101E100006C000E205C00DE203C00BE201C000E015
:101E20008C858C7019F001115AC29BC297FE10C0AC
:101E30004C0CFC85F4FF04C08A81813309F44A9478
:101E4000141474F528E0241578F588E0482E2CC089
:101E500096FC2AC0812F90E08C159D059CF03CEFEC
:101E6000C3163FEFD30674F0892D8068982E0AC000
:101E7000E2E0F0E0EC0FFD1FE10FF11D8081803307
:101E800019F411501111F4CF97FE0EC0442443945D
:101E9000410E812F90E0C816D9062CF41C1904C0FD
:101EA0004424439401C010E097FE06C01C141D0496
:101EB00034F4C601019605C085E090E002C081E0DF
:101EC00090E001110196112331F0212F30E02F5FB6
:101ED0003F4F820F931F252D30E08217930714F494
:101EE000581A01C0512C892D897049F4552039F0B8
:101EF000B70180E290E00E942A135A94F7CF0023A2
:101F000029F0B701802F90E00E942A1393FC09C0AA
:101F1000552039F0B70180E390E00E942A135A94CB
:101F2000F7CF97FE4CC04601D7FE02C0812C912C02
:101F3000C60188199909F301E80FF91FED87FE879B
:101F40009601241931092F87388B012F10E0119544
:101F5000019511093FEF8316930629F4B7018EE22C
:101F600090E00E942A13C814D9044CF08F859889F8
:101F70008815990524F4ED85FE85818101C080E3F3
:101F8000F1E08F1A91082D853E852F5F3F4F2D87F9
:101F90003E87801691062CF0B70190E00E942A132C
:101FA000D9CFC814D90441F49A81963320F49533DB
:101FB00019F43C8534FF81E3B70190E04EC08A817B
:101FC000813319F09C859F7E9C87B70190E00E9429
:101FD0002A13111105C094FC18C085E690E017C0C3
:101FE000B7018EE290E00E942A131E5F82E001E0BA
:101FF000080FF301E80FF11D8081B70190E00E9406
:102000002A13802F0113F3CFE6CF85E490E0B701C8
:102010000E942A13D7FC06C0C114D10441F4EC85F8
:10202000E4FF05C0D194C194D1088DE201C08BE2D8
:10203000B70190E00E942A1380E32AE0C216D1047F
:102040002CF08F5FFAE0CF1AD108F7CFB70190E0FC
:102050000E942A13B701C601C0960E942A1354C1D8
:10206000833631F0833779F0833509F056C020C0CC
:10207000560132E0A30EB11CF6018081898301E094
:1020800010E0630112C05601F2E0AF0EB11CF60180
:10209000C080D18096FE03C0612F70E002C06FEF58
:1020A0007FEFC6010E941F138C01F92DFF7714C02A
:1020B000560122E0A20EB11CF601C080D18096FE2E
:1020C00003C0612F70E002C06FEF7FEFC6010E9476
:1020D00005138C01F92DF0689F2EF3FD1AC0852D94
:1020E00090E008171907A8F4B70180E290E00E9479
:1020F0002A135A94F4CFF60197FC859197FE8191AB
:102100006F01B70190E00E942A1351105A940150B8
:1021100011090115110579F7F7C0843611F08936D8
:1021200061F5560197FE09C024E0A20EB11CF6012C
:1021300060817181828193810AC0F2E0AF0EB11C8F
:10214000F60160817181072E000C880B990BF92D27
:10215000FF769F2E97FF09C09095809570956195A9
:102160007F4F8F4F9F4FF0689F2E2AE030E0A301F2
:102170000E949213C82EC6183FC0092D853721F43E
:102180000F7E2AE030E01DC0097F8F3691F018F4F1
:10219000883559F0C3C0803719F0883711F0BEC0B8
:1021A000006104FF09C0046007C094FE08C0066017
:1021B00006C028E030E005C020E130E002C020E1A8
:1021C00032E0560107FF09C084E0A80EB11CF601F9
:1021D000608171818281938108C0F2E0AF0EB11CF1
:1021E000F6016081718180E090E0A3010E9492136A
:1021F000C82EC6180F77902E96FE0BC0092D0E7FA5
:10220000C11650F494FE0AC092FC08C0092D0E7E3F
:1022100005C0DC2C092D03C0DC2C01C0D12E04FF2D
:102220000DC0FE01EC0DF11D8081803311F4097E9B
:1022300009C002FF06C0D394D39404C0802F8678CF
:1022400009F0D39403FD11C000FF06C01C2DD51466
:1022500080F4150D1D190DC0D51458F4B70180E296
:1022600090E00E942A13D394F7CFD51410F45D1890
:1022700001C0512C04FF10C0B70180E390E00E9420
:102280002A1302FF17C001FD03C088E790E002C0D7
:1022900088E590E0B7010CC0802F867859F001FFE7
:1022A00002C08BE201C080E207FD8DE2B70190E041
:1022B0000E942A13C11638F4B70180E390E00E940F
:1022C0002A131150F7CFCA94F301EC0DF11D808150
:1022D000B70190E00E942A13C110F5CF15C0F4E0B9
:1022E000F51560F584E0581A93FE1FC0011127C050
:1022F0002C8523FF2AC00EEA10E0392D3071932E71
:10230000F8018491811124C0552009F4E4CCB7016F
:1023100080E290E00E942A135A94F6CFF70186815A
:10232000978126C08FEF9FEF23C0B70180E290E036
:102330000E942A135A945110F8CFD8CF512CB701CC
:10234000802F90E00E942A13D3CF02EB10E0D5CF6C
:1023500091108052B70190E00E942A130F5F1F4F27
:10236000CFCF23E0251510F483E0BDCF512CC0CF93
:102370006096E2E10C94E91197FB072E16F40094A5
:1023800007D077FD09D00E94191207FC05D03EF452
:10239000909581959F4F0895709561957F4F089511
:1023A0002F923F924F925F926F927F928F929F9265
:1023B000AF92BF92CF92DF92EF92FF920F931F9353
:1023C000CF93DF93CDB7DEB7CA1BDB0BCDBFDEBF2C
:1023D00009942A88398848885F846E847D848C8437
:1023E0009B84AA84B984C884DF80EE80FD800C8140
:1023F0001B81AA81B981CE0FD11DCDBFDEBFED01FA
:1024000008950024A7FD00942A0F301D401D501D83
:10241000601D701D801D901D08950024A7FD00946F
:102420002A173005400550056005700580059005A8
:102430000895AA1BBB1B51E107C0AA1FBB1FA6170B
:10244000B70710F0A61BB70B881F991F5A95A9F75D
:1024500080959095BC01CD010895283008F027E0C3
:102460003327DA01990F311D87FD916000966105D0
:10247000710539F432602E5F3D9330E32A95E1F720
:1024800008959F3F30F080387105610509F03C5F89
:102490003C5F3D93913008F08068911DDF93CF93AE
:1024A0001F930F93FF92EF92192F987F9695E92F24
:1024B00096959695E90FFF27E05FFE4F9927332702
:1024C000EE24FF24A701E70105900894079428F45F
:1024D000360FE71EF81E491F511D660F771F881F14
:1024E000991F0694A1F70590079428F4E70EF81EAB
:1024F000491F561FC11D770F881F991F661F06941D
:10250000A1F70590079428F4F80E491F561FC71F1E
:10251000D11D880F991F661F771F0694A1F705909C
:10252000079420F4490F561FC71FD81F990F661F25
:10253000771F881F0694A9F784911095177041F0B2
:10254000D695C79557954795F794E7941A95C1F78F
:10255000E6EBF0E0689415901591359165919591B1
:1025600005907FE27395E118F10A430B560BC90BF6
:10257000D009C0F7E10CF11E431F561FC91FD01D23
:102580007EF4703311F48A95E6CFE894015030F070
:10259000080F0AF40027021708F4202F2395022FB2
:1025A0007A3328F079E37D932A95E9F710C07D937B
:1025B0002A9589F6069497956795379517951794F8
:1025C000E118F10A430B560BC90BD00998F023957B
:1025D0007E9173957A3308F070E37C932013B8F7FB
:1025E0007E9170617D9330F0839571E37D9370E30C
:1025F0002A95E1F71124EF90FF900F911F91CF9151
:10260000DF91992787FD90950895FC010590615011
:1026100070400110D8F7809590958E0F9F1F0895F8
:10262000FB01DC014150504048F001900D92002028
:10263000C9F701C01D9241505040E0F70895FC01D8
:102640006150704001900110D8F7809590958E0FE1
:102650009F1F08950F931F93CF93DF93FB01238157
:1026600021FD03C08FEF9FEF2CC022FF16C04681D3
:102670005781248135814217530744F4A081B181E9
:102680009D012F5F3F4F208331838C9326813781BB
:102690002F5F3F4F2683378314C08B01EC01FB0172
:1026A0000084F185E02D0995892BE1F6D801169675
:1026B0008D919C911797019616968D939C931797E1
:1026C000CE01DF91CF911F910F910895AEE0B0E060
:1026D000ECE6F3E10C94DE118C01FA0186E08C83C8
:1026E00009831A8377FF02C060E070E8CB0101978D
:1026F0008D839E83A901BF01CE0101960E943F0EEA
:102700004D815E8157FD0AC02F81388542175307DE
:102710000CF49A01F801E20FF31F10822E96E4E008
:102720000C94F711FA01AA27283051F1203181F1D8
:10273000E8946F936E7F6E5F7F4F8F4F9F4FAF4FC9
:10274000B1E03ED0B4E03CD0670F781F891F9A1FDC
:10275000A11D680F791F8A1F911DA11D6A0F711D90
:10276000811D911DA11D20D009F468943F912AE09C
:10277000269F11243019305D3193DEF6CF01089584
:10278000462F4770405D4193B3E00FD0C9F7F6CFB5
:10279000462F4F70405D4A3318F0495D31FD40527D
:1027A000419302D0A9F7EACFB4E0A6959795879513
:1027B00077956795BA95C9F70097610571050895F2
:1027C0009B01AC010A2E069457954795379527959E
:1027D000BA95C9F7620F731F841F951FA01D089536
:1027E000DC0128ED209334006C930895F894FFCF1A
:1027F000E739A001E007005000F8446174613A2015
:10280000253034752D253032752D25303275002454
:10281000474E524D430053494D20507265706172CE
:1028200065642100436865636B696E672053494D99
:102830002E2E2E00474E5353204C6F636B65642140
:1028400000536561726368696E6720474E53532E6B
:102850002E2E0041540A0041542B53415042523D08
:10286000332C312C22434F4E54595045222C2247B1
:10287000505253220A0041542B53415042523D338F
:102880002C312C2241504E222C22696E7465726EBE
:1028900065742E74656C65322E6C74220A00415486
:1028A0002B53415042523D312C310A0041542B48A8
:1028B000545450494E49540A0041542B48545450E2
:1028C000504152413D22434944222C310A00415497
:1028D0002B48545450504152413D2255524C222CC9
:1028E00022687474703A2F2F796F757275726C2E1E
:1028F000636F6D2F696E6465782E7068703F6461D8
:1029000074613D5B353938383045393531304130C7
:10291000313234304134314231303845443239304B
:10292000343031303846325D220A0041542B48544D
:102930005450414354494F4E3D300A004174736135
:102940006B796D616900257300434D443A20004165
:102950004E53573A2000000000000000005F0000C6
:102960000007000700147F147F14242A7F2A1223F3
:102970001308646236495522500005030000001C0C
:102980002241000041221C0014083E081408083EA1
:1029900008080050300000080808080800606000BF
:1029A0000020100804023E5149453E00427F40008D
:1029B00042615149462141454B311814127F10277D
:1029C000454545393C4A49493001710905033649B5
:1029D000494936064949291E003636000000563658
:1029E000000008142241001414141414004122148D
:1029F000080201510906324979413E7E1111117ECA
:102A00007F494949363E414141227F4141221C7F55
:102A1000494949417F090909013E4149497A7F08ED
:102A200008087F00417F41002040413F017F08149A
:102A300022417F404040407F020C027F7F0408100B
:102A40007F3E4141413E7F090909063E4151215ED9
:102A50007F09192946464949493101017F01013F52
:102A60004040403F1F2040201F3F4038403F6314FC
:102A700008146307087008076151494543007F4106
:102A8000410002040810200041417F0004020102BD
:102A90000440404040400003070000205454547854
:102AA0007F484444383844444420384444487F38BC
:102AB00054545418087E090102081454543C7F08E9
:102AC00004047800447D40002040443D007F1028ED
:102AD000440000417F40007C041804787C08040412
:102AE0007838444444387C14141408081414187CAE
:102AF0007C080404084854545420043F4440203CBB
:102B00004040207C1C2040201C3C4030403C44285D
:102B10001028440C5050503C4464544C4400083637
:102B2000410000007F0000004136080008082A1C10
:102B300008081C2A080806090906007E1111917E62
:102B400000417FC1007E1111917E3E414141227EB4
:102B50001111917E7E1111917E7F4949C9417F49B2
:102B600049C97F3C434243247E4A4B4A4162534A0F
:102B700047427E4A4B4A423E4149497A7F081422E5
:102B80004100417F41007F40404040444B4A4B322E
:102B90007F0408107F7F0408107F3E4141413E3E84
:102BA0004141413E3E4141413E3E4141413E44283A
:102BB0001028443F4040C03F7F40404040444B4A83
:102BC0004B323C4141413C3C4141413C62534A47CC
:102BD0004262534A47423649494936205454D478D0
:102BE00000447DC00020545454783844444420208C
:102BF000545454782054545478385454D418385475
:102C0000555418384546452038545554184465568F
:102C10004D443854555418081454543C7F102844DB
:102C20000000447D400000417F400048555655203B
:102C30007C080404787C0804047838444444383818
:102C400044444438384444443838444444380036D2
:102C5000360000384040A07800417F40004854547E
:102C60005420384242227838424222784465564DF8
:0C2C7000444465564D440005030000007C
:00000001FF
