:100000000C94E4000C9401010C9401010C94010186
:100010000C9401010C9401010C9401010C94010158
:100020000C9401010C9401010C9401010C94010148
:100030000C9401010C9401010C9401010C94010138
:100040000C9401010C9401010C9401010C94010128
:100050000C9401010C9401010C9401010C94010118
:100060000C9401010C9401010C9401010C94010108
:100070000C9401010C9401010C9401010C940101F8
:100080000C9401010C9401010C9401010C940101E8
:100090000E0110010E0151010E0151010E010E0160
:1000A00051010E0151010E0105A84CCDB2D44EB93B
:1000B0003836A9020C50B9918688083CA6AAAA2A0B
:1000C000BE000000803F6E616E00696E66000040F9
:1000D0007A10F35A00A0724E18090010A5D4E80057
:1000E00000E87648170000E40B54020000CA9A3B6F
:1000F000000000E1F50500008096980000004042F5
:100100000F000000A0860100000010270000000082
:10011000E803000000006400000000000A00000086
:1001200000000100000000002C76D888DC674F0832
:1001300023DFC1DFAE59E1B1B796E5E3E453C63A38
:10014000E651997696E8E6C28426EB898C9B62EDAF
:10015000407C6FFCEFBC9C9F40F2BAA56FA5F49069
:10016000055A2AF75C936B6CF9676DC11BFCE0E4E0
:100170000D47FEF520E6B500D0ED902E0300943536
:1001800077050080841E080000204E0A000000C889
:100190000C333333330F986E12831141EF8D2114DA
:1001A000893BE65516CFFEE6DB18D1844B381BF7AA
:1001B0007C1D901DA4BBE424203284725E22810049
:1001C000C9F124ECA1E53D2711241FBECFEFCDBF1F
:1001D000DFE7DEBF14E6A0E0B0E6ECE1FDE202C03E
:1001E00005900D92A83AB107D9F729E6A8EAB4E636
:1001F00001C01D92AA3BB207E1F70E94AA040C9429
:100200008C160C94000090E0FC013197EC30F10565
:1002100008F047C0E85BFF4F0C9411148FE108957C
:10022000462F50E04053584FCA0183709927892BBD
:1002300071F59A013695279536952795ABE7B4E188
:100240000E9417149695879564E6689F9001699FB0
:10025000300D112442175307E1F49A01329522958B
:100260002F7023273F702327AEE3BAE00E941714B4
:1002700020E931E0BC01629FC001639F900D729F35
:10028000900D11244817590731F090E005C090E017
:1002900003C091E001C091E0892F817021F08DE1D0
:1002A00008958EE108958CE108950F931F93CF93E5
:1002B000DF93D82FC62F8DEF860F883008F084C0CB
:1002C0008CEF860F863008F481C0633018F48CE020
:1002D000860F01C0862FC33028F4042F10E001538D
:1002E000184F04C0042F10E00053184FED2FF0E01A
:1002F000282F30E02F5F3F4F4DE0429FC001439FCA
:10030000900D112465E070E00E94FD13AF01460FCF
:10031000571F400F511F9801369527953695279501
:10032000420F531FABE7B4E10E94171496958795CF
:10033000481B590B9801329522952F7023273F7047
:100340002327AEE3BAE00E941714480F591F9A0101
:10035000A3E9B4E20E941714281B390B36952795A0
:10036000820F931F96958795969587959C01220FEE
:10037000331F220F331F220F331FB901681B790B64
:100380009A01261B370BC9019927069607E010E052
:10039000B8010E94FD132FE130E02E1B3F0BA90195
:1003A000480F511DCA01B8010E94FD139FE1981B1F
:1003B000C33029F481E09D1750F080E008C081E04F
:1003C0009D1728F480E003C080E001C081E0DF9148
:1003D000CF911F910F910895CF93DF93FC01EC0112
:1003E00020E030E00FC09C3261F41082D901AA0FE6
:1003F000BB1FA60FB71FCD93DC93EF0121962F5F94
:100400003F4F31969081992319F0241735075CF3FB
:10041000241735076CF4CE17DF0750F4C901880F95
:10042000991FFB01E80FF91FC083D1832F5F3F4F56
:10043000C901DF91CF910895CF93DF93CDB7DEB798
:100440006E97CDBFDEBFBE016F5F7F4F8EE1FB01B8
:1004500011928A95E9F74FE050E088EA94E60E940D
:10046000EC010A970CF47AC0EB81FC81309799F18A
:10047000DF010D900020E9F71197AE1BBF0B169717
:1004800050F1808190E0C097A4EEB4E6880F982FD9
:10049000990F990F890F9181890F80538C938281D5
:1004A00090E0C097880F982F990F990F890F93812B
:1004B000890F805311968C931197848190E0C09797
:1004C000880F982F990F990F890F9581890F805365
:1004D00012968C9305C0E4EEF4E61282118210822B
:1004E000EB89FC893097A9F1DF010D900020E9F735
:1004F0001197AE1BBF0B169761F5808190E0C097F6
:10050000A4EEB4E6880F982F990F990F890F918167
:10051000890F805313968C931397828190E0C09734
:10052000880F982F990F990F890F9381890F805306
:1005300014968C931497848190E0C097880F982F1D
:10054000990F990F890F9581890F805315968C9378
:1005500005C0E4EEF4E61582148213826E96CDBFD8
:10056000DEBFDF91CF910895E4EEF4E6338124817C
:10057000858190E01F923F931F922F938053984F55
:100580009F938F938AE090E69F938F931F921F9281
:100590008FEF8F938F931F921F920E94ED0A8DB75A
:1005A0009EB70E968DBF9EBF0895FF920F931F9327
:1005B000CF93DF93E4EEF4E6F580048113814F2DB1
:1005C000602F812F0E945501811102C0C3E001C03C
:1005D000C4E08091E4640C2E000CDD0BC80FD11D2B
:1005E000C831D105B4F068971F5F1093E7646F2D91
:1005F000802F0E940301811750F5E4EEF4E681E0BC
:1006000083830F5F04830D3010F18483F394F582AC
:100610001EC0DD23E4F468961130B1F4013039F4E2
:10062000E4EEF4E68CE08483FA94F58203C0015092
:100630000093E86404EE14E6F801658184810E9469
:100640000301F801838303C011501093E764C09342
:10065000E464DF91CF911F910F91FF9008950F9364
:100660001F93CF93DF9310E000E0C0E0D0E00E9442
:100670004F0D01111AC0E12FF0E0E15EFF499081BA
:10068000891311C01F5F163091F786E0EFE1F0E6A5
:10069000A8EAB4E601900D928A95E1F710E001E036
:1006A000C6E0D0E0E4CF10E0E2CFCB33D10528F4B0
:1006B000FE01E855FB49808321968A3089F4C230D7
:1006C000D10570F0FE01EA55FB4980818D3041F47F
:1006D000C855DB4918820E941C020E94D50205C041
:1006E000CB33D10520F21092E364DF91CF911F91BB
:1006F0000F9108950E942F038091E664882311F0E2
:1007000080E0089581E0089564E288E690E00E9428
:10071000861660E080E690E00E9486168091650073
:1007200080FDFCCF0895E0EEF5E012821582E0E056
:10073000F4E08CED8183A0E6B4E08CE011968C931C
:10074000119780E911968C93119780E212968C9301
:10075000129788E054968C93549755968C9394E016
:1007600091838283828B838BE0E4F4E091E0918338
:1007700092E09283808B818B08954F925F926F926B
:100780007F928F929F92AF92BF92CF92EF920F93F0
:100790001F93CF93DF934C01C62FD72FC42EB52EB6
:1007A00080E090E00E940D09DF93CF931F921F928B
:1007B00088EF8F931F9281E08F9380E18F930E9447
:1007C000ED0A8DB79EB708968DBF9EBF0F2EFBE03A
:1007D000EF2EF02DF4010995882309F48CC010E068
:1007E00087C0C02FD0E0CE018E0D911D6EE170E06C
:1007F0000E94FD13BC017727072E000C880B990B74
:100800000E94CE0E20E537E746E55EE30E94C20F68
:100810002B013C0120E030E0A9010E948C0E8823CE
:100820000CF44EC022ED33E54BE750E4C301B201B6
:100830000E94BD0F18160CF443C00023A9F02FEF3F
:100840002C9FC0012D9F900D112469E070E00E9443
:10085000FD13FFE16F9FC00111246FEF70E00E9454
:10086000FD13EB01DD2702C0C0E0D0E0C301B201FF
:100870000E94910E20E030E040EF51E40E94C20F50
:1008800020E030E040E852E40E94200E0E94960EE4
:10089000A62EC301B2010E942F1020E030E040EFED
:1008A00051E40E94C20F20E030E04CE852E40E9484
:1008B000200E0E94960E9E0145E08A2D0E9461093D
:1008C0000F5F01C000E00A3008F48BCF8E2D90E05E
:1008D00001966EE170E00E94FD13E82E2FE789EA91
:1008E00093E0215080409040E1F700C000001F5F7E
:1008F0001F3140F36FCF80E090E00E940D09BF925E
:10090000CF921F921F9287E08F9380EE8F9381E0AA
:100910008F9380E18F930E94ED0AEFEFFBE722E9CE
:10092000E150F0402040E1F700C000008DB79EB7D5
:1009300008968DBF9EBFDF91CF911F910F91EF90D1
:10094000CF90BF90AF909F908F907F906F905F906F
:100950004F900895CF93DF93CDB7DEB7A497CDBF67
:10096000DEBF0E9484030E9493030E948E0780E0F2
:100970000E942D0D0E94AE0D0E94E00780E090E0E5
:100980000E940D0984E2E0E3F1E6DE011196019098
:100990000D928A95E1F746E250E664E370E682E85C
:1009A00097E00E94BD0344E450E661E570E68AE703
:1009B00093E00E94BD0383E690E69F938F931F927E
:1009C00014E61F930E94190782E890E69F938F9385
:1009D00081E08F938CE28F930E9419078AEA90E658
:1009E0009F938F9385E08F938CED8F930E941907CF
:1009F00088EB90E69F938F931F9284EB8F930E94D6
:100A0000190785EC90E69F938F931F921F930E9486
:100A10001907CDBFDEBF0E94C80588E08F9395E51A
:100A20009F9393E09F9399EE9F9392E09F9398E713
:100A30009F938F9384E38F9381E08F939FEE9F9397
:100A40001F929AE09F931F929F931F9296E09F930D
:100A50001F929DE09F9395E19F9399EF9F9394E060
:100A60009F939EEC9F939CE59F9396EC9F939E0192
:100A70002F5F3F4F3F932F932AED30E63F932F9305
:100A80008F9384EF8F930E9419078FE191E69F93D4
:100A90008F9387E28F9380E18F930E9419073FEF36
:100AA00083EB94EC24E03150804090402040D9F713
:100AB00000C00000CDBFDEBFAECF1F93CF93DF934A
:100AC000BC01909141019111FCCFC0E4D1E011E053
:100AD0001F8380E090E00E94CC0E2FE632E143E8D5
:100AE0005FE30E94C20F0E949D0E80E090E00E9492
:100AF000CC0E20E030E040E05FE30E94200E0E9438
:100B00009D0E6A877B87188619861883DF91CF919F
:100B10001F910895E0E4F1E080818E7F80838091D1
:100B200041018111FCCF089564E571E60E949E1594
:100B3000FC01359601C0319680818032E1F3CF010E
:100B40000E948314833631F0282F220F330B215754
:100B5000310902C029E13CEF3F932F93282F082E43
:100B6000000C330B3F938F938AE591E69F938F930D
:100B70001F921F921F928FE18F931F9281E08F939C
:100B80000E94ED0A8DB79EB70C968DBF9EBF08954B
:100B90001F93CF93DF93CDB7DEB7C456D109CDBF36
:100BA000DEBF8BE691E69F938F9381E08F930E9447
:100BB000ED0D84E690E00E945D05FE01319684E62D
:100BC000DF011D928A95E9F70F900F900F9010E0CA
:100BD0001DC00E94DE0D8D3051F0133640F4E1E06F
:100BE000F0E0EC0FFD1FE10FF11D80831F5F8A30E5
:100BF00069F4E12FF0E0329781E090E08C0F9D1FC7
:100C0000E80FF91F80818A3009F411508091430167
:100C100080FFDFCF81E0809343010E948A05CE01EF
:100C200001960E949405CC59DF4FCDBFDEBFDF9106
:100C3000CF911F910895EF92FF920F931F93CF933F
:100C4000DF93CDB7DEB72697CDBFDEBF89839A830A
:100C500080EA91E08B839C8380EE97E08D839E8376
:100C6000EE24E394F12C8E010D5F1F4F9E012F5F48
:100C70003F4F40E050E061E086E00E94F80B2FEF2C
:100C80008BE792E9215080409040E1F700C00000DE
:100C90002696CDBFDEBFDF91CF911F910F91FF90C0
:100CA000EF9008951F93CF93DF93CDB7DEB7C4566F
:100CB000D109CDBFDEBF0E945D05FE01319684E6FD
:100CC000DF011D928A95E9F710E01DC00E94DE0D3C
:100CD0008D3051F0133640F4E1E0F0E0EC0FFD1FF1
:100CE000E10FF11D80831F5F8A3069F4E12FF0E08E
:100CF000329781E090E08C0F9D1FE80FF91F8081F3
:100D00008A3009F411508091430180FFDFCF11E058
:100D1000109343010E948A05CE0101960E941B0692
:100D200010935665CC59DF4FCDBFDEBFDF91CF9119
:100D30001F910895EF92FF920F931F93CF93DF932C
:100D4000CDB7DEB76E97CDBFDEBFE4EEF4E64081EF
:100D50002DEC429F312D112436953695369550E372
:100D6000530F5983330F532F550F550F350F431B17
:100D7000405D4A83AAE3AB834181429F312D112418
:100D800036953695369550E3530F5C83330F532FCA
:100D9000550F550F350F431B405D4D83AE83328198
:100DA000329F212D112426952695269540E3420F4A
:100DB0004F83220F422F440F440F240F321B305D0C
:100DC000388720E229871A869E012F5F3F4F2B87A5
:100DD0003C8723E731E62D873E878F87988B89E70D
:100DE00091E6898B9A8B6B8B7C8B8AE0E0E0F0E656
:100DF000DE01559601900D928A95E1F70F2EF5E0F0
:100E0000EF2EF12CF02D8E010B5E1F4F9E01255F02
:100E10003F4F40E050E060E083E00E94F80B6E96A8
:100E2000CDBFDEBFDF91CF911F910F91FF90EF906B
:100E300008950F931F93CF93DF93CDB7DEB7C45EB2
:100E4000D109CDBFDEBF9E0121513F4FC351DF4FBE
:100E500048815981CD5ED04060E870E08E010F5F1F
:100E60001F4FC8010E94FC150E942F030E94B4026C
:100E70001F930F9380E891E69F938F9381E08F9368
:100E80000E94ED0DC551DF4F88819981CB5ED04026
:100E90000E945D05FE01EF57FF4F84E6DF011D92C2
:100EA0008A95E9F70F900F900F900F900F9010E038
:100EB00010C00E94DE0D8D3061F08A3051F0133683
:100EC00040F4E1E8F0E0EC0FFD1FE10FF11D80833D
:100ED0001F5F8091430180FFECCF81E0809343014D
:100EE0000E948A05BE016F577F4FCE0101960E9476
:100EF0009A06CC51DF4FCDBFDEBFDF91CF911F915E
:100F00000F91089580E197E20E9452068091566504
:100F1000882311F080E0089581E00895E0E4F9E08D
:100F200081E3808384E081830895809344098091E4
:100F300043098823E4F70895CF93C82F892F0E948F
:100F400095078C2F0E949507CF9108951F93CF93FB
:100F5000DF9394E090936604C0E0D4E010E81E8331
:100F60000E9495071D83DF91CF911F9108951F93D4
:100F7000CF93DF9394E090936504C0E0D4E010E851
:100F80001E830E9495071D83DF91CF911F910895C5
:100F9000E0E6F4E088E086832FEF3DEE92E021501A
:100FA00030409040E1F700C0000085832FEF35EA24
:100FB0008EE0215030408040E1F700C000000895ED
:100FC0000E94C80781E10E94A6072FEF89EC98E0F4
:100FD000215080409040E1F700C0000081EB0E946A
:100FE000A60785E00E94B7078CE30E94B7078CE351
:100FF0000E94B70782EB0E94A60785E00E94B70710
:101000008CE30E94B7078CE30E94B70783EB0E9432
:10101000A60785E00E94B7078CE30E94B7078CE320
:101020000E94B70785E00E94B7078CE30E94B707CC
:101030008CE30E94B70784EB0E94A60783E00E941E
:10104000B70780EC0E94A60788E20E94B70788E0F5
:101050000E94B70784E00E94B70781EC0E94A607B0
:1010600080EC0E94B70782EC0E94A6078DE00E94E8
:10107000B70780E00E94B70783EC0E94A6078DE8BF
:101080000E94B7078AE20E94B70784EC0E94A60775
:101090008DE80E94B7078EEE0E94B70785EC0E948C
:1010A000A6078AE10E94B70786E30E94A60780ECA4
:1010B0000E94B7078AE30E94A60785E00E94B7074F
:1010C00080EE0E94A60784E00E94B70782E20E9499
:1010D000B70787E00E94B7078AE00E94B7078EE251
:1010E0000E94B70780E30E94B70785E20E94B70716
:1010F0008AE20E94B70788E20E94B70786E20E9450
:10110000B7078EE20E94B7078AE30E94B70780E024
:101110000E94B70781E00E94B70783E00E94B707EB
:1011200083E10E94B70781EE0E94A60784E00E9437
:10113000B70786E10E94B70786E00E94B7078DE0F7
:101140000E94B7078DE20E94B70786E20E94B707A8
:1011500083E20E94B70787E20E94B70787E20E94F6
:10116000B70785E20E94B7078DE20E94B7078BE3BD
:101170000E94B70780E00E94B70781E00E94B7078E
:1011800084E00E94B70783E10E94B70789E20E94CA
:10119000A6072FEF86E791E0215080409040E1F7CD
:1011A00000C000000895CF92DF92EF92FF920F935C
:1011B0001F93CF93DF93D82EC92E162F072FF42E0F
:1011C000E52EC22FD32F8AE20E94A6078C2D0E9403
:1011D000B7078D2D0E94B7078E2D0E94B7078F2D60
:1011E0000E94B7078BE20E94A607802F0E94B707D4
:1011F000812F0E94B7078D2F0E94B7078C2F0E9466
:10120000B7078CE20E94A607DF91CF911F910F9143
:10121000FF90EF90DF90CF900895CF92DF92EF9202
:10122000FF92CF93DF93EC012FE930E04FE750E0DE
:1012300060E070E080E090E00E94D30884E080935A
:10124000650480E880930604C12CD12C760108C087
:10125000CE010E949C078FEFC81AD80AE80AF80A44
:10126000C11480E5D806E104F10490F380E880938E
:101270000504DF91CF91FF90EF90DF90CF9008951C
:10128000EF92FF921F93CF93DF938038910598F4EC
:10129000603A710580F47A019B01AC010E94D30889
:1012A00084E080936504C0E0D4E010E81E83C701A9
:1012B0000E949C071D83DF91CF911F91FF90EF90BB
:1012C00008958F929F92AF92BF92CF92DF92EF924A
:1012D000FF920F931F93CF93DF93882E962E790161
:1012E000042F10E0CC24DD24C01AD10A560129C0F5
:1012F000CC9FC001CD9F900D900D1124AA9C900110
:10130000AB9C300D300D1124820F931F009F900174
:10131000019F300D300D1124281739074CF0A7011B
:10132000B501690D711DCE01880D911D0E94400906
:10133000219601C0E6010C171D07D4F68FEFA81AFD
:10134000B80A0A151B05B4F7DF91CF911F910F91D1
:10135000FF90EF90DF90CF90BF90AF909F908F90D5
:1013600008955F926F927F928F929F92AF92BF92F9
:10137000CF92DF92EF92FF920F931F93CF93DF9361
:101380005C014B01E22E532E80EE840F803608F074
:101390004FE350E0405251093A01660C771C660C4D
:1013A000771C460D571DCA018D579E493C01C12C23
:1013B000D12C1EC0F301EC0DFD1DF080C0E0D0E08B
:1013C00011C0F0FE03C04E2D552D02C0402F512FED
:1013D000BE01680D791DC6018A0D9B1D0E94400942
:1013E000F6942196C730D10564F39FEFC91AD90A44
:1013F00085E0C816D104F4F2DF91CF911F910F91CF
:10140000FF90EF90DF90CF90BF90AF909F908F9024
:101410007F906F905F900895AC0190E001C09F5F56
:10142000FA01E90FF11D20812111F9CF892F880FD1
:10143000980F292F220F613019F0623069F00FC028
:1014400080E890E0AC01421B5109CA0199230CF4D9
:10145000019695958795089580E8821B089580E010
:1014600008952F923F924F925F926F927F928F9248
:101470009F92AF92BF92CF92DF92EF92FF920F9323
:101480001F93CF93DF93CDB7DEB76C97CDBFDEBF91
:10149000898F6C8F1A012F8B388F3801F8010190DA
:1014A0000020E9F73197CF01801B910B8A8F9B8F2A
:1014B000A12CB12C73C08A8C9B8C8A189B0896E156
:1014C0008916910428F00F2EF5E18F2E912CF02D26
:1014D00080E090E009C0F501E80FF91FE60DF71D67
:1014E00020812A3029F0019688159905A0F301C0C2
:1014F0004C01A401B3016A0D7B1DCE0101960E942F
:101500008415E1E0F0E0EC0FFD1FE80DF91D1082FD
:101510006C8DCE0101960E940C0AC82ED12C898DAB
:10152000482E512C440C551C440C551C440C551C85
:10153000E12CF12C14C0E1E0F0E0EC0FFD1FEE0D0A
:10154000FF1D0F89188D91014081B201C6010E94D3
:10155000B10996E0C90ED11C8FEFE81AF80ADE0136
:101560001196FD0101900020E9F73197EA1BFB0B72
:10157000EE16FF0600F3A80CB91C8A8D9B8DA816E9
:10158000B90648F4F301EA0DFB1D80818A3019F495
:101590009FEFA91AB90A898D8F5F898F8A8D9B8DDC
:1015A000A816B90620F4998D943108F484CF6C966E
:1015B000CDBFDEBFDF91CF911F910F91FF90EF90D4
:1015C000DF90CF90BF90AF909F908F907F906F9063
:1015D0005F904F903F902F9008950F931F93CF935C
:1015E000DF93CDB7DEB7C45AD140CDBFDEBF9E0179
:1015F0002D543E4FCF54DE4F48815981C15BD140BD
:1016000064EA71E0CE0101960E94FC158E010F5F25
:101610001F4FC155DE4F28813981CF5AD140C35564
:10162000DE4F48815981CD5AD140C455DE4F688183
:10163000CC5AD140C555DE4F8881CB5AD1400E944B
:10164000310ACC55DE4FCDBFDEBFDF91CF911F9168
:101650000F9108952F923F924F925F926F927F92D7
:101660008F929F92AF92BF92CF92DF92EF92FF92B2
:101670000F931F93CF93DF93CDB7DEB76697CDBFA0
:10168000DEBF682E7B01242E312C6EC0732C760CAD
:10169000770C770C770C22E4329EC00111249C0158
:1016A000285A3A49490180E090E0A12CB12C15C09C
:1016B000FC01EE0FFF1FE80FF91FE80DF91D208157
:1016C000222371F0E1E0F0E0EC0FFD1FE80FF91FBD
:1016D00020833FEFA31AB30A01968531910540F3A9
:1016E000E1E0F0E0EC0FFD1FEA0DFB1D1082622D22
:1016F000CE0101960E940C0A482E512CC12CD12CEF
:1017000012C0A701B601670D711DC8010E944009F2
:101710000F5F1F4F02C000E010E0003811058CF38E
:101720008FEFC81AD80A28E0C216D104A4F3C12C3E
:10173000D12C16C0F601EE0FFF1FEC0DFD1DE80DBC
:10174000F91D21813281672D70E087014081C2013E
:101750000E94B10936E0430E511C8FEFC81AD80A17
:10176000CA14DB0438F33394A09057653A1408F494
:101770008DCF1FC0BA2CB60CBB0CBB0CBB0CC12C44
:10178000D12C12C0A701B6016B0D711DC8010E94BA
:1017900040090F5F1F4F02C000E010E00038110544
:1017A0008CF32FEFC21AD20A38E0C316D104A4F387
:1017B000A3942A2D30E084E190E08619910928173E
:1017C0003907C4F26696CDBFDEBFDF91CF911F917E
:1017D0000F91FF90EF90DF90CF90BF90AF909F90D0
:1017E0008F907F906F905F904F903F902F900895D3
:1017F0003F924F925F926F928F929F92AF92CF9251
:10180000DF92EF92FF920F931F93CF93DF93CDB7A9
:10181000DEB7C654D109CDBFDEBF682E362E27965F
:101820004EAF5FAF279725962EAF3FAF2597480164
:10183000270184E1A82EA618FE01319682E4DF017B
:101840001D928A95E9F7C12CD12C80E090E092C0DE
:10185000A601440F551F2596EEADFFAD2597E40F69
:10186000F51F00811181F401E40FF51FE080F18084
:1018700060E070E076C02A3021F08531910508F4EF
:101880005CC0AC01440F551F840F951FE1E0F0E0F0
:10189000EC0FFD1FE80FF91F1082909157659A1504
:1018A000D8F430C0482F50E032E4349FF001359F27
:1018B000F00D1124E85AFA4941505109349FD001E2
:1018C000359FB00D1124A85ABA4942E401900D92F7
:1018D0004A95E1F78F5F01C081E0891718F3892FDE
:1018E00090E0019742E4489FD001499FB00D112438
:1018F000A85ABA4982E4FE01319601900D928A9568
:10190000E1F710C042E4949FD0011124A85ABA49CB
:1019100082E4FE01319601900D928A95E1F79F5F76
:1019200090935765FE01319682E4DF011D928A95FE
:10193000E9F72A3091F080E090E0FC01EE0FFF1F04
:10194000E80FF91F41E050E04C0F5D1FE40FF51F59
:101950002083E182F282019602C080E090E06F5F16
:101960007F4FF801E60FF71F2081211184CF5FEF31
:10197000C51AD50AC414D50408F46ACF009709F42F
:1019800050C0FC01EE0FFF1F8E0F9F1FE1E0F0E043
:10199000EC0FFD1FE80FF91F1082409157654A15A3
:1019A000D0F42FC0822F90E032E4389FF001399FAD
:1019B000F00D1124E85AFA490197389FD001399F58
:1019C000B00D1124A85ABA4982E401900D928A956B
:1019D000E1F72F5F01C021E0241720F3842F90E06E
:1019E000019722E4289FD001299FB00D1124A85A05
:1019F000BA4982E4FE01319601900D928A95E1F791
:101A000010C082E4489FD0011124A85ABA4982E448
:101A1000FE01319601900D928A95E1F74F5F409358
:101A20005765432D27966EAD7FAD2797862D0E9473
:101A30002A0BCA5BDF4FCDBFDEBFDF91CF911F9175
:101A40000F91FF90EF90DF90CF90AF909F908F908D
:101A50006F905F904F903F9008959091E205987F2E
:101A6000882311F023E001C022E0922B9093E2053D
:101A7000882319F023E836E002C028E833E12093F8
:101A800008083093090891E0811101C090E0E0E07E
:101A9000F8E0958382EC868383E087830895FF9244
:101AA0000F931F93CF93DF9380E88093040868948B
:101AB000FF24F6F80DE013E0D0E0C0E0B0E0F0E085
:101AC000E0E01BC02F2D302F412F5D2F6C2F7B2F7F
:101AD0008F2F9E2FAFEF0E945714F22E032F142F3B
:101AE000D52FC62FB72FF82FE92FA0E00E9463143F
:101AF00021F481E08093EB6404C080910408882382
:101B00000CF780910008DF91CF911F910F91FF900A
:101B100008959091040895FFFCCF809302080895E2
:101B20000F931F93CF93DF938C01C0E0D0E007C0E9
:101B3000F801EC0FFD1F80810E94890D2196F801AC
:101B400001900020E9F73197E01BF10BCE17DF077A
:101B500078F3DF91CF911F910F910895E0E2F8E0C3
:101B600083E896E08087918782EC868383E0878391
:101B700008959091240895FFFCCF80932208089542
:101B80000F931F93CF93DF938C01C0E0D0E007C089
:101B9000F801EC0FFD1F80810E94B90D2196F8011C
:101BA00001900020E9F73197E01BF10BCE17DF071A
:101BB00078F3DF91CF911F910F91089580E8809382
:101BC000240804C08091430180FD04C08091240852
:101BD0008823C4F78091200808951F93CF93DF9343
:101BE000CDB7DEB7C058D109CDBFDEBFCA57DF4F72
:101BF0001881C658D0409E0127573F4FC957DF4F25
:101C000048815981C758D04060E870E0CE01019604
:101C10000E94FC15111105C0CE0101960E94900D85
:101C200006C0113021F4CE0101960E94C00DC058AB
:101C3000DF4FCDBFDEBFDF91CF911F910895505888
:101C4000BB27AA270E94370E0C946F0F0E94360FF5
:101C500038F00E943D0F20F039F49F3F19F426F42C
:101C60000C94330F0EF4E095E7FB0C942D0FE92F45
:101C70000E94940F58F3BA176207730784079507F9
:101C800020F079F4A6F50C94B60F0EF4E0950B2E27
:101C9000BA2FA02D0B01B90190010C01CA01A001BE
:101CA0001124FF27591B99F0593F50F4503E68F119
:101CB0001A16F040A22F232F342F4427585FF3CF5A
:101CC000469537952795A795F0405395C9F77EF42B
:101CD0001F16BA0B620B730B840BBAF09150A1F074
:101CE000FF0FBB1F661F771F881FC2F70EC0BA0FFA
:101CF000621F731F841F48F4879577956795B79582
:101D0000F7959E3F08F0B0CF9395880F08F099277C
:101D1000EE0F9795879508950E94090F08F481E0CA
:101D200008950E94460FE3950C94800F0E949D0E2B
:101D30006894B1110C94B70F08950E949C0F88F01D
:101D40009F5798F0B92F9927B751B0F0E1F0660F7F
:101D5000771F881F991F1AF0BA95C9F714C0B130C0
:101D600091F00E94B60FB1E008950C94B60F672F62
:101D7000782F8827B85F39F0B93FCCF386957795EF
:101D80006795B395D9F73EF49095809570956195D8
:101D90007F4F8F4F9F4F0895E89409C097FB3EF403
:101DA00090958095709561957F4F8F4F9F4F9923A8
:101DB000A9F0F92F96E9BB279395F6958795779526
:101DC0006795B795F111F8CFFAF4BB0F11F460FFE6
:101DD0001BC06F5F7F4F8F4F9F4F16C0882311F03E
:101DE00096E911C0772321F09EE8872F762F05C052
:101DF000662371F096E8862F70E060E02AF09A95ED
:101E0000660F771F881FDAF7880F9695879597F9E1
:101E10000895990F0008550FAA0BE0E8FEEF16167B
:101E20001706E807F907C0F012161306E407F507CE
:101E300098F0621B730B840B950B39F40A2661F042
:101E4000232B242B252B21F408950A2609F4A140E5
:101E5000A6958FEF811D811D089597F99F6780E8F2
:101E600070E060E008959FEF80EC089500240A94EC
:101E70001616170618060906089500240A94121665
:101E800013061406050608950C94330F0E949C0F48
:101E9000D8F3E894E0E0BB279F57F0F02AED3FE04D
:101EA00049EC06C0EE0FBB0F661F771F881F28F096
:101EB000B23A62077307840728F0B25A620B730BB9
:101EC000840BE3959A9572F7803830F49A95BB0F9E
:101ED000661F771F881FD2F790480C943910092E7F
:101EE0000394000C11F4882352F0BB0F40F4BF2B75
:101EF00011F460FF04C06F5F7F4F8F4F9F4F0895B5
:101F0000EF93E0FF07C0A2EA2AED3FE049EC5FEB68
:101F10000E94370E0E946F0F0F90039401FC90589F
:101F2000E8EAF0E00C94451057FD9058440F551F17
:101F300059F05F3F71F04795880F97FB991F61F04B
:101F40009F3F79F087950895121613061406551FC2
:101F5000F2CF4695F1DF08C0161617061806991F2E
:101F6000F1CF86957105610508940895E894BB2723
:101F700066277727CB0197F908950E94090F08F487
:101F80008FEF08950E94D50F0C946F0F0E94360FAB
:101F900038F00E943D0F20F0952311F00C942D0F86
:101FA0000C94330F11240C94B70F0E94940F70F30C
:101FB000959FC1F3950F50E0551F629FF001729FEE
:101FC000BB27F00DB11D639FAA27F00DB11DAA1FFD
:101FD000649F6627B00DA11D661F829F2227B00D4A
:101FE000A11D621F739FB00DA11D621F839FA00DD5
:101FF000611D221F749F3327A00D611D231F849F25
:10200000600D211D822F762F6A2F11249F5750407B
:102010009AF0F1F088234AF0EE0FFF1FBB1F661FF6
:10202000771F881F91505040A9F79E3F510580F0BF
:102030000C942D0F0C94B70F5F3FE4F3983ED4F34C
:10204000869577956795B795F795E7959F5FC1F763
:10205000FE2B880F911D9695879597F908959F936C
:102060000E94460F0F9007FCEE5F0C94800F9F3F7D
:1020700031F0915020F4879577956795B795880F43
:10208000911D9695879597F908959F938F937F93C8
:102090006F93FF93EF939B01AC010E94C20FEF91EE
:1020A000FF910E9459102F913F914F915F910C9495
:1020B000C20FDF93CF931F930F93FF92EF92DF92A4
:1020C0007B018C01689406C0DA2EEF010E94D50FC7
:1020D000FE01E894A5912591359145915591A6F37E
:1020E000EF010E94370EFE019701A801DA9469F70B
:1020F000DF90EF90FF900F911F91CF91DF910895A6
:10210000A0E1B0E0E6E8F0E10C9426147C011B01AC
:102110006A01FC0116821782838181FF44C39E01FC
:102120002F5F3F4F3901F7019381F10193FD8591B5
:1021300093FF81911F01882309F431C3853239F45B
:1021400093FD859193FF81911F01853239F4B70189
:1021500090E00E94C01556016501E5CF10E0512CBA
:10216000912CFFE1F915D8F08B3279F038F48032F8
:1021700079F08332A1F4F92DF0612EC08D3261F037
:10218000803369F4292D21602DC0392D3260932EC2
:10219000892D8460982E2AC0E92DE86015C097FC2F
:1021A0002DC020ED280F2A3088F496FE06C03AE0B4
:1021B000139F200D1124122F19C08AE0589E200D64
:1021C0001124522EE92DE0629E2E10C08E3231F481
:1021D00096FCE5C2F92DF0649F2E08C08C3621F4E0
:1021E000292D2068922E02C0883641F4F10193FD1A
:1021F000859193FF81911F018111B3CF9BEB980FC4
:10220000933020F4992D9061805E07C09BE9980F70
:10221000933008F066C1992D9F7E96FF16E09F735C
:10222000992E853619F49064992E08C0863621F4CB
:10223000392F3068932E02C01111115097FE07C03C
:102240001C3350F444244394410E27E00BC0183053
:1022500038F027E017E005C027E09CE3492E02C0D4
:10226000212F412C560184E0A80EB11CF60160819B
:10227000718182819381042DA3010E94A1146C01BC
:10228000F981FC87F0FF02C0F3FF06C091FC06C095
:1022900092FE06C000E205C00DE203C00BE201C0E1
:1022A00000E08C858C7019F001115AC29BC297FE18
:1022B00010C04C0CFC85F4FF04C08A81813309F402
:1022C0004A94141474F528E0241578F588E0482E13
:1022D0002CC096FC2AC0812F90E08C159D059CF0A7
:1022E0003CEFC3163FEFD30674F0892D8068982E1B
:1022F0000AC0E2E0F0E0EC0FFD1FE10FF11D80816C
:10230000803319F411501111F4CF97FE0EC04424FC
:102310004394410E812F90E0C816D9062CF41C1965
:1023200004C04424439401C010E097FE06C01C146E
:102330001D0434F4C601019605C085E090E002C09A
:1023400081E090E001110196112331F0212F30E05E
:102350002F5F3F4F820F931F252D30E08217930789
:1023600014F4581A01C0512C892D897049F4552054
:1023700039F0B70180E290E00E94C0155A94F7CF7F
:10238000002329F0B701802F90E00E94C01593FC34
:1023900009C0552039F0B70180E390E00E94C015D4
:1023A0005A94F7CF97FE4CC04601D7FE02C0812C4D
:1023B000912CC60188199909F301E80FF91FED87DF
:1023C000FE879601241931092F87388B012F10E0E1
:1023D0001195019511093FEF8316930629F4B70172
:1023E0008EE290E00E94C015C814D9044CF08F858D
:1023F00098898815990524F4ED85FE85818101C0B1
:1024000080E3F1E08F1A91082D853E852F5F3F4FC5
:102410002D873E87801691062CF0B70190E00E9430
:10242000C015D9CFC814D90441F49A81963320F449
:10243000953319F43C8534FF81E3B70190E04EC039
:102440008A81813319F09C859F7E9C87B70190E03B
:102450000E94C015111105C094FC18C085E690E0DB
:1024600017C0B7018EE290E00E94C0151E5F82E0A7
:1024700001E0080FF301E80FF11D8081B70190E042
:102480000E94C015802F0113F3CFE6CF85E490E0C2
:10249000B7010E94C015D7FC06C0C114D10441F495
:1024A000EC85E4FF05C0D194C194D1088DE201C050
:1024B0008BE2B70190E00E94C01580E32AE0C216CB
:1024C000D1042CF08F5FFAE0CF1AD108F7CFB70113
:1024D00090E00E94C015B701C601C0960E94C015C9
:1024E00054C1833631F0833779F0833509F056C013
:1024F00020C0560132E0A30EB11CF6018081898311
:1025000001E010E0630112C05601F2E0AF0EB11C11
:10251000F601C080D18096FE03C0612F70E002C03A
:102520006FEF7FEFC6010E9493158C01F92DFF77A5
:1025300014C0560122E0A20EB11CF601C080D18069
:1025400096FE03C0612F70E002C06FEF7FEFC601FF
:102550000E9479158C01F92DF0689F2EF3FD1AC0A9
:10256000852D90E008171907A8F4B70180E290E0E4
:102570000E94C0155A94F4CFF60197FC859197FEFE
:1025800081916F01B70190E00E94C01551105A94DB
:10259000015011090115110579F7F7C0843611F0C2
:1025A000893661F5560197FE09C024E0A20EB11CE0
:1025B000F60160817181828193810AC0F2E0AF0EE1
:1025C000B11CF60160817181072E000C880B990BFC
:1025D000F92DFF769F2E97FF09C0909580957095F5
:1025E00061957F4F8F4F9F4FF0689F2E2AE030E01C
:1025F000A3010E942816C82EC6183FC0092D853792
:1026000021F40F7E2AE030E01DC0097F8F3691F063
:1026100018F4883559F0C3C0803719F0883711F0A5
:10262000BEC0006104FF09C0046007C094FE08C07A
:10263000066006C028E030E005C020E130E002C0BE
:1026400020E132E0560107FF09C084E0A80EB11C6A
:10265000F601608171818281938108C0F2E0AF0E42
:10266000B11CF6016081718180E090E0A3010E94BD
:102670002816C82EC6180F77902E96FE0BC0092D6F
:102680000E7FC11650F494FE0AC092FC08C0092DBA
:102690000E7E05C0DC2C092D03C0DC2C01C0D12E20
:1026A00004FF0DC0FE01EC0DF11D8081803311F49B
:1026B000097E09C002FF06C0D394D39404C0802FC2
:1026C000867809F0D39403FD11C000FF06C01C2DCD
:1026D000D51480F4150D1D190DC0D51458F4B7018B
:1026E00080E290E00E94C015D394F7CFD51410F487
:1026F0005D1801C0512C04FF10C0B70180E390E0C9
:102700000E94C01502FF17C001FD03C088E790E0DA
:1027100002C088E590E0B7010CC0802F867859F0A0
:1027200001FF02C08BE201C080E207FD8DE2B7012C
:1027300090E00E94C015C11638F4B70180E390E024
:102740000E94C0151150F7CFCA94F301EC0DF11D92
:102750008081B70190E00E94C015C110F5CF15C06F
:10276000F4E0F51560F584E0581A93FE1FC00111DE
:1027700027C02C8523FF2AC006EC10E0392D3071CC
:10278000932EF8018491811124C0552009F4E4CCE2
:10279000B70180E290E00E94C0155A94F6CFF7018D
:1027A0008681978126C08FEF9FEF23C0B70180E21B
:1027B00090E00E94C0155A945110F8CFD8CF512CF8
:1027C000B701802F90E00E94C015D3CF0AEC10E033
:1027D000D5CF91108052B70190E00E94C0150F5FD5
:1027E0001F4FCFCF23E0251510F483E0BDCF512C30
:1027F000C0CF6096E2E10C943F1497FB072E16F4CD
:10280000009407D077FD09D00E946F1407FC05D013
:102810003EF4909581959F4F0895709561957F4FF7
:102820000895EE0FFF1F0590F491E02D0994A29FEB
:10283000B001B39FC001A39F700D811D1124911D94
:10284000B29F700D811D1124911D08952F923F920A
:102850004F925F926F927F928F929F92AF92BF92B0
:10286000CF92DF92EF92FF920F931F93CF93DF935C
:10287000CDB7DEB7CA1BDB0BCDBFDEBF09942A88FC
:10288000398848885F846E847D848C849B84AA8484
:10289000B984C884DF80EE80FD800C811B81AA8111
:1028A000B981CE0FD11DCDBFDEBFED01089500244B
:1028B000A7FD00942A0F301D401D501D601D701D86
:1028C000801D901D08950024A7FD00942A1730054F
:1028D0004005500560057005800590050895AA1B08
:1028E000BB1B51E107C0AA1FBB1FA617B70710F0FB
:1028F000A61BB70B881F991F5A95A9F7809590952D
:10290000BC01CD010895FC0188279927E894219105
:102910002032E9F3293010F02E30C8F32B3241F089
:102920002D3239F4689404C00E94B815820F911DAD
:10293000219120532A30C0F31EF4909581959F4F2A
:102940000895283008F027E03327DA01990F311D68
:1029500087FD916000966105710539F432602E5F44
:102960003D9330E32A95E1F708959F3F30F080389A
:102970007105610509F03C5F3C5F3D93913008F0C3
:102980008068911DDF93CF931F930F93FF92EF9277
:10299000192F987F9695E92F96959695E90FFF2721
:1029A000E85DFE4F99273327EE24FF24A701E701B6
:1029B00005900894079428F4360FE71EF81E491F67
:1029C000511D660F771F881F991F0694A1F7059068
:1029D000079428F4E70EF81E491F561FC11D770FF4
:1029E000881F991F661F0694A1F70590079428F485
:1029F000F80E491F561FC71FD11D880F991F661F4C
:102A0000771F0694A1F70590079420F4490F561FED
:102A1000C71FD81F990F661F771F881F0694A9F735
:102A200084911095177041F0D695C79557954795A5
:102A3000F794E7941A95C1F7EEECF0E068941590DE
:102A4000159135916591959105907FE27395E11807
:102A5000F10A430B560BC90BD009C0F7E10CF11E6C
:102A6000431F561FC91FD01D7EF4703311F48A9581
:102A7000E6CFE894015030F0080F0AF4002702175F
:102A800008F4202F2395022F7A3328F079E37D93E1
:102A90002A95E9F710C07D932A9589F606949795B3
:102AA0006795379517951794E118F10A430B560B64
:102AB000C90BD00998F023957E9173957A3308F06D
:102AC00070E37C932013B8F77E9170617D9330F0B2
:102AD000839571E37D9370E32A95E1F71124EF90DC
:102AE000FF900F911F91CF91DF91992787FD9095CE
:102AF0000895FC010590615070400110D8F7809551
:102B000090958E0F9F1F0895FB01DC0141505040AE
:102B100048F001900D920020C9F701C01D9241506C
:102B20005040E0F70895FC016150704001900110A1
:102B3000D8F7809590958E0F9F1F0895FB015191B6
:102B40005523A9F0BF01DC014D9145174111E1F773
:102B500059F4CD010190002049F04D9140154111EB
:102B6000C9F3FB014111EFCF81E090E00197089597
:102B70007AE0979F902D879F802D910D11240895C5
:102B80000F931F93CF93DF93FB01238121FD03C09C
:102B90008FEF9FEF2CC022FF16C046815781248102
:102BA00035814217530744F4A081B1819D012F5F05
:102BB0003F4F208331838C93268137812F5F3F4F96
:102BC0002683378314C08B01EC01FB010084F1855F
:102BD000E02D0995892BE1F6D80116968D919C91EF
:102BE0001797019616968D939C931797CE01DF91B8
:102BF000CF911F910F910895AEE0B0E0E2E0F6E1D1
:102C00000C9434148C01FA0186E08C8309831A83B6
:102C100077FF02C060E070E8CB0101978D839E834F
:102C2000A901BF01CE0101960E9480104D815E81F5
:102C300057FD0AC02F813885421753070CF49A01BB
:102C4000F801E20FF31F10822E96E4E00C944D146D
:102C5000FA01AA27283051F1203181F1E8946F93CD
:102C60006E7F6E5F7F4F8F4F9F4FAF4FB1E03ED073
:102C7000B4E03CD0670F781F891F9A1FA11D680F11
:102C8000791F8A1F911DA11D6A0F711D811D911D44
:102C9000A11D20D009F468943F912AE0269F1124B9
:102CA0003019305D3193DEF6CF010895462F47701D
:102CB000405D4193B3E00FD0C9F7F6CF462F4F7078
:102CC000405D4A3318F0495D31FD4052419302D0D6
:102CD000A9F7EACFB4E0A69597958795779567957C
:102CE000BA95C9F700976105710508959B01AC017C
:102CF0000A2E06945795479537952795BA95C9F7A3
:102D0000620F731F841F951FA01D0895DC0128ED1D
:0C2D1000209334006C930895F894FFCFDA
:102D1C00E739A001E007005000F8446174613A20E3
:102D2C00253034752D253032752D25303275002423
:102D3C00474E524D430053494D205072657061729D
:102D4C0065642100436865636B696E672053494D68
:102D5C002E2E2E00474E5353204C6F636B6564210F
:102D6C0000536561726368696E6720474E53532E3A
:102D7C002E2E0041542B53415042523D332C312CBA
:102D8C0022434F4E54595045222C22475052532225
:102D9C000A0041542B53415042523D332C312C22CA
:102DAC0041504E222C22696E7465726E65742E74BD
:102DBC00656C65322E6C74220A0041542B534150C1
:102DCC0042523D312C310A0041542B485454504945
:102DDC004E49540A0041542B4854545050415241CE
:102DEC003D22434944222C310A0041542B4854546F
:102DFC0050504152413D2255524C222C22257325D4
:102E0C0030347825303478253034782530327825B4
:102E1C00782530327825782530337825303478256C
:102E2C0030337825303378253034785D220A0041F0
:102E3C00542B48545450414354494F4E3D300A0092
:102E4C00687474703A2F2F796F757275726C2E636B
:102E5C006F6D2F696E6465782E7068703F64617455
:102E6C00613D5B002B4353513A00727373693A20F6
:102E7C0025642064626D3A2025640041542B435331
:102E8C00510A00434D443A2000414E53573A20001A
:102E9C00257300000000000000005F000000070028
:102EAC000700147F147F14242A7F2A12231308642A
:102EBC006236495522500005030000001C224100D7
:102ECC000041221C0014083E081408083E080800A3
:102EDC00503000000808080808006060000020104E
:102EEC000804023E5149453E00427F400042615178
:102EFC0049462141454B311814127F102745454551
:102F0C00393C4A494930017109050336494949366A
:102F1C00064949291E0036360000005636000008C6
:102F2C001422410014141414140041221408020138
:102F3C00510906324979413E7E1111117E7F494972
:102F4C0049363E414141227F4141221C7F4949493A
:102F5C00417F090909013E4149497A7F0808087FE8
:102F6C0000417F41002040413F017F081422417FF6
:102F7C00404040407F020C027F7F0408107F3E419E
:102F8C0041413E7F090909063E4151215E7F0919E5
:102F9C002946464949493101017F01013F404040E2
:102FAC003F1F2040201F3F4038403F6314081463EC
:102FBC0007087008076151494543007F41410002F1
:102FCC00040810200041417F00040201020440402B
:102FDC00404040000307000020545454787F48447C
:102FEC0044383844444420384444487F385454547A
:102FFC0018087E090102081454543C7F0804047814
:10300C0000447D40002040443D007F1028440000D7
:10301C00417F40007C041804787C08040478384410
:10302C004444387C14141408081414187C7C0804C8
:10303C0004084854545420043F4440203C40402051
:10304C007C1C2040201C3C4030403C442810284430
:10305C000C5050503C4464544C4400083641000021
:10306C00007F0000004136080008082A1C08081CD4
:10307C002A080806090906007E1111917E00417F7D
:10308C00C1007E1111917E3E414141227E11119170
:10309C007E7E1111917E7F4949C9417F4949C97F83
:1030AC003C434243247E4A4B4A4162534A47427E48
:1030BC004A4B4A423E4149497A7F08142241004119
:1030CC007F41007F40404040444B4A4B327F0408D4
:1030DC00107F7F0408107F3E4141413E3E414141FB
:1030EC003E3E4141413E3E4141413E442810284430
:1030FC003F4040C03F7F40404040444B4A4B323CF5
:10310C004141413C3C4141413C62534A474262533C
:10311C004A47423649494936205454D47800447DB4
:10312C00C0002054545478384444442020545454FF
:10313C00782054545478385454D41838545554185E
:10314C00384546452038545554184465564D443836
:10315C0054555418081454543C7F1028440000440F
:10316C007D400000417F400048555655207C0804A6
:10317C0004787C0804047838444444383844444483
:10318C003838444444383844444438003636000017
:10319C00384040A07800417F4000485454542038B7
:1031AC004242227838424222784465564D44446566
:0831BC00564D4400050300001C
:00000001FF
