:100000000C9448000C9465000C9465000C946500F9
:100010000C9465000C9465000C9465000C946500CC
:100020000C9465000C9465000C9465000C946500BC
:100030000C9465000C9465000C9465000C946500AC
:100040000C9465000C9465000C9465000C9465009C
:100050000C9465000C9465000C9465000C9465008C
:100060000C9465000C9465000C9465000C9465007C
:100070000C9465000C9465000C9465000C9465006C
:100080000C9465000C9465000C9465000C9465005C
:1000900011241FBECFEFCDBFDFE7DEBF14E6A0E027
:1000A000B0E6E8EBF2E102C005900D92AC34B10786
:1000B000D9F724E6ACE4B4E601C01D92A03AB20739
:1000C000E1F70E94EC010C945A090C940000CF93C4
:1000D000DF93FC01EC0120E030E00FC09C3261F4C2
:1000E0001082D901AA0FBB1FA60FB71FCD93DC93B7
:1000F000EF0121962F5F3F4F31969081992319F0A0
:10010000241735075CF3241735076CF4CE17DF0787
:1001100050F4C901880F991FFB01E80FF91FC08334
:10012000D1832F5F3F4FC901DF91CF9108950F9386
:100130001F93CF93DF93CDB7DEB7CA55D109CDBF9B
:10014000DEBF8B0160E070E60E941C06009709F498
:100150006DC04BE350E0BC01CE0101960E940D063C
:100160001CAEBE01635C7F4F8EE1FB0111928A954C
:10017000E9F74FE050E0CE0101960E9467000A9730
:100180000CF456C02196AEADBFAD2197109799F1F2
:10019000FD0101900020E9F73197EA1BFB0B369730
:1001A00050F115965C91159714964C9114971396EF
:1001B0003C91139712962C91129711969C9111973E
:1001C0008C911F925F931F924F931F923F931F92A8
:1001D0002F931F929F931F928F9387E090E69F9398
:1001E0008F931F928BE08F931F930F930E9436067D
:1001F000CDBFDEBF08C089E0E6E1F0E6D80101909E
:100200000D928A95E1F761966EAD7FAD61976115AC
:10021000710541F049E050E0C8010B960E940D06BF
:1002200081E007C0F801138681E003C080E001C0CF
:1002300080E0C65ADF4FCDBFDEBFDF91CF911F9167
:100240000F9108950F931F93CF93DF93EC0185E1F6
:10025000FE0111928A95E9F760E070E68CE494E67D
:100260000E941C06892B49F0BE018CE494E60E9492
:100270009700882311F081E08C8B00E010E020EEE5
:1002800037E04FE150E660E170E080E090E00E94EE
:10029000E604AE01455F5F4F20EE37E060E170E0BD
:1002A00080E390E00E94E60420EE37E047E250E66B
:1002B00068E170E080E090E00E94E60420EE37E024
:1002C000AE0168E170E080E390E00E94E604DF9117
:1002D000CF911F910F9108950F931F93CF93DF93A9
:1002E00010E000E0C0E0D0E00E94340501111AC027
:1002F000E12FF0E0E35DFF499081891311C01F5F9A
:10030000163091F786E0EDE2F0E6ACE4B4E6019059
:100310000D928A95E1F710E001E0C6E0D0E0E4CF6D
:1003200010E0E2CFCB33D10528F4FE01E45BFB49BA
:10033000808321968A3069F4C230D10550F0FE01E5
:10034000E65BFB4980818D3021F4C45BDB49188278
:1003500005C0CB33D10540F210928764DF91CF9175
:100360001F910F91089564E288E690E00E942309AE
:1003700060E080E690E00E9423098091650080FDA6
:10038000FCCF0895E0EEF5E012821582E0E0F4E0A3
:100390008CED8183A0E6B4E08CE011968C931197EC
:1003A00080E911968C93119780E212968C931297A4
:1003B00088E054968C93549755968C9394E091834F
:1003C0008283828B838BE0E4F4E091E0918392E07E
:1003D0009283808B818B08950E94B3010E94C20199
:1003E0000E94B80280E00E9412050E9493050E94BC
:1003F0000A0380E098EF0E9437042FEF3CE281E38C
:1004000091E02150304080409040D9F700C000007A
:1004100080EE9FEF0E9437042FEF3CE281E391E0F2
:100420002150304080409040D9F700C0000080EE5D
:1004300097E00E9437042FEF3CE281E391E02150E6
:10044000304080409040D9F700C0000080E090E04C
:100450000E94370484E390E69F938F93C1E0CF938B
:100460000E94C3052FEF3BE782E9215030408040D6
:10047000E1F700C0000089E390E69F938F93CF934C
:100480000E94C3059FE729EA33E0915020403040A5
:10049000E1F700C0000089E590E69F938F93CF932A
:1004A0000E94C3058FE799EA23E0815090402040E5
:1004B000E1F700C0000083E890E69F938F93CF930D
:1004C0000E94C3053FE789EA93E0315080409040A5
:1004D000E1F700C0000082E990E69F938F93CF93ED
:1004E0000E94C3052FE739EA83E021503040804065
:1004F000E1F700C0000080EA90E69F938F93CF93CE
:100500000E94C3059FE729EA33E091502040304024
:10051000E1F700C0000086EB90E69F938F93CF93A6
:100520000E94C3058FE799EA23E081509040204064
:10053000E1F700C0000085E191E69F938F93CF9390
:100540000E94C3053FE789EA93E031508040904024
:10055000E1F700C000002DB73EB7285E3F4F2DBF2A
:100560003EBF0E946C0188E894E60E942201F9CF08
:10057000E0E4F9E081E3808384E08183089580935F
:100580004409809143098823E4F70895CF93C82F45
:10059000892F0E94BF028C2F0E94BF02CF91089525
:1005A0001F93CF93DF9394E090936604C0E0D4E070
:1005B00010E81E830E94BF021D83DF91CF911F911F
:1005C00008951F93CF93DF9394E090936504C0E068
:1005D000D4E010E81E830E94BF021D83DF91CF91FB
:1005E0001F910895E0E6F4E088E086832FEF3DEE6A
:1005F00092E0215030409040E1F700C00000858338
:100600002FEF35EA8EE0215030408040E1F700C006
:10061000000008950E94F20281E10E94D0022FEFB3
:1006200089EC98E0215080409040E1F700C0000044
:1006300081EB0E94D00285E00E94E1028CE30E94DF
:10064000E1028CE30E94E10282EB0E94D00285E08D
:100650000E94E1028CE30E94E1028CE30E94E1022D
:1006600083EB0E94D00285E00E94E1028CE30E94AD
:10067000E1028CE30E94E10285E00E94E1028CE34A
:100680000E94E1028CE30E94E10284EB0E94D0020E
:1006900083E00E94E10280EC0E94D00288E20E9486
:1006A000E10288E00E94E10284E00E94E10281EC24
:1006B0000E94D00280EC0E94E10282EC0E94D002F3
:1006C0008DE00E94E10280E00E94E10283EC0E9442
:1006D000D0028DE80E94E1028AE20E94E10284ECED
:1006E0000E94D0028DE80E94E1028EEE0E94E1029B
:1006F00085EC0E94D0028AE10E94E10286E30E941A
:10070000D00280EC0E94E1028AE30E94D00285E0E0
:100710000E94E10280EE0E94D00284E00E94E10289
:1007200082E20E94E10287E00E94E1028AE00E94E8
:10073000E1028EE20E94E10280E30E94E10285E292
:100740000E94E1028AE20E94E10288E20E94E10244
:1007500086E20E94E1028EE20E94E1028AE30E94A8
:10076000E10280E00E94E10281E00E94E10283E078
:100770000E94E10283E10E94E10281EE0E94D00228
:1007800084E00E94E10286E10E94E10286E00E948C
:10079000E1028DE00E94E1028DE20E94E10286E228
:1007A0000E94E10283E20E94E10287E20E94E102EC
:1007B00087E20E94E10285E20E94E1028DE20E944E
:1007C000E1028BE30E94E10280E00E94E10281E00D
:1007D0000E94E10284E00E94E10283E10E94E102C2
:1007E00089E20E94D0022FEF86E791E021508040FD
:1007F0009040E1F700C000000895CF92DF92EF92A1
:10080000FF920F931F93CF93DF93D82EC92E162FED
:10081000072FF42EE52EC22FD32F8AE20E94D0029A
:100820008C2D0E94E1028D2D0E94E1028E2D0E94EE
:10083000E1028F2D0E94E1028BE20E94D002802F04
:100840000E94E102812F0E94E1028D2F0E94E102AD
:100850008C2F0E94E1028CE20E94D002DF91CF91A6
:100860001F910F91FF90EF90DF90CF900895CF925E
:10087000DF92EF92FF92CF93DF93EC012FE930E00C
:100880004FE750E060E070E080E090E00E94FD0300
:1008900084E08093650480E880930604C12CD12C09
:1008A000760108C0CE010E94C6028FEFC81AD80A8E
:1008B000E80AF80AC11480E5D806E104F10490F3CF
:1008C00080E880930504DF91CF91FF90EF90DF9057
:1008D000CF900895EF92FF921F93CF93DF938038CC
:1008E000910598F4603A710580F47A019B01AC019E
:1008F0000E94FD0384E080936504C0E0D4E010E82A
:100900001E83C7010E94C6021D83DF91CF911F91F4
:10091000FF90EF9008955F926F927F928F929F92D7
:10092000AF92BF92CF92DF92EF92FF920F931F93FD
:10093000CF93DF935C014B01E22E532E80EE840FA8
:10094000803608F04FE350E0405251093A01660CFE
:10095000771C660C771C460D571DCA01895D9E49A0
:100960003C01C12CD12C1EC0F301EC0DFD1DF0800B
:10097000C0E0D0E011C0F0FE03C04E2D552D02C0E6
:10098000402F512FBE01680D791DC6018A0D9B1D98
:100990000E946A04F6942196C730D10564F39FEF54
:1009A000C91AD90A85E0C816D104F4F2DF91CF91B3
:1009B0001F910F91FF90EF90DF90CF90BF90AF907D
:1009C0009F908F907F906F905F9008958F929F92ED
:1009D000AF92BF92CF92DF92EF92FF920F931F934D
:1009E000CF93DF937C014B01EA01590168010AC0F2
:1009F000219686019501B401C7010E948B0486E00F
:100A0000E80EF11C48814111F3CFDF91CF911F9186
:100A10000F91FF90EF90DF90CF90BF90AF909F909D
:100A20008F9008959091E205987F882311F023E03C
:100A300001C022E0922B9093E205882319F023E86D
:100A400036E002C028E833E1209308083093090813
:100A500091E0811101C090E0E0E0F8E0958382EC44
:100A6000868383E087830895FF920F931F93CF932C
:100A7000DF9380E8809304086894FF24F6F80DE083
:100A800013E0D0E0C0E0B0E0F0E0E0E01BC02F2DCC
:100A9000302F412F5D2F6C2F7B2F8F2F9E2FAFEF8D
:100AA0000E94F505F22E032F142FD52FC62FB72F36
:100AB000F82FE92FA0E00E94010621F481E0809345
:100AC0009E6404C08091040888230CF7809100087C
:100AD000DF91CF911F910F91FF900895909104089D
:100AE00095FFFCCF8093020808950F931F93CF9337
:100AF000DF938C01C0E0D0E007C0F801EC0FFD1FD0
:100B000080810E946E052196F80101900020E9F78E
:100B10003197E01BF10BCE17DF0778F3DF91CF9110
:100B20001F910F910895E0E2F8E083E896E0808756
:100B3000918782EC868383E08783089590912408CF
:100B400095FFFCCF8093220808950F931F93CF93B6
:100B5000DF938C01C0E0D0E007C0F801EC0FFD1F6F
:100B600080810E949E052196F80101900020E9F7FE
:100B70003197E01BF10BCE17DF0778F3DF91CF91B0
:100B80001F910F9108951F93CF93DF93CDB7DEB7D9
:100B9000C058D109CDBFDEBFCA57DF4F1881C65834
:100BA000D0409E0127573F4FC957DF4F4881598199
:100BB000C758D04060E870E0CE0101960E946606FA
:100BC000111105C0CE0101960E94750506C01130B5
:100BD00021F4CE0101960E94A505C058DF4FCDBF7C
:100BE000DEBFDF91CF911F9108950024A7FD0094EF
:100BF0002A0F301D401D501D601D701D801D901D51
:100C000008950024A7FD00942A17300540055005DB
:100C100060057005800590050895FB01DC014150D9
:100C2000504048F001900D920020C9F701C01D927C
:100C300041505040E0F70895FB0151915523A9F030
:100C4000BF01DC014D9145174111E1F759F4CD0188
:100C50000190002049F04D9140154111C9F3FB016D
:100C60004111EFCF81E090E001970895AEE0B0E050
:100C7000ECE3F6E00C9437090D891E898F89988D75
:100C800026E02C8309831A8397FF02C080E090E856
:100C900001978D839E83AE01455E5F4F698D7A8D8E
:100CA000CE0101960E9492064D815E8157FD0AC0D9
:100CB0002F813885421753070CF49A01F801E20F8F
:100CC000F31F10822E96E4E00C945009AEE0B0E0E1
:100CD000ECE6F6E00C9437098C01FA0186E08C838F
:100CE00009831A8377FF02C060E070E8CB010197A7
:100CF0008D839E83A901BF01CE0101960E949206B9
:100D00004D815E8157FD0AC02F81388542175307F8
:100D10000CF49A01F801E20FF31F10822E96E4E022
:100D20000C945009ABE0B0E0E8E9F6E00C94290936
:100D30006C017B018A01FC0116821782838181FF8D
:100D4000CCC1CE0101963C01F6019381F70193FDE0
:100D5000859193FF81917F01882309F4BAC185327F
:100D600039F493FD859193FF81917F01853229F4B8
:100D7000B60190E00E948908E7CF912C212C312CFC
:100D8000FFE1F315D8F08B3279F038F4803279F046
:100D90008332A1F4232D20611DC08D3261F0803398
:100DA00069F4232D216016C0832D8260382EE32D37
:100DB000E4603E2E2AC0F32DF8601DC037FC2DC024
:100DC00020ED280F2A3040F08E32B9F436FC81C174
:100DD000232D2064322E19C036FE06C08AE0989E6C
:100DE000200D1124922E11C0EAE02E9E200D112418
:100DF000222EF32DF0623F2E08C08C3621F4832D75
:100E00008068382E02C0883641F4F70193FD859141
:100E100093FF81917F018111B3CF982F9F7D9554CE
:100E2000933028F40C5F1F4F9FE399830DC08336E6
:100E300031F0833771F0833509F059C021C0F801D2
:100E4000808189830E5F1F4F88248394912C5301E6
:100E500013C02801F2E04F0E511CF801A080B180B0
:100E600036FE03C0692D70E002C06FEF7FEFC50151
:100E70000E947E084C018201F32DFF773F2E16C0A1
:100E8000280122E0420E511CF801A080B18036FEFC
:100E900003C0692D70E002C06FEF7FEFC5010E94B3
:100EA00073084C01F32DF0683F2E820133FC1BC008
:100EB000822D90E088169906B0F4B60180E290E0A9
:100EC0000E9489082A94F4CFF50137FC859137FEFA
:100ED00081915F01B60190E00E94890821102A9457
:100EE00021E0821A91088114910471F7E8C08436D8
:100EF00011F0893641F5F80137FE07C06081718134
:100F0000828193810C5F1F4F08C060817181072E21
:100F1000000C880B990B0E5F1F4FF32DFF763F2EB1
:100F200097FF09C090958095709561957F4F8F4F81
:100F30009F4FF0683F2E2AE030E0A3010E94C508D1
:100F4000882E861845C0853731F4232D2F7EB22E8A
:100F50002AE030E025C0932D997FB92E8F36C1F05D
:100F600018F4883579F0B5C0803719F0883721F04A
:100F7000B0C0E92FE061BE2EB4FE0DC0FB2DF460C1
:100F8000BF2E09C034FE0AC0292F2660B22E06C02B
:100F900028E030E005C020E130E002C020E132E08E
:100FA000F801B7FE07C060817181828193810C5F77
:100FB0001F4F06C06081718180E090E00E5F1F4F7F
:100FC000A3010E94C508882E8618FB2DFF773F2EAF
:100FD00036FE0DC0232D2E7FA22E891458F434FE28
:100FE0000BC032FC09C0832D8E7EA82E05C0B82C04
:100FF000A32C03C0B82C01C0B92CA4FE0FC0FE0165
:10100000E80DF11D8081803321F49A2D997EA92E5F
:1010100009C0A2FE06C0B394B39404C08A2D86789A
:1010200009F0B394A3FC11C0A0FE06C0B21488F46A
:10103000280C922C9B180EC0B21460F4B60180E20A
:1010400090E00E948908B394F7CFB21418F42B18DB
:1010500002C0982C212CA4FE10C0B60180E390E0C1
:101060000E948908A2FE17C0A1FC03C088E790E097
:1010700002C088E590E0B6010CC08A2D867859F050
:10108000A1FE02C08BE201C080E2A7FC8DE2B601A6
:1010900090E00E948908891438F4B60180E390E05A
:1010A0000E9489089A94F7CF8A94F301E80DF11D04
:1010B0008081B60190E00E9489088110F5CF22203E
:1010C00009F442CEB60180E290E00E9489082A9499
:1010D000F6CFF6018681978102C08FEF9FEF2B96A6
:1010E000E2E10C944209FC0105906150704001104E
:1010F000D8F7809590958E0F9F1F0895FC01615041
:10110000704001900110D8F7809590958E0F9F1F29
:1011100008950F931F93CF93DF93FB01238121FD4C
:1011200003C08FEF9FEF2CC022FF16C0468157816E
:10113000248135814217530744F4A081B1819D0178
:101140002F5F3F4F208331838C93268137812F5F20
:101150003F4F2683378314C08B01EC01FB010084D1
:10116000F185E02D0995892BE1F6D80116968D9130
:101170009C911797019616968D939C931797CE0185
:10118000DF91CF911F910F910895FA01AA2728307E
:1011900051F1203181F1E8946F936E7F6E5F7F4F44
:1011A0008F4F9F4FAF4FB1E03ED0B4E03CD0670FC0
:1011B000781F891F9A1FA11D680F791F8A1F911D13
:1011C000A11D6A0F711D811D911DA11D20D009F463
:1011D00068943F912AE0269F11243019305D3193A5
:1011E000DEF6CF010895462F4770405D4193B3E08E
:1011F0000FD0C9F7F6CF462F4F70405D4A3318F035
:10120000495D31FD4052419302D0A9F7EACFB4E0E5
:10121000A6959795879577956795BA95C9F700979D
:101220006105710508959B01AC010A2E069457953E
:10123000479537952795BA95C9F7620F731F841F95
:10124000951FA01D0895DC0128ED209334006C93B8
:1012500008952F923F924F925F926F927F928F925A
:101260009F92AF92BF92CF92DF92EF92FF920F9335
:101270001F93CF93DF93CDB7DEB7CA1BDB0BCDBF78
:10128000DEBF09942A88398848885F846E847D840B
:101290008C849B84AA84B984C884DF80EE80FD801E
:1012A0000C811B81AA81B981CE0FD11DCDBFDEBFBC
:0812B000ED010895F894FFCF51
:1012B80024474E524D4300256325633A2563256331
:1012C8003A256325630030303A30303A3030006CCC
:1012D80061696B61733A00646174613A0024474E36
:1012E800524D430041540D0A0041542B5341504282
:1012F800523D332C312C22434F4E54595045222C09
:101308002247505253220D0A0041542B4353545440
:101318003D22696E7465726E65742E74656C6532F3
:101328002E6C74222C22776170222C227761702215
:101338000D0A0041542B53415042523D312C310D7E
:101348000A0041542B48545450494E49540D0A0040
:1013580041542B48545450504152413D2243494432
:10136800222C310D0A0041542B48545450504152FC
:10137800413D2255524C222C22687474703A2F2F0A
:10138800796F757275726C2E636F6D2F2F696E642D
:1013980065782E7068703F646174613D5B353938DB
:1013A80038304539353130413031323430413431DB
:1013B80042313038454432393034303130384632B1
:1013C8005D220D0A0041542B48545450414354495E
:1013D8004F4E3D300D0A00000000000000005F0085
:1013E800000007000700147F147F14242A7F2A12A4
:1013F8002313086462364955225000050300000093
:101408001C2241000041221C0014083E0814080850
:101418003E0808005030000008080808080060600E
:10142800000020100804023E5149453E00427F401A
:101438000042615149462141454B311814127F1031
:1014480027454545393C4A49493001710905033664
:1014580049494936064949291E00363600000056D2
:1014680036000008142241001414141414004122F8
:1014780014080201510906324979413E7E111111C1
:101488007E7F494949363E414141227F4141221CE4
:101498007F494949417F090909013E4149497A7F04
:1014A8000808087F00417F41002040413F017F0834
:1014B8001422417F404040407F020C027F7F040895
:1014C800107F3E4141413E7F090909063E415121B5
:1014D8005E7F09192946464949493101017F0101C1
:1014E8003F4040403F1F2040201F3F4038403F635F
:1014F8001408146307087008076151494543007FC1
:1015080041410002040810200041417F000402010B
:101518000204404040404000030700002054545457
:10152800787F484444383844444420384444487F09
:101538003854545418087E090102081454543C7F46
:101548000804047800447D40002040443D007F109A
:1015580028440000417F40007C041804787C08047B
:10156800047838444444387C1414140808141418B3
:101578007C7C080404084854545420043F44402008
:101588003C4040207C1C2040201C3C4030403C44D7
:10159800281028440C5050503C4464544C440008D3
:1015A80036410000007F0000004136080008082A84
:1015B8001C08081C2A080806090906007E11119152
:1015C8007E00417FC1007E1111917E3E4141412242
:1015D8007E1111917E7E1111917E7F4949C9417F0B
:1015E8004949C97F3C434243247E4A4B4A4162539E
:1015F8004A47427E4A4B4A423E4149497A7F08144B
:10160800224100417F41007F40404040444B4A4BCB
:10161800327F0408107F7F0408107F3E4141413E1D
:101628003E4141413E3E4141413E3E4141413E44B1
:10163800281028443F4040C03F7F40404040444B32
:101648004A4B323C4141413C3C4141413C62534A56
:10165800474262534A47423649494936205454D48E
:101668007800447DC00020545454783844444420C1
:1016780020545454782054545478385454D4183836
:10168800545554183845464520385455541844651F
:10169800564D443854555418081454543C7F102857
:1016A800440000447D400000417F400048555655A5
:1016B800207C080404787C080404783844444438BE
:1016C800384444443838444444383844444438005E
:1016D80036360000384040A07800417F400048542A
:1016E800545420384242227838424222784465567F
:0C16F8004D444465564D440005030000BD
:00000001FF
