:100000000C9448000C9465000C9465000C946500F9
:100010000C9465000C9465000C9465000C946500CC
:100020000C9465000C9465000C9465000C946500BC
:100030000C9465000C9465000C9465000C946500AC
:100040000C9465000C9465000C9465000C9465009C
:100050000C9465000C9465000C9465000C9465008C
:100060000C9465000C9465000C9465000C9465007C
:100070000C9465000C9465000C9465000C9465006C
:100080000C9465000C9465000C9465000C9465005C
:1000900011241FBECFEFCDBFDFE7DEBF14E6A0E027
:1000A000B0E6E6E0F3E102C005900D92A835B10795
:1000B000D9F724E6A8E5B4E601C01D92AC3AB20730
:1000C000E1F70E94EC010C9481090C940000CF939D
:1000D000DF93FC01EC0120E030E00FC09C3261F4C2
:1000E0001082D901AA0FBB1FA60FB71FCD93DC93B7
:1000F000EF0121962F5F3F4F31969081992319F0A0
:10010000241735075CF3241735076CF4CE17DF0787
:1001100050F4C901880F991FFB01E80FF91FC08334
:10012000D1832F5F3F4FC901DF91CF9108950F9386
:100130001F93CF93DF93CDB7DEB7CA55D109CDBF9B
:10014000DEBF8B0160E070E60E944306009709F471
:100150006DC04BE350E0BC01CE0101960E94340615
:100160001CAEBE01635C7F4F8EE1FB0111928A954C
:10017000E9F74FE050E0CE0101960E9467000A9730
:100180000CF456C02196AEADBFAD2197109799F1F2
:10019000FD0101900020E9F73197EA1BFB0B369730
:1001A00050F115965C91159714964C9114971396EF
:1001B0003C91139712962C91129711969C9111973E
:1001C0008C911F925F931F924F931F923F931F92A8
:1001D0002F931F929F931F928F9387E090E69F9398
:1001E0008F931F928BE08F931F930F930E945D0656
:1001F000CDBFDEBF08C089E0E6E1F0E6D80101909E
:100200000D928A95E1F761966EAD7FAD61976115AC
:10021000710541F049E050E0C8010B960E94340698
:1002200081E007C0F801138681E003C080E001C0CF
:1002300080E0C65ADF4FCDBFDEBFDF91CF911F9167
:100240000F9108950F931F93CF93DF93EC0185E1F6
:10025000FE0111928A95E9F760E070E688E594E680
:100260000E944306892B49F0BE0188E594E60E946E
:100270009700882311F081E08C8B00E010E020EEE5
:1002800037E04FE150E660E170E080E090E00E94EE
:100290000D05AE01455F5F4F20EE37E060E170E095
:1002A00080E390E00E940D0520EE37E047E250E643
:1002B00068E170E080E090E00E940D0520EE37E0FC
:1002C000AE0168E170E080E390E00E940D05DF91EF
:1002D000CF911F910F9108950F931F93CF93DF93A9
:1002E00010E000E0C0E0D0E00E945B0501111AC000
:1002F000E12FF0E0E35DFF499081891311C01F5F9A
:10030000163091F786E0EDE2F0E6A8E5B4E601905C
:100310000D928A95E1F710E001E0C6E0D0E0E4CF6D
:1003200010E0E2CFCB33D10528F4FE01E85AFB49B7
:10033000808321968A3069F4C230D10550F0FE01E5
:10034000EA5AFB4980818D3021F4C85ADB49188272
:1003500005C0CB33D10540F210929364DF91CF9169
:100360001F910F91089564E288E690E00E944A0987
:1003700060E080E690E00E944A098091650080FD7F
:10038000FCCF0895E0EEF5E012821582E0E0F4E0A3
:100390008CED8183A0E6B4E08CE011968C931197EC
:1003A00080E911968C93119780E212968C931297A4
:1003B00088E054968C93549755968C9394E091834F
:1003C0008283828B838BE0E4F4E091E0918392E07E
:1003D0009283808B818B08950E94B3010E94C20199
:1003E0000E94DF0280E00E9439050E94BA050E9447
:1003F000310380E098EF0E945E042FEF3CE281E33E
:1004000091E02150304080409040D9F700C000007A
:1004100080E29DEF0E945E042FEF3CE281E391E0D9
:100420002150304080409040D9F700C0000080EE5D
:100430009FEF0E945E042FEF3CE281E391E02150A8
:10044000304080409040D9F700C0000080EE97E037
:100450000E945E042FEF3CE281E391E021503040A6
:1004600080409040D9F700C0000080E090E00E94FA
:100470005E0484E390E69F938F93C1E0CF930E9444
:10048000EA058DE390E69F938F93CF930E94EA0550
:100490002FE739EA83E0215030408040E1F700C087
:1004A000000082E490E69F938F93CF930E94EA0529
:1004B0009FE729EA33E0915020403040E1F700C047
:1004C000000082E690E69F938F93CF930E94EA0507
:1004D0008FE79CEF2AE0815090402040E1F700C078
:1004E00000008BE890E69F938F93CF930E94EA05DC
:1004F0003FE78EEE96E3315080409040E1F700C038
:1005000000008AE990E69F938F93CF930E94EA05BB
:100510002FEF31E786E0215030408040E1F700C006
:10052000000088EA90E69F938F93CF930E94EA059C
:100530009FE729EA33E0915020403040E1F700C0C6
:1005400000008DB79EB745968DBF9EBF8EEB90E69F
:100550009F938F93C1E0CF930E94EA059FE729EA1A
:1005600033E0915020403040E1F700C0000080E2CD
:1005700091E69F938F93CF930E94EA058FEF9BE7BD
:1005800022E9815090402040E1F700C000000E9425
:100590006C0184E994E60E9422013FEF80EE95EF22
:1005A00025E03150804090402040D9F700C0000045
:1005B0000F900F900F900F900F900F90C7CFE0E427
:1005C000F9E081E3808384E0818308958093440986
:1005D000809143098823E4F70895CF93C82F892F8A
:1005E0000E94E6028C2F0E94E602CF9108951F938D
:1005F000CF93DF9394E090936604C0E0D4E010E8DA
:100600001E830E94E6021D83DF91CF911F91089502
:100610001F93CF93DF9394E090936504C0E0D4E000
:1006200010E81E830E94E6021D83DF91CF911F9187
:100630000895E0E6F4E088E086832FEF3DEE92E057
:10064000215030409040E1F700C0000085832FEF3B
:1006500035EA8EE0215030408040E1F700C00000D4
:1006600008950E94190381E10E94F7022FEF89EC9F
:1006700098E0215080409040E1F700C0000081EBFD
:100680000E94F70285E00E9408038CE30E940803A1
:100690008CE30E94080382EB0E94F70285E00E942F
:1006A00008038CE30E9408038CE30E94080383EB99
:1006B0000E94F70285E00E9408038CE30E94080371
:1006C0008CE30E94080385E00E9408038CE30E94EB
:1006D00008038CE30E94080384EB0E94F70283E086
:1006E0000E94080380EC0E94F70288E20E9408033F
:1006F00088E00E94080384E00E94080381EC0E94C5
:10070000F70280EC0E94080382EC0E94F7028DE061
:100710000E94080380E00E94080383EC0E94F70215
:100720008DE80E9408038AE20E94080384EC0E947C
:10073000F7028DE80E9408038EEE0E94080385EC04
:100740000E94F7028AE10E94080386E30E94F702F2
:1007500080EC0E9408038AE30E94F70285E00E9471
:10076000080380EE0E94F70284E00E94080382E200
:100770000E94080387E00E9408038AE00E940803A1
:100780008EE20E94080380E30E94080385E20E9433
:1007900008038AE20E94080388E20E94080386E2B6
:1007A0000E9408038EE20E9408038AE30E94080365
:1007B00080E00E94080381E00E94080383E00E9419
:1007C000080383E10E94080381EE0E94F70284E09F
:1007D0000E94080386E10E94080386E00E94080345
:1007E0008DE00E9408038DE20E94080386E20E94C9
:1007F000080383E20E94080387E20E94080387E25D
:100800000E94080385E20E9408038DE20E9408030B
:100810008BE30E94080380E00E94080381E00E94AD
:10082000080384E00E94080383E10E94080389E230
:100830000E94F7022FEF86E791E021508040904020
:10084000E1F700C000000895CF92DF92EF92FF928F
:100850000F931F93CF93DF93D82EC92E162F072FF8
:10086000F42EE52EC22FD32F8AE20E94F7028C2DA0
:100870000E9408038D2D0E9408038E2D0E940803FC
:100880008F2D0E9408038BE20E94F702802F0E94A6
:100890000803812F0E9408038D2F0E9408038C2FCC
:1008A0000E9408038CE20E94F702DF91CF911F9112
:1008B0000F91FF90EF90DF90CF900895CF92DF924D
:1008C000EF92FF92CF93DF93EC012FE930E04FE7F7
:1008D00050E060E070E080E090E00E94240484E05A
:1008E0008093650480E880930604C12CD12C7601A6
:1008F00008C0CE010E94ED028FEFC81AD80AE80A9C
:10090000F80AC11480E5D806E104F10490F380E808
:1009100080930504DF91CF91FF90EF90DF90CF900F
:100920000895EF92FF921F93CF93DF938038910544
:1009300098F4603A710580F47A019B01AC010E9441
:10094000240484E080936504C0E0D4E010E81E83B2
:10095000C7010E94ED021D83DF91CF911F91FF908F
:10096000EF9008955F926F927F928F929F92AF92D5
:10097000BF92CF92DF92EF92FF920F931F93CF938C
:10098000DF935C014B01E22E532E80EE840F803604
:1009900008F04FE350E0405251093A01660C771CD1
:1009A000660C771C460D571DCA018E5C9E493C01A2
:1009B000C12CD12C1EC0F301EC0DFD1DF080C0E058
:1009C000D0E011C0F0FE03C04E2D552D02C0402FC7
:1009D000512FBE01680D791DC6018A0D9B1D0E9415
:1009E0009104F6942196C730D10564F39FEFC91A9C
:1009F000D90A85E0C816D104F4F2DF91CF911F9196
:100A00000F91FF90EF90DF90CF90BF90AF909F90AD
:100A10008F907F906F905F9008958F929F92AF928A
:100A2000BF92CF92DF92EF92FF920F931F93CF93DB
:100A3000DF937C014B01EA01590168010AC021964C
:100A400086019501B401C7010E94B20486E0E80E58
:100A5000F11C48814111F3CFDF91CF911F910F918C
:100A6000FF90EF90DF90CF90BF90AF909F908F90CE
:100A700008959091E205987F882311F023E001C04A
:100A800022E0922B9093E205882319F023E836E0C8
:100A900002C028E833E1209308083093090891E068
:100AA000811101C090E0E0E0F8E0958382EC86835C
:100AB00083E087830895FF920F931F93CF93DF9373
:100AC00080E8809304086894FF24F6F80DE013E0B2
:100AD000D0E0C0E0B0E0F0E0E0E01BC02F2D302F10
:100AE000412F5D2F6C2F7B2F8F2F9E2FAFEF0E94FA
:100AF0001C06F22E032F142FD52FC62FB72FF82F39
:100B0000E92FA0E00E94280621F481E08093AA64E6
:100B100004C08091040888230CF780910008DF91BD
:100B2000CF911F910F91FF9008959091040895FF28
:100B3000FCCF8093020808950F931F93CF93DF9308
:100B40008C01C0E0D0E007C0F801EC0FFD1F8081F0
:100B50000E9495052196F80101900020E9F7319750
:100B6000E01BF10BCE17DF0778F3DF91CF911F91D8
:100B70000F910895E0E2F8E083E896E0808791879E
:100B800082EC868383E0878308959091240895FF03
:100B9000FCCF8093220808950F931F93CF93DF9388
:100BA0008C01C0E0D0E007C0F801EC0FFD1F808190
:100BB0000E94C5052196F80101900020E9F73197C0
:100BC000E01BF10BCE17DF0778F3DF91CF911F9178
:100BD0000F9108951F93CF93DF93CDB7DEB7C05821
:100BE000D109CDBFDEBFCA57DF4F1881C658D040EC
:100BF0009E0127573F4FC957DF4F48815981C7583A
:100C0000D04060E870E0CE0101960E948D0611117F
:100C100005C0CE0101960E949C0506C0113021F44A
:100C2000CE0101960E94CC05C058DF4FCDBFDEBF7C
:100C3000DF91CF911F9108950024A7FD00942A0F02
:100C4000301D401D501D601D701D801D901D08959C
:100C50000024A7FD00942A173005400550056005C3
:100C60007005800590050895FB01DC01415050405E
:100C700048F001900D920020C9F701C01D9241502B
:100C80005040E0F70895FB0151915523A9F0BF01B1
:100C9000DC014D9145174111E1F759F4CD01019067
:100CA000002049F04D9140154111C9F3FB0141115C
:100CB000EFCF81E090E001970895AEE0B0E0E3E689
:100CC000F6E00C945E090D891E898F89988D26E0C7
:100CD0002C8309831A8397FF02C080E090E8019774
:100CE0008D839E83AE01455E5F4F698D7A8DCE0107
:100CF00001960E94B9064D815E8157FD0AC02F8181
:100D00003885421753070CF49A01F801E20FF31FDC
:100D100010822E96E4E00C947709AEE0B0E0E3E9AF
:100D2000F6E00C945E098C01FA0186E08C8309835D
:100D30001A8377FF02C060E070E8CB0101978D83D2
:100D40009E83A901BF01CE0101960E94B9064D8183
:100D50005E8157FD0AC02F813885421753070CF476
:100D60009A01F801E20FF31F10822E96E4E00C9432
:100D70007709ABE0B0E0EFEBF6E00C9450096C01C2
:100D80007B018A01FC0116821782838181FFCCC11D
:100D9000CE0101963C01F6019381F70193FD859107
:100DA00093FF81917F01882309F4BAC1853239F418
:100DB00093FD859193FF81917F01853229F4B601DE
:100DC00090E00E94B008E7CF912C212C312CFFE15C
:100DD000F315D8F08B3279F038F4803279F0833221
:100DE000A1F4232D20611DC08D3261F0803369F4A0
:100DF000232D216016C0832D8260382EE32DE46000
:100E00003E2E2AC0F32DF8601DC037FC2DC020ED0A
:100E1000280F2A3040F08E32B9F436FC81C1232DE0
:100E20002064322E19C036FE06C08AE0989E200D3E
:100E30001124922E11C0EAE02E9E200D1124222EA4
:100E4000F32DF0623F2E08C08C3621F4832D80688C
:100E5000382E02C0883641F4F70193FD859193FF47
:100E600081917F018111B3CF982F9F7D955493304D
:100E700028F40C5F1F4F9FE399830DC0833631F038
:100E8000833771F0833509F059C021C0F8018081A2
:100E900089830E5F1F4F88248394912C530113C0C4
:100EA0002801F2E04F0E511CF801A080B18036FEFF
:100EB00003C0692D70E002C06FEF7FEFC5010E9493
:100EC000A5084C018201F32DFF773F2E16C02801A3
:100ED00022E0420E511CF801A080B18036FE03C012
:100EE000692D70E002C06FEF7FEFC5010E949A0884
:100EF0004C01F32DF0683F2E820133FC1BC0822D84
:100F000090E088169906B0F4B60180E290E00E9465
:100F1000B0082A94F4CFF50137FC859137FE819112
:100F20005F01B60190E00E94B00821102A9421E0F0
:100F3000821A91088114910471F7E8C0843611F087
:100F4000893641F5F80137FE07C0608171818281E1
:100F500093810C5F1F4F08C060817181072E000CC8
:100F6000880B990B0E5F1F4FF32DFF763F2E97FFD7
:100F700009C090958095709561957F4F8F4F9F4FD9
:100F8000F0683F2E2AE030E0A3010E94EC08882E92
:100F9000861845C0853731F4232D2F7EB22E2AE0E6
:100FA00030E025C0932D997FB92E8F36C1F018F40B
:100FB000883579F0B5C0803719F0883721F0B0C096
:100FC000E92FE061BE2EB4FE0DC0FB2DF460BF2EF4
:100FD00009C034FE0AC0292F2660B22E06C028E0C0
:100FE00030E005C020E130E002C020E132E0F8014D
:100FF000B7FE07C060817181828193810C5F1F4FB2
:1010000006C06081718180E090E00E5F1F4FA301F8
:101010000E94EC08882E8618FB2DFF773F2E36FEA7
:101020000DC0232D2E7FA22E891458F434FE0BC040
:1010300032FC09C0832D8E7EA82E05C0B82CA32CAF
:1010400003C0B82C01C0B92CA4FE0FC0FE01E80DEE
:10105000F11D8081803321F49A2D997EA92E09C03B
:10106000A2FE06C0B394B39404C08A2D867809F01A
:10107000B394A3FC11C0A0FE06C0B21488F4280CDF
:10108000922C9B180EC0B21460F4B60180E290E07E
:101090000E94B008B394F7CFB21418F42B1802C012
:1010A000982C212CA4FE10C0B60180E390E00E9491
:1010B000B008A2FE17C0A1FC03C088E790E002C000
:1010C00088E590E0B6010CC08A2D867859F0A1FE23
:1010D00002C08BE201C080E2A7FC8DE2B60190E085
:1010E0000E94B008891438F4B60180E390E00E94B1
:1010F000B0089A94F7CF8A94F301E80DF11D80812E
:10110000B60190E00E94B0088110F5CF222009F4CA
:1011100042CEB60180E290E00E94B0082A94F6CF59
:10112000F6018681978102C08FEF9FEF2B96E2E157
:101130000C946909FC010590615070400110D8F7CA
:10114000809590958E0F9F1F0895FC01615070400F
:1011500001900110D8F7809590958E0F9F1F0895EC
:101160000F931F93CF93DF93FB01238121FD03C0D6
:101170008FEF9FEF2CC022FF16C04681578124813C
:1011800035814217530744F4A081B1819D012F5F3F
:101190003F4F208331838C93268137812F5F3F4FD0
:1011A0002683378314C08B01EC01FB010084F18599
:1011B000E02D0995892BE1F6D80116968D919C9129
:1011C0001797019616968D939C931797CE01DF91F2
:1011D000CF911F910F910895FA01AA27283051F15C
:1011E000203181F1E8946F936E7F6E5F7F4F8F4F58
:1011F0009F4FAF4FB1E03ED0B4E03CD0670F781FB7
:10120000891F9A1FA11D680F791F8A1F911DA11D9B
:101210006A0F711D811D911DA11D20D009F46894D4
:101220003F912AE0269F11243019305D3193DEF67C
:10123000CF010895462F4770405D4193B3E00FD032
:10124000C9F7F6CF462F4F70405D4A3318F0495D1D
:1012500031FD4052419302D0A9F7EACFB4E0A69500
:101260009795879577956795BA95C9F70097610522
:10127000710508959B01AC010A2E06945795479578
:1012800037952795BA95C9F7620F731F841F951F6D
:10129000A01D0895DC0128ED209334006C9308957F
:1012A0002F923F924F925F926F927F928F929F9276
:1012B000AF92BF92CF92DF92EF92FF920F931F9364
:1012C000CF93DF93CDB7DEB7CA1BDB0BCDBFDEBF3D
:1012D00009942A88398848885F846E847D848C8448
:1012E0009B84AA84B984C884DF80EE80FD800C8151
:1012F0001B81AA81B981CE0FD11DCDBFDEBFED010B
:061300000895F894FFCFF0
:1013060024474E524D4300256325633A25632563E2
:101316003A256325630030303A30303A3030006C7D
:1013260061696B61733A00646174613A0024474EE7
:10133600524D43004154453026570D0A0041540D85
:101346000A0041542B53415042523D332C312C223A
:10135600434F4E54595045222C2247505253220D8A
:101366000A0041542B53415042523D332C312C221A
:1013760041504E222C22696E7465726E65742E740D
:10138600656C65322E6C74220D0A0041542B534154
:101396005042523D312C310D0A0041542B485454D1
:1013A60050494E49540D0A0041542B48545450504C
:1013B6004152413D22434944222C310D0A004154F9
:1013C6002B48545450504152413D2255524C222CE8
:1013D60022687474703A2F2F73756E666C6F77651A
:1013E600722E77352E6C742F696E6465782E706850
:1013F600703F646174613D5B353938383045393545
:101406003130413031323430413431423130384577
:1014160044323930343031303846325D220D0A00DC
:1014260041542B48545450414354494F4E3D300D7E
:101436000A00000000000000005F0000000700072F
:1014460000147F147F14242A7F2A1223130864624F
:1014560036495522500005030000001C22410000B9
:1014660041221C0014083E081408083E08080050D3
:101476003000000808080808006060000020100816
:1014860004023E5149453E00427F400042615149B7
:10149600462141454B311814127F102745454539E1
:1014A6003C4A49493001710905033649494936061E
:1014B6004949291E00363600000056360000081439
:1014C600224100141414141400412214080201517C
:1014D6000906324979413E7E1111117E7F494949FB
:1014E600363E414141227F4141221C7F49494941C3
:1014F6007F090909013E4149497A7F0808087F00AA
:10150600417F41002040413F017F081422417F4036
:101516004040407F020C027F7F0408107F3E41411D
:10152600413E7F090909063E4151215E7F0919297D
:1015360046464949493101017F01013F4040403F4C
:101546001F2040201F3F4038403F631408146307A4
:10155600087008076151494543007F414100020474
:101566000810200041417F0004020102044040406F
:101576004040000307000020545454787F484444F8
:10158600383844444420384444487F385454541826
:10159600087E090102081454543C7F0804047800AC
:1015A600447D40002040443D007F10284400004117
:1015B6007F40007C041804787C080404783844448E
:1015C60044387C14141408081414187C7C08040489
:1015D600084854545420043F4440203C4040207C5A
:1015E6001C2040201C3C4030403C44281028440C21
:1015F6005050503C4464544C4400083641000000AE
:101606007F0000004136080008082A1C08081C2A2A
:10161600080806090906007E1111917E00417FC166
:10162600007E1111917E3E414141227E1111917E33
:101636007E1111917E7F4949C9417F4949C97F3C45
:10164600434243247E4A4B4A4162534A47427E4ABA
:101656004B4A423E4149497A7F0814224100417F64
:1016660041007F40404040444B4A4B327F040810C3
:101676007F7F0408107F3E4141413E3E4141413E4D
:101686003E4141413E3E4141413E44281028443FAF
:101696004040C03F7F40404040444B4A4B323C4173
:1016A60041413C3C4141413C62534A474262534AB4
:1016B60047423649494936205454D47800447DC0BF
:1016C60000205454547838444444202054545478C8
:1016D6002054545478385454D4183854555418381F
:1016E6004546452038545554184465564D4438549B
:1016F600555418081454543C7F1028440000447D67
:10170600400000417F400048555655207C0804049F
:10171600787C0804047838444444383844444438CF
:101726003844444438384444443800363600003897
:101736004040A07800417F4000485454542038422D
:1017460042227838424222784465564D44446556D2
:081756004D44000503000000F2
:00000001FF
