:100000000C94D8000C94F5000C94F5000C94F500B9
:100010000C94F5000C94F5000C94F5000C94F5008C
:100020000C94F5000C94F5000C94F5000C94F5007C
:100030000C94F5000C94F5000C94F5000C94F5006C
:100040000C94F5000C94F5000C94F5000C94F5005C
:100050000C94F5000C94F5000C94F5000C94F5004C
:100060000C94F5000C94F5000C94F5000C94F5003C
:100070000C94F5000C94F5000C94F5000C94F5002C
:100080000C94F5000C94F5000C94F5000C94F5001C
:1000900005A84CCDB2D44EB93836A9020C50B9914E
:1000A0008688083CA6AAAA2ABE000000803F6E618E
:1000B0006E00696E660000407A10F35A00A0724E1E
:1000C00018090010A5D4E80000E87648170000E4FD
:1000D0000B54020000CA9A3B000000E1F505000045
:1000E00080969800000040420F000000A0860100AA
:1000F0000000102700000000E8030000000064007A
:10010000000000000A0000000000010000000000E4
:100110002C76D888DC674F0823DFC1DFAE59E1B108
:10012000B796E5E3E453C63AE651997696E8E6C217
:100130008426EB898C9B62ED407C6FFCEFBC9C9F1E
:1001400040F2BAA56FA5F490055A2AF75C936B6C40
:10015000F9676DC11BFCE0E40D47FEF520E6B50034
:10016000D0ED902E0300943577050080841E0800A2
:1001700000204E0A000000C80C333333330F986E52
:1001800012831141EF8D2114893BE65516CFFEE60F
:10019000DB18D1844B381BF77C1D901DA4BBE424D5
:1001A000203284725E228100C9F124ECA1E53D2752
:1001B00011241FBECFEFCDBFDFE7DEBF19E6A0E001
:1001C000B0E6E4E9F0E302C005900D92AE3CB10761
:1001D000D9F72EE6AEECB9E601C01D92AC3FB207EE
:1001E000E1F70E9481050C9448180C940000CF930D
:1001F000DF93FC01EC0120E030E00FC09C3261F4A1
:100200001082D901AA0FBB1FA60FB71FCD93DC9395
:10021000EF0121962F5F3F4F31969081992319F07E
:10022000241735075CF3241735076CF4CE17DF0766
:1002300050F4C901880F991FFB01E80FF91FC08313
:10024000D1832F5F3F4FC901DF91CF910895CF93A5
:10025000DF93CDB7DEB76E97CDBFDEBFBE016F5F58
:100260007F4F8EE1FB0111928A95E9F74FE050E054
:100270008EEC99E60E94F7000A970CF47AC0EB81A5
:10028000FC81309799F1DF010D900020E9F711977B
:10029000AE1BBF0B169750F1808190E0C097AAE08B
:1002A000BAE6880F982F990F990F890F9181890FBE
:1002B00080538C93828190E0C097880F982F990F7C
:1002C000990F890F9381890F805311968C93119701
:1002D000848190E0C097880F982F990F990F890F0C
:1002E0009581890F805312968C9305C0EAE0FAE657
:1002F000128211821082EB89FC893097A9F1DF010B
:100300000D900020E9F71197AE1BBF0B169761F512
:10031000808190E0C097AAE0BAE6880F982F990FE5
:10032000990F890F9181890F805313968C9313979E
:10033000828190E0C097880F982F990F990F890FAD
:100340009381890F805314968C931497848190E045
:10035000C097880F982F990F990F890F9581890F52
:10036000805315968C9305C0EAE0FAE61582148254
:1003700013826E96CDBFDEBFDF91CF910895EAE084
:10038000FAE633812481858190E01F923F931F928A
:100390002F938053984F9F938F938AEA91E69F9370
:1003A0008F931F921F928FEF8F938F9381E08F9384
:1003B0001F920E94310C8DB79EB70E968DBF9EBFC7
:1003C00008950F931F93CF93DF93AAE0BAE6159693
:1003D000CC911597D0E0FE01E053F84F2C9130E01E
:1003E00014964C918CEF840F863008F44DC0433046
:1003F00019F04A3009F04AC0642F70E06F5F7F4FF8
:100400005DE0569FC001579F900D112465E070E09C
:100410000E9491158B01015E1F4F0E0F1F1FDF0100
:10042000FF230CF41396B595A795B595A7950A0FDC
:100430001B1FCF0164E670E00E949115061B170B8D
:10044000CF0160E971E00E949115C801860F971FE6
:1004500007E010E0B8010E94911599270696B801AF
:100460000E9491159FE1981B433039F450910D6A19
:1004700081E0591760F480E00AC050910D6A81E074
:10048000591728F080E003C081E001C080E0882394
:1004900011F083E001C082E0280F311DCF0183708D
:1004A0009927892B81F4CF0164E670E00E949115B1
:1004B000892B59F4CF0160E971E00E949115892BD5
:1004C00031F080E005C080E003C081E001C081E040
:1004D000982F9170443061F0463061F0493061F0FE
:1004E0004B3061F0423061F4992361F09DE10BC023
:1004F0009EE109C09EE107C09EE105C09EE103C0E8
:100500009FE101C09CE128313105F4F02851310907
:10051000AAE0BAE613968C9113978F5F13968C938B
:100520001397981708F063C081E013968C93139784
:100530004F5F14964C934D3008F459C080930E6A67
:10054000FE01EF52F84F53C033230CF050C0285E29
:100550003F4FAAE0BAE613968C91139781501396F9
:100560008C93811144C0415040930E6A411106C0E2
:100570008CE080930E6AFE01E153F84FCF01837047
:100580009927892B81F4CF0164E670E00E949115D0
:10059000892B59F4CF0160E971E00E949115892BF4
:1005A00031F080E005C080E003C081E001C081E05F
:1005B000982F917080910E6A843061F0863061F0DE
:1005C000893061F08B3061F0823061F4992361F001
:1005D0008DE10BC08EE109C08EE107C08EE105C040
:1005E0008EE103C08FE101C08CE180930D6AAAE027
:1005F000BAE62C9380E38E0F15968C93DF91CF9102
:100600001F910F9108950F931F93CF93DF9310E0E5
:1006100000E0C0E0D0E00E94930E01111AC0E12F6B
:10062000F0E0E754FE499081891311C01F5F163036
:1006300091F786E0E9EBF1E6AEECB9E601900D92B8
:100640008A95E1F710E001E0C6E0D0E0E4CF10E0E9
:10065000E2CFCB33D10528F4FE01E253F649808383
:1006600021968A3089F4C230D10570F0FE01E4533E
:10067000F64980818D3041F4C253D64918820E94D8
:1006800027010E94E10105C0CB33D10520F2109271
:10069000096ADF91CF911F910F9108950E94030382
:1006A00080910C6A882311F080E0089581E008951C
:1006B00064E288E690E00E94421860E080E690E004
:1006C0000E9442188091650080FDFCCF0895E0EE05
:1006D000F5E012821582E0E0F4E08CED8183A0E683
:1006E000B4E08CE011968C93119780E911968C936D
:1006F000119780E212968C93129788E054968C930F
:10070000549755968C9394E091838283828B838B4C
:10071000E0E4F4E091E0918392E09283808B818B1E
:1007200008952F923F924F925F926F927F928F9295
:100730009F92AF92BF92CF92DF92EF92FF920F9370
:100740001F93CF93DF93CDB7DEB7C15ED140CDBF4E
:10075000DEBF4C01E62ED72E342E252EF12C30C0D4
:100760000F2D10E0B801012E000C880B990B0E9490
:10077000621020E537E746ED5DE30E9456112B013C
:100780003C010E94C311000F111F000F111FE1EF68
:10079000F0E0EC0FFD1FE00FF11F60837183828397
:1007A0009383C301B2010E942510E1E0F0E0EC0F59
:1007B000FD1FE00FF11F6083718382839383F394A5
:1007C0002BE32F1568F680E090E00E94510ADF923B
:1007D000EF921F921F9288EF8F931F9281E08F9369
:1007E00080E18F930E94310CCDBFDEBFCF51DE4F31
:1007F0001882C15ED140E12C05C0CF51DE4F188276
:10080000C15ED140AE2CB12CC50144966CE370E0C2
:100810000E9491158C011127B801012E000C880B44
:10082000990B0E94621020E537E746ED5DE30E94D8
:1008300056112B013C0120E030E0A9010E9451112A
:1008400088230CF445C022ED33E54BE750E4C301A7
:10085000B2010E9420101816DCF1000F111F000FCA
:10086000111FE1E0F0E0EC0FFD1FE00FF11F6081D0
:1008700071818281938120E030E048EC51E40E9454
:10088000561120E030E040E852E40E94B40F0E948C
:100890002A10F62EE1EFF0E0EC0FFD1FE00FF11F44
:1008A000608171818281938120E030E048EC51E4E5
:1008B0000E94561120E030E04CE852E40E94B40F50
:1008C0000E942A1020E030E044E08F2D0E94A50A0B
:1008D000F12C87C0CF2CD12CC5018C0D9D1D6CE354
:1008E00070E00E9491158C011127B801012E000CB7
:1008F000880B990B0E94621020E537E746ED5DE317
:100900000E9456112B013C0120E030E0A9010E9419
:10091000201088230CF464C022ED33E54BE750E44B
:10092000C301B2010E94511118160CF459C0FF20E6
:10093000C1F064E170E09B012C193D094FEF429F2B
:10094000C001439F900D11240E949115EFE16E9F0D
:10095000C00111246FEF70E00E9491156B01DD243E
:1009600005C00F2EFFE1CF2ED12CF02D000F111F4F
:10097000000F111FE1E0F0E0EC0FFD1FE00FF11F91
:10098000608171818281938120E030E048EC51E404
:100990000E94561120E030E040E852E40E94B40F7B
:1009A0000E942A10462EE1EFF0E0EC0FFD1FE00F51
:1009B000F11F608171818281938120E030E048ECF9
:1009C00051E40E94561120E030E04CE852E40E94CD
:1009D000B40F0E942A10960144E0842D0E94A50ABB
:1009E000F394F3E1FF1508F075CFCF51DE4F288166
:1009F000C15ED14021113CC010E029C0C501810F6A
:100A0000911D6CE370E00E949115BC017727072EC1
:100A1000000C880B990B0E94621020E537E746ED29
:100A20005DE30E9456112B013C0120E030E0A9015A
:100A30000E945111882354F022ED33E54BE750E436
:100A4000C301B2010E94201018162CF41F5F14314C
:100A5000A8F281E001C080E0882351F0F4010995FB
:100A60008823D9F0F1E0CF51DE4FF883C15ED14049
:100A7000EE2011F0EA9404C00F2EFBE3EF2EF02DD0
:100A80002FEB8BE493E0215080409040E1F700C0D1
:100A90000000EE2009F4B1CEB5CE80E090E00E94D7
:100AA000510A2F923F921F921F9287E08F9380EE00
:100AB0008F9381E08F9380E18F930E94310CEFEF51
:100AC000FBE722E9E150F0402040E1F700C00000E0
:100AD000CDBFDEBFCF51DE4FCDBFDEBFDF91CF91A7
:100AE0001F910F91FF90EF90DF90CF90BF90AF904C
:100AF0009F908F907F906F905F904F903F902F903E
:100B000008950E9458030E9467030E94D20880E063
:100B10000E94710E0E94F20E0E94240980E090E073
:100B20000E94510A0E94630F40EC51E66EEC71E6A0
:100B300086EC98E00E9491034EED51E66BEE71E673
:100B40008EE493E00E9491030E9403030E94BF0180
:100B50000E9432070E9438080E9403030E94BF01CE
:100B60000E94320780E591E69F938F9380ED90E697
:100B70009F938F938DEF91E69F938F9381E08F9357
:100B800084EF8F930E94DE0788E192E69F938F9314
:100B900085E28F938CE18F930E94DE078DB79EB71D
:100BA0000C968DBF9EBFD8CF1F93CF93DF93BC0110
:100BB000909141019111FCCFC0E4D1E011E01F837D
:100BC00080E090E00E9460102FE632E143E85FE3AE
:100BD0000E9456110E94311080E090E00E94601047
:100BE00020E030E040E05FE30E94B40F0E9431104B
:100BF0006A877B87188619861883DF91CF911F91AA
:100C00000895E0E4F1E080818E7F8083809141014E
:100C10008111FCCF089569E472E60E9438170097AD
:100C200051F16CE270E00E940317009739F10196D0
:100C30000E940216BC0190E019C0292F30E0F90192
:100C4000EE0FFF1FEE0FFF1FE45EFF494081518151
:100C50006417750751F4220F331F220F331FF90158
:100C6000E45EFF498281938108959F5F9D3228F35E
:100C700081E492E6089589E292E6089585E392E69A
:100C800008950F931F93CF93DF938C01EB0169E4D9
:100C900072E60E943817892B61F0C8010E940B068A
:100CA0002197AE01BC01C8010E941E17C00FD11FC1
:100CB0001882DF91CF911F910F910895CF92DF920B
:100CC000EF92FF920F931F93CF93DF937C016B0101
:100CD000C0E055C00C2F10E0F801EE0FFF1FEE0F23
:100CE000FF1FE050F04A60817181C7010E943817F0
:100CF000892B09F443C0000F111F000F111FE801D9
:100D0000C050D04A6A817B81860101501109A80137
:100D1000C7010E941E17F701E00FF11F1082E88142
:100D2000F9818081813471F566E572E6CF010E9418
:100D30003817892B39F1F70101900020E9F7319735
:100D4000EE19FF09A6014E1B5F0B4150510960E5EA
:100D500071E6C7010E940E17F70101900020E9F724
:100D60003197EE19FF09A6014E1B5F0B4150510947
:100D700069E972E6C7010E940E1704C0CF5FC73051
:100D800008F4A8CFDF91CF911F910F91FF90EF90C2
:100D9000DF90CF900895EF92FF921F93CF93DF9350
:100DA0007C01CB01D42F0E94D40510E0C0E018C014
:100DB0000E94220F8D30A1F0D11102C08A3081F043
:100DC000DD2321F08A3011F41A3051F0CF3738F496
:100DD000F701EC0FF11D8083182FCF5F01C0182F92
:100DE0008091430180FFE4CF81E0809343010E9422
:100DF0000106F701EC0FF11D1082DF91CF911F91D9
:100E0000FF90EF9008956AE572E60E943817009708
:100E100041F105960E940216833631F0282F220FE9
:100E2000330B2157310902C029E13CEF3F932F9347
:100E3000282F082E000C330B3F938F9380E692E609
:100E40009F938F931F921F921F928FE18F931F92F8
:100E500081E08F930E94310C8DB79EB70C968DBFA9
:100E60009EBF08950F931F93CF93DF93CDB7DEB747
:100E7000C058D109CDBFDEBF81E792E69F938F9323
:100E800081E08F930E94310F8E010F5F1F4F80E82A
:100E9000F80111928A95E9F740E064E670E0C80134
:100EA0000E94CB06C8010E9403070F900F900F907D
:100EB000C058DF4FCDBFDEBFDF91CF911F910F91A3
:100EC0000895EF92FF920F931F93CF93DF93CDB7C7
:100ED000DEB76697CDBFDEBFFE0131962AE0DF01A7
:100EE0001D922A95E9F7AAE0BAE64C912DEC429FB3
:100EF000312D112436953695369550E3530F59838D
:100F0000330F532F550F550F350F431B405D4A8349
:100F10001AE31B8311964C911197429F312D112496
:100F200036953695369550E3530F5C83330F532F28
:100F3000550F550F350F431B405D4D831E83129691
:100F40003C91329F212D112426952695269540E32C
:100F5000420F4F83220F422F440F440F240F321BA6
:100F6000305D388720E22987EB87FC878D879E8755
:100F70006F87788B86E0E4EAF1E6DE015196019016
:100F80000D928A95E1F70F2EF3E0EF2EF12CF02D64
:100F90008E010F5E1F4F9E01255F3F4F40E050E0E6
:100FA00060E083E00E943C0D6696CDBFDEBFDF911E
:100FB000CF911F910F91FF90EF900895EF92FF92C4
:100FC0000F931F93CF93DF93CDB7DEB7DA95CDBFE5
:100FD000DEBF9E01235F3E4FC55FDE4F48815981D2
:100FE000CB50D14060E870E08E010F5F1F4FC80109
:100FF0000E94B8170E9403030E94BF011F930F9322
:1010000089E792E69F938F9381E08F930E94310F3F
:101010007E0181E8E80EF11C80E8F70111928A95C3
:10102000E9F740E0C75FDE4F68817981C950D14060
:10103000C7010E94CB0660E870E0C7010E9441062C
:1010400060E870E0C8010E945E06B701C8010E9416
:1010500061070F900F900F900F900F90D395CDBF19
:10106000DEBFDF91CF911F910F91FF90EF90089518
:10107000CF938CE792E69F938F931F92C4E6CF9312
:101080000E94DE078BE992E69F938F9381E08F9316
:101090008CE28F930E94DE0783EC92E69F938F93FE
:1010A00085E08F938CED8F930E94DE0781ED92E6B1
:1010B0009F938F931F9284EB8F930E94DE078EED98
:1010C00092E69F938F931F92CF930E94DE078DB776
:1010D0009EB744968DBF9EBFCF910895EF92FF9229
:1010E0000F931F93CF93DF9300D000D0CDB7DEB71F
:1010F00089839A8380EA91E08B839C83EE24E39436
:10110000F12C8E010D5F1F4F9E012F5F3F4F40E07E
:1011100050E061E086E00E943C0D2FEF8BE792E902
:10112000215080409040E1F700C000002496CDBFE0
:10113000DEBFDF91CF911F910F91FF90EF90089547
:101140000F931F93CF93DF93CDB7DEB7C058D1096C
:10115000CDBFDEBF8E010F5F1F4F20E8F801119257
:101160002A95E9F741E0BC01C8010E94CB06C801FD
:101170000E946E0881E08093986AC058DF4FCDBF0F
:10118000DEBFDF91CF911F910F91089580E197E22B
:101190000E94A0088091986A882311F080E0089549
:1011A00081E00895E0E4F9E081E3808384E08183D5
:1011B000089580934409809143098823E4F70895B2
:1011C000CF93C82F892F0E94D9088C2F0E94D9084D
:1011D000CF9108951F93CF93DF9394E0909366048B
:1011E000C0E0D4E010E81E830E94D9081D83DF917F
:1011F000CF911F9108951F93CF93DF9394E0909325
:101200006504C0E0D4E010E81E830E94D9081D8365
:10121000DF91CF911F910895E0E6F4E088E08683A6
:101220002FEF3DEE92E0215030409040E1F700C0BA
:10123000000085832FEF35EA8EE02150304080405A
:10124000E1F700C0000008950E940C0981E10E94AE
:10125000EA082FEF89EC98E0215080409040E1F7B8
:1012600000C0000081EB0E94EA0885E00E94FB08B4
:101270008CE30E94FB088CE30E94FB0882EB0E9437
:10128000EA0885E00E94FB088CE30E94FB088CE3DF
:101290000E94FB0883EB0E94EA0885E00E94FB089D
:1012A0008CE30E94FB088CE30E94FB0885E00E940F
:1012B000FB088CE30E94FB088CE30E94FB0884EB94
:1012C0000E94EA0883E00E94FB0880EC0E94EA0882
:1012D00088E20E94FB0888E00E94FB0884E00E94EC
:1012E000FB0881EC0E94EA0880EC0E94FB0882EC7B
:1012F0000E94EA088DE00E94FB0880E00E94FB0843
:1013000083EC0E94EA088DE80E94FB088AE20E94B2
:10131000FB0884EC0E94EA088DE80E94FB088EEE30
:101320000E94FB0885EC0E94EA088AE10E94FB0803
:1013300086E30E94EA0880EC0E94FB088AE30E9490
:10134000EA0885E00E94FB0880EE0E94EA0884E03B
:101350000E94FB0882E20E94FB0887E00E94FB08D3
:101360008AE00E94FB088EE20E94FB0880E30E9454
:10137000FB0885E20E94FB088AE20E94FB0888E2E3
:101380000E94FB0886E20E94FB088EE20E94FB0896
:101390008AE30E94FB0880E00E94FB0881E00E9433
:1013A000FB0883E00E94FB0883E10E94FB0881EEBA
:1013B0000E94EA0884E00E94FB0886E10E94FB0884
:1013C00086E00E94FB088DE00E94FB088DE20E94EF
:1013D000FB0886E20E94FB0883E20E94FB0887E28A
:1013E0000E94FB0887E20E94FB0885E20E94FB083E
:1013F0008DE20E94FB088BE30E94FB0880E00E94C4
:10140000FB0881E00E94FB0884E00E94FB0883E166
:101410000E94FB0889E20E94EA082FEF86E791E02C
:10142000215080409040E1F700C000000895CF9225
:10143000DF92EF92FF920F931F93CF93DF93D82EFB
:10144000C92E162F072FF42EE52EC22FD32F8AE296
:101450000E94EA088C2D0E94FB088D2D0E94FB083B
:101460008E2D0E94FB088F2D0E94FB088BE20E94AC
:10147000EA08802F0E94FB08812F0E94FB088D2F15
:101480000E94FB088C2F0E94FB088CE20E94EA0855
:10149000DF91CF911F910F91FF90EF90DF90CF9050
:1014A0000895CF92DF92EF92FF92CF93DF93EC01FA
:1014B0002FE930E04FE750E060E070E080E090E03E
:1014C0000E94170A84E08093650480E880930604F4
:1014D000C12CD12C760108C0CE010E94E0088FEF0C
:1014E000C81AD80AE80AF80AC11480E5D806E10447
:1014F000F10490F380E880930504DF91CF91FF9091
:10150000EF90DF90CF900895EF92FF921F93CF93CB
:10151000DF938038910598F4603A710580F47A0180
:101520009B01AC010E94170A84E080936504C0E02F
:10153000D4E010E81E83C7010E94E0081D83DF91FC
:10154000CF911F91FF90EF9008958F929F92AF924D
:10155000BF92CF92DF92EF92FF920F931F93CF93A0
:10156000DF93882E962E7901042F10E0CC24DD2401
:10157000C01AD10A560129C0CC9FC001CD9F900D41
:10158000900D1124AA9C9001AB9C300D300D1124BC
:10159000820F931F009F9001019F300D300D112489
:1015A000281739074CF0A701B501690D711DCE014F
:1015B000880D911D0E94840A219601C0E6010C1736
:1015C0001D07D4F68FEFA81AB80A0A151B05B4F741
:1015D000DF91CF911F910F91FF90EF90DF90CF900F
:1015E000BF90AF909F908F9008955F926F927F927F
:1015F0008F929F92AF92BF92CF92DF92EF92FF9223
:101600000F931F93CF93DF935C014B01E22E532E78
:1016100080EE840F803608F04FE350E040525109CD
:101620003A01660C771C660C771C460D571DCA01E3
:10163000855899493C01C12CD12C1EC0F301EC0DF9
:10164000FD1DF080C0E0D0E011C0F0FE03C04E2DC3
:10165000552D02C0402F512FBE01680D791DC601C6
:101660008A0D9B1D0E94840AF6942196C730D105ED
:1016700064F39FEFC91AD90A85E0C816D104F4F2C1
:10168000DF91CF911F910F91FF90EF90DF90CF905E
:10169000BF90AF909F908F907F906F905F900895D4
:1016A000AC0190E001C09F5FFA01E90FF11D2081BC
:1016B0002111F9CF892F880F980F292F220F613020
:1016C00019F0623069F00FC080E890E0AC01421B75
:1016D0005109CA0199230CF40196959587950895AF
:1016E00080E8821B089580E008952F923F924F92E8
:1016F0005F926F927F928F929F92AF92BF92CF92A2
:10170000DF92EF92FF920F931F93CF93DF93CDB7AA
:10171000DEB76C97CDBFDEBF898F6C8F1A012F8B20
:10172000388F3801F80101900020E9F73197CF0197
:10173000801B910B8A8F9B8FA12CB12C73C08A8C3C
:101740009B8C8A189B0896E18916910428F00F2E2D
:10175000F5E18F2E912CF02D80E090E009C0F5018D
:10176000E80FF91FE60DF71D20812A3029F00196B8
:1017700088159905A0F301C04C01A401B3016A0DBD
:101780007B1DCE0101960E941E17E1E0F0E0EC0FF8
:10179000FD1FE80DF91D10826C8DCE0101960E948F
:1017A000500BC82ED12C898D482E512C440C551C21
:1017B000440C551C440C551CE12CF12C14C0E1E0E8
:1017C000F0E0EC0FFD1FEE0DFF1D0F89188D91014C
:1017D0004081B201C6010E94F50A96E0C90ED11CF3
:1017E0008FEFE81AF80ADE011196FD010190002042
:1017F000E9F73197EA1BFB0BEE16FF0600F3A80C86
:10180000B91C8A8D9B8DA816B90648F4F301EA0D20
:10181000FB1D80818A3019F49FEFA91AB90A898DBE
:101820008F5F898F8A8D9B8DA816B90620F4998DBC
:10183000943108F484CF6C96CDBFDEBFDF91CF9199
:101840001F910F91FF90EF90DF90CF90BF90AF90DE
:101850009F908F907F906F905F904F903F902F90D0
:1018600008950F931F93CF93DF93CDB7DEB7C45A7C
:10187000D140CDBFDEBF9E012D543E4FCF54DE4F31
:1018800048815981C15BD14064EA71E0CE01019683
:101890000E94B8178E010F5F1F4FC155DE4F288180
:1018A0003981CF5AD140C355DE4F48815981CD5A35
:1018B000D140C455DE4F6881CC5AD140C555DE4F6A
:1018C0008881CB5AD1400E94750BCC55DE4FCDBFDD
:1018D000DEBFDF91CF911F910F9108952F923F921C
:1018E0004F925F926F927F928F929F92AF92BF9230
:1018F000CF92DF92EF92FF920F931F93CF93DF93DC
:10190000CDB7DEB76697CDBFDEBF682E7B01242E34
:10191000312C6EC0732C760C770C770C770C22E48C
:10192000329EC00111249C0126563549490180E0B0
:1019300090E0A12CB12C15C0FC01EE0FFF1FE80FA9
:10194000F91FE80DF91D2081222371F0E1E0F0E09C
:10195000EC0FFD1FE80FF91F20833FEFA31AB30A16
:1019600001968531910540F3E1E0F0E0EC0FFD1FB9
:10197000EA0DFB1D1082622DCE0101960E94500BD4
:10198000482E512CC12CD12C12C0A701B601670DD5
:10199000711DC8010E94840A0F5F1F4F02C000E042
:1019A00010E0003811058CF38FEFC81AD80A28E030
:1019B000C216D104A4F3C12CD12C16C0F601EE0F2F
:1019C000FF1FEC0DFD1DE80DF91D21813281672DF2
:1019D00070E087014081C2010E94F50A36E0430EA3
:1019E000511C8FEFC81AD80ACA14DB0438F3339499
:1019F000A090996A3A1408F48DCF1FC0BA2CB60C87
:101A0000BB0CBB0CBB0CC12CD12C12C0A701B60166
:101A10006B0D711DC8010E94840A0F5F1F4F02C029
:101A200000E010E0003811058CF32FEFC21AD20A43
:101A300038E0C316D104A4F3A3942A2D30E084E146
:101A400090E08619910928173907C4F26696CDBF30
:101A5000DEBFDF91CF911F910F91FF90EF90DF904C
:101A6000CF90BF90AF909F908F907F906F905F903E
:101A70004F903F902F9008953F924F925F926F92B8
:101A80008F929F92AF92CF92DF92EF92FF920F933D
:101A90001F93CF93DF93CDB7DEB7C654D109CDBF27
:101AA000DEBF682E362E27964EAF5FAF279725965E
:101AB0002EAF3FAF25974801270184E1A82EA61835
:101AC000FE01319682E4DF011D928A95E9F7C12C6F
:101AD000D12C80E090E092C0A601440F551F2596BE
:101AE000EEADFFAD2597E40FF51F00811181F401E4
:101AF000E40FF51FE080F18060E070E076C02A30EE
:101B000021F08531910508F45CC0AC01440F551FEC
:101B1000840F951FE1E0F0E0EC0FFD1FE80FF91FC7
:101B200010829091996A9A15D8F430C0482F50E0ED
:101B300032E4349FF001359FF00D1124E656F5494B
:101B400041505109349FD001359FB00D1124A65644
:101B5000B54942E401900D924A95E1F78F5F01C0CB
:101B600081E0891718F3892F90E0019742E4489F9C
:101B7000D001499FB00D1124A656B54982E4FE015B
:101B8000319601900D928A95E1F710C042E4949F3E
:101B9000D0011124A656B54982E4FE013196019088
:101BA0000D928A95E1F79F5F9093996AFE013196B5
:101BB00082E4DF011D928A95E9F72A3091F080E0F6
:101BC00090E0FC01EE0FFF1FE80FF91F41E050E02D
:101BD0004C0F5D1FE40FF51F2083E182F282019616
:101BE00002C080E090E06F5F7F4FF801E60FF71FC3
:101BF0002081211184CF5FEFC51AD50AC414D50402
:101C000008F46ACF009709F450C0FC01EE0FFF1FE3
:101C10008E0F9F1FE1E0F0E0EC0FFD1FE80FF91FB2
:101C200010824091996A4A15D0F42FC0822F90E01B
:101C300032E4389FF001399FF00D1124E656F54942
:101C40000197389FD001399FB00D1124A656B54990
:101C500082E401900D928A95E1F72F5F01C021E0A7
:101C6000241720F3842F90E0019722E4289FD001CD
:101C7000299FB00D1124A656B54982E4FE01319684
:101C800001900D928A95E1F710C082E4489FD0013F
:101C90001124A656B54982E4FE01319601900D92B9
:101CA0008A95E1F74F5F4093996A432D27966EAD71
:101CB0007FAD2797862D0E946E0CCA5BDF4FCDBF8C
:101CC000DEBFDF91CF911F910F91FF90EF90DF90DA
:101CD000CF90AF909F908F906F905F904F903F907C
:101CE00008959091E205987F882311F023E001C0C8
:101CF00022E0922B9093E205882319F023E836E046
:101D000002C028E833E1209308083093090891E0E5
:101D1000811101C090E0E0E0F8E0958382EC8683D9
:101D200083E087830895FF920F931F93CF93DF93F0
:101D300080E8809304086894FF24F6F80DE013E02F
:101D4000D0E0C0E0B0E0F0E0E0E01BC02F2D302F8D
:101D5000412F5D2F6C2F7B2F8F2F9E2FAFEF0E9477
:101D6000D615F22E032F142FD52FC62FB72FF82FED
:101D7000E92FA0E00E94E21521F481E08093116A2E
:101D800004C08091040888230CF780910008DF913B
:101D9000CF911F910F91FF9008959091040895FFA6
:101DA000FCCF8093020808950F931F93CF93DF9386
:101DB0008C01C0E0D0E007C0F801EC0FFD1F80816E
:101DC0000E94CD0E2196F80101900020E9F731978D
:101DD000E01BF10BCE17DF0778F3DF91CF911F9156
:101DE0000F910895E0E2F8E081EA91E08087918721
:101DF00082EC868383E0878308959091240895FF81
:101E0000FCCF8093220808950F931F93CF93DF9305
:101E10008C01C0E0D0E007C0F801EC0FFD1F80810D
:101E20000E94FD0E2196F80101900020E9F73197FC
:101E3000E01BF10BCE17DF0778F3DF91CF911F91F5
:101E40000F91089580E88093240804C08091430195
:101E500080FD04C0809124088823C4F78091200865
:101E600008951F93CF93DF93CDB7DEB7C058D10944
:101E7000CDBFDEBFCA57DF4F1881C658D0409E0184
:101E800027573F4FC957DF4F48815981C758D04026
:101E900060E870E0CE0101960E94B817111105C0EC
:101EA000CE0101960E94D40E06C0113021F4CE015D
:101EB00001960E94040FC058DF4FCDBFDEBFDF91F7
:101EC000CF911F91089530919961209198619091DF
:101ED000976180919661E2EAF1E641814F934081FA
:101EE0004F93E0EAF1E641814F9340814F93EEE951
:101EF000F1E641814F9340814F93ECE9F1E6418156
:101F00004F9340814F93EAE9F1E641814F9340813D
:101F10004F931F923F931F922F931F929F931F9255
:101F20008F93E4E9F1E681818F9380818F93E2E9D9
:101F3000F1E681818F9380818F93E0E9F1E68181E1
:101F40008F9380818F9380EA99E69F938F9380E5AA
:101F500091E69F938F930E9496178DB79EB74C96EC
:101F60008DBF9EBF08955058BB27AA270E94CB0F54
:101F70000C9403110E94CA1038F00E94D11020F076
:101F800039F49F3F19F426F40C94C7100EF4E09531
:101F9000E7FB0C94C110E92F0E94281158F3BA17DF
:101FA000620773078407950720F079F4A6F50C946F
:101FB0004A110EF4E0950B2EBA2FA02D0B01B9019A
:101FC00090010C01CA01A0011124FF27591B99F0AF
:101FD000593F50F4503E68F11A16F040A22F232FBB
:101FE000342F4427585FF3CF469537952795A7950B
:101FF000F0405395C9F77EF41F16BA0B620B730BB2
:10200000840BBAF09150A1F0FF0FBB1F661F771F22
:10201000881FC2F70EC0BA0F621F731F841F48F4D7
:10202000879577956795B795F7959E3F08F0B0CF60
:102030009395880F08F09927EE0F97958795089547
:102040000E949D1008F481E008950E94DA10E39543
:102050000C9414110E9431106894B1110C944B111E
:1020600008950E94301188F09F5798F0B92F992752
:10207000B751B0F0E1F0660F771F881F991F1AF073
:10208000BA95C9F714C0B13091F00E944A11B1E07D
:1020900008950C944A11672F782F8827B85F39F07C
:1020A000B93FCCF3869577956795B395D9F73EF40C
:1020B00090958095709561957F4F8F4F9F4F0895B4
:1020C000E89409C097FB3EF49095809570956195D2
:1020D0007F4F8F4F9F4F9923A9F0F92F96E9BB2788
:1020E0009395F695879577956795B795F111F8CF04
:1020F000FAF4BB0F11F460FF1BC06F5F7F4F8F4F6F
:102100009F4F16C0882311F096E911C0772321F064
:102110009EE8872F762F05C0662371F096E8862FFC
:1021200070E060E02AF09A95660F771F881FDAF753
:10213000880F9695879597F90895990F0008550F80
:10214000AA0BE0E8FEEF16161706E807F907C0F03D
:1021500012161306E407F50798F0621B730B840B45
:10216000950B39F40A2661F0232B242B252B21F41F
:1021700008950A2609F4A140A6958FEF811D811DBF
:10218000089597F99F6780E870E060E008959FEFF9
:1021900080EC089500240A941616170618060906FE
:1021A000089500240A9412161306140605060895CD
:1021B0000C94C7100E943011D8F3E894E0E0BB27DC
:1021C0009F57F0F02AED3FE049EC06C0EE0FBB0F41
:1021D000661F771F881F28F0B23A620773078407CB
:1021E00028F0B25A620B730B840BE3959A9572F741
:1021F000803830F49A95BB0F661F771F881FD2F77F
:1022000090480C94CD11092E0394000C11F48823EE
:1022100052F0BB0F40F4BF2B11F460FF04C06F5F9E
:102220007F4F8F4F9F4F0895EF93E0FF07C0A2EAC3
:102230002AED3FE049EC5FEB0E94CB0F0E940311B7
:102240000F90039401FC9058E0E9F0E00C94D91150
:1022500057FD9058440F551F59F05F3F71F0479557
:10226000880F97FB991F61F09F3F79F0879508953C
:10227000121613061406551FF2CF4695F1DF08C05B
:10228000161617061806991FF1CF86957105610578
:1022900008940895E894BB2766277727CB0197F920
:1022A00008950E949D1008F48FEF08950E9469110F
:1022B0000C9403110E94CA1038F00E94D11020F033
:1022C000952311F00C94C1100C94C71011240C9498
:1022D0004B110E94281170F3959FC1F3950F50E0A8
:1022E000551F629FF001729FBB27F00DB11D639FC8
:1022F000AA27F00DB11DAA1F649F6627B00DA11D6E
:10230000661F829F2227B00DA11D621F739FB00D13
:10231000A11D621F839FA00D611D221F749F332783
:10232000A00D611D231F849F600D211D822F762F1C
:102330006A2F11249F5750409AF0F1F088234AF0F9
:10234000EE0FFF1FBB1F661F771F881F9150504065
:10235000A9F79E3F510580F00C94C1100C944B11CD
:102360005F3FE4F3983ED4F3869577956795B795EC
:10237000F795E7959F5FC1F7FE2B880F911D969506
:10238000879597F908959F930E94DA100F9007FCA4
:10239000EE5F0C9414119F3F31F0915020F487951B
:1023A00077956795B795880F911D9695879597F9BD
:1023B00008959F938F937F936F93FF93EF939B0168
:1023C000AC010E945611EF91FF910E94ED112F91E7
:1023D0003F914F915F910C945611DF93CF931F93D0
:1023E0000F93FF92EF92DF927B018C01689406C0FD
:1023F000DA2EEF010E946911FE01E894A591259162
:10240000359145915591A6F3EF010E94CB0FFE0146
:102410009701A801DA9469F7DF90EF90FF900F9190
:102420001F91CF91DF910895A0E1B0E0EAE1F2E1E0
:102430000C94A5157C011B016A01FC011682178210
:10244000838181FF44C39E012F5F3F4F3901F70114
:102450009381F10193FD859193FF81911F01882361
:1024600009F431C3853239F493FD859193FF81914D
:102470001F01853239F4B70190E00E945A175601C6
:102480006501E5CF10E0512C912CFFE1F915D8F052
:102490008B3279F038F4803279F08332A1F4F92D5F
:1024A000F0612EC08D3261F0803369F4292D2160F6
:1024B0002DC0392D3260932E892D8460982E2AC02C
:1024C000E92DE86015C097FC2DC020ED280F2A30BB
:1024D00088F496FE06C03AE0139F200D1124122FB7
:1024E00019C08AE0589E200D1124522EE92DE06279
:1024F0009E2E10C08E3231F496FCE5C2F92DF064A8
:102500009F2E08C08C3621F4292D2068922E02C0FF
:10251000883641F4F10193FD859193FF81911F016C
:102520008111B3CF9BEB980F933020F4992D9061DC
:10253000805E07C09BE9980F933008F066C1992D23
:102540009F7E96FF16E09F73992E853619F490644E
:10255000992E08C0863621F4392F3068932E02C098
:102560001111115097FE07C01C3350F444244394BA
:10257000410E27E00BC0183038F027E017E005C007
:1025800027E09CE3492E02C0212F412C560184E014
:10259000A80EB11CF6016081718182819381042DA6
:1025A000A3010E9420166C01F981FC87F0FF02C094
:1025B000F3FF06C091FC06C092FE06C000E205C013
:1025C0000DE203C00BE201C000E08C858C7019F0B5
:1025D00001115AC29BC297FE10C04C0CFC85F4FF3F
:1025E00004C08A81813309F44A94141474F528E0F4
:1025F000241578F588E0482E2CC096FC2AC0812F3F
:1026000090E08C159D059CF03CEFC3163FEFD30680
:1026100074F0892D8068982E0AC0E2E0F0E0EC0F9B
:10262000FD1FE10FF11D8081803319F4115011114C
:10263000F4CF97FE0EC044244394410E812F90E0C6
:10264000C816D9062CF41C1904C04424439401C0B4
:1026500010E097FE06C01C141D0434F4C601019658
:1026600005C085E090E002C081E090E00111019694
:10267000112331F0212F30E02F5F3F4F820F931F46
:10268000252D30E08217930714F4581A01C0512CFD
:10269000892D897049F4552039F0B70180E290E026
:1026A0000E945A175A94F7CF002329F0B701802FC0
:1026B00090E00E945A1793FC09C0552039F0B701E9
:1026C00080E390E00E945A175A94F7CF97FE4CC0CF
:1026D0004601D7FE02C0812C912CC60188199909A8
:1026E000F301E80FF91FED87FE87960124193109E0
:1026F0002F87388B012F10E01195019511093FEFBD
:102700008316930629F4B7018EE290E00E945A17CF
:10271000C814D9044CF08F8598898815990524F43C
:10272000ED85FE85818101C080E3F1E08F1A91087B
:102730002D853E852F5F3F4F2D873E878016910662
:102740002CF0B70190E00E945A17D9CFC814D904D1
:1027500041F49A81963320F4953319F43C8534FF83
:1027600081E3B70190E04EC08A81813319F09C85E6
:102770009F7E9C87B70190E00E945A17111105C0F7
:1027800094FC18C085E690E017C0B7018EE290E097
:102790000E945A171E5F82E001E0080FF301E80F64
:1027A000F11D8081B70190E00E945A17802F01131C
:1027B000F3CFE6CF85E490E0B7010E945A17D7FC2B
:1027C00006C0C114D10441F4EC85E4FF05C0D194E6
:1027D000C194D1088DE201C08BE2B70190E00E9464
:1027E0005A1780E32AE0C216D1042CF08F5FFAE07A
:1027F000CF1AD108F7CFB70190E00E945A17B7015E
:10280000C601C0960E945A1754C1833631F08337EF
:1028100079F0833509F056C020C0560132E0A30E8E
:10282000B11CF6018081898301E010E0630112C0D0
:102830005601F2E0AF0EB11CF601C080D18096FEC9
:1028400003C0612F70E002C06FEF7FEFC6010E94EE
:102850002D178C01F92DFF7714C0560122E0A20E2E
:10286000B11CF601C080D18096FE03C0612F70E0DC
:1028700002C06FEF7FEFC6010E94F8168C01F92DA0
:10288000F0689F2EF3FD1AC0852D90E008171907F8
:10289000A8F4B70180E290E00E945A175A94F4CF4E
:1028A000F60197FC859197FE81916F01B70190E049
:1028B0000E945A1751105A9401501109011511051F
:1028C00079F7F7C0843611F0893661F5560197FE25
:1028D00009C024E0A20EB11CF601608171818281E1
:1028E00093810AC0F2E0AF0EB11CF60160817181E4
:1028F000072E000C880B990BF92DFF769F2E97FF62
:1029000009C090958095709561957F4F8F4F9F4F2F
:10291000F0689F2E2AE030E0A3010E94E417C82E41
:10292000C6183FC0092D853721F40F7E2AE030E01C
:102930001DC0097F8F3691F018F4883559F0C3C057
:10294000803719F0883711F0BEC0006104FF09C05C
:10295000046007C094FE08C0066006C028E030E0AE
:1029600005C020E130E002C020E132E0560107FF5F
:1029700009C084E0A80EB11CF601608171818281DA
:10298000938108C0F2E0AF0EB11CF6016081718145
:1029900080E090E0A3010E94E417C82EC6180F77CC
:1029A000902E96FE0BC0092D0E7FC11650F494FE9A
:1029B0000AC092FC08C0092D0E7E05C0DC2C092D32
:1029C00003C0DC2C01C0D12E04FF0DC0FE01EC0DB4
:1029D000F11D8081803311F4097E09C002FF06C019
:1029E000D394D39404C0802F867809F0D39403FD48
:1029F00011C000FF06C01C2DD51480F4150D1D1943
:102A00000DC0D51458F4B70180E290E00E945A1727
:102A1000D394F7CFD51410F45D1801C0512C04FFE6
:102A200010C0B70180E390E00E945A1702FF17C060
:102A300001FD03C088E790E002C088E590E0B7019F
:102A40000CC0802F867859F001FF02C08BE201C0D4
:102A500080E207FD8DE2B70190E00E945A17C1168F
:102A600038F4B70180E390E00E945A171150F7CF75
:102A7000CA94F301EC0DF11D8081B70190E00E9432
:102A80005A17C110F5CF15C0F4E0F51560F584E0D4
:102A9000581A93FE1FC0011127C02C8523FF2AC09E
:102AA0000EEA10E0392D3071932EF80184918111D6
:102AB00024C0552009F4E4CCB70180E290E00E94E4
:102AC0005A175A94F6CFF7018681978126C08FEF67
:102AD0009FEF23C0B70180E290E00E945A175A94FA
:102AE0005110F8CFD8CF512CB701802F90E00E9421
:102AF0005A17D3CF02EB10E0D5CF91108052B70117
:102B000090E00E945A170F5F1F4FCFCF23E025158B
:102B100010F483E0BDCF512CC0CF6096E2E10C945D
:102B2000BE1597FB072E16F4009407D077FD09D049
:102B30000E94EE1507FC05D03EF4909581959F4FBD
:102B40000895709561957F4F08952F923F924F920F
:102B50005F926F927F928F929F92AF92BF92CF922D
:102B6000DF92EF92FF920F931F93CF93DF93CDB736
:102B7000DEB7CA1BDB0BCDBFDEBF09942A883988BC
:102B800048885F846E847D848C849B84AA84B98405
:102B9000C884DF80EE80FD800C811B81AA81B98111
:102BA000CE0FD11DCDBFDEBFED0108950024A7FDDE
:102BB00000942A0F301D401D501D601D701D801D8A
:102BC000901D08950024A7FD00942A1730054005A4
:102BD000500560057005800590050895AA1BBB1B74
:102BE00051E107C0AA1FBB1FA617B70710F0A61B0D
:102BF000B70B881F991F5A95A9F780959095BC012E
:102C0000CD010895FC0188279927E894219120326D
:102C1000E9F3293010F02E30C8F32B3241F02D3279
:102C200039F4689404C00E945217820F911D2191BB
:102C300020532A30C0F31EF4909581959F4F08953C
:102C4000283008F027E03327DA01990F311D87FD7E
:102C5000916000966105710539F432602E5F3D93F5
:102C600030E32A95E1F708959F3F30F080387105F1
:102C7000610509F03C5F3C5F3D93913008F080684E
:102C8000911DDF93CF931F930F93FF92EF92192F14
:102C9000987F9695E92F96959695E90FFF27E05F27
:102CA000FE4F99273327EE24FF24A701E701059063
:102CB0000894079428F4360FE71EF81E491F511D8B
:102CC000660F771F881F991F0694A1F70590079438
:102CD00028F4E70EF81E491F561FC11D770F881FE5
:102CE000991F661F0694A1F70590079428F4F80E23
:102CF000491F561FC71FD11D880F991F661F771FB9
:102D00000694A1F70590079420F4490F561FC71F9A
:102D1000D81F990F661F771F881F0694A9F7849103
:102D20001095177041F0D695C79557954795F7942C
:102D3000E7941A95C1F7E6EBF0E0689415901591C9
:102D400035916591959105907FE27395E118F10AAF
:102D5000430B560BC90BD009C0F7E10CF11E431F02
:102D6000561FC91FD01D7EF4703311F48A95E6CF2B
:102D7000E894015030F0080F0AF40027021708F415
:102D8000202F2395022F7A3328F079E37D932A951B
:102D9000E9F710C07D932A9589F606949795679573
:102DA000379517951794E118F10A430B560BC90B89
:102DB000D00998F023957E9173957A3308F070E3EB
:102DC0007C932013B8F77E9170617D9330F08395EA
:102DD00071E37D9370E32A95E1F71124EF90FF9062
:102DE0000F911F91CF91DF91992787FD90950895BD
:102DF000FC010590615070400110D8F780959095C6
:102E00008E0F9F1F0895FC018191861721F0882362
:102E1000D9F7992708953197CF010895FB01DC0177
:102E20000D900020E9F711974150504028F0019093
:102E300000200D92C9F708951C920895FB01DC0152
:102E40004150504048F001900D920020C9F701C058
:102E50001D9241505040E0F70895FC0161507040D0
:102E600001900110D8F7809590958E0F9F1F0895BF
:102E7000FB0151915523A9F0BF01DC014D9145178C
:102E80004111E1F759F4CD010190002049F04D9135
:102E900040154111C9F3FB014111EFCF81E090E0F2
:102EA000019708957AE0979F902D879F802D910D2F
:102EB000112408950F931F93CF93DF93FB01238178
:102EC00021FD03C08FEF9FEF2CC022FF16C046816B
:102ED0005781248135814217530744F4A081B18181
:102EE0009D012F5F3F4F208331838C932681378153
:102EF0002F5F3F4F2683378314C08B01EC01FB010A
:102F00000084F185E02D0995892BE1F6D80116960C
:102F10008D919C911797019616968D939C93179778
:102F2000CE01DF91CF911F910F910895AEE0B0E0F7
:102F3000ECE9F7E10C94B3150D891E8986E08C83CA
:102F400009831A838FEF9FE78D839E83AE01475ECF
:102F50005F4F6F89788DCE0101960E941412EF8128
:102F6000F885E00FF11F10822E96E4E00C94CC154A
:102F7000AEE0B0E0EEEBF7E10C94B3158C01FA0192
:102F800086E08C8309831A8377FF02C060E070E8D3
:102F9000CB0101978D839E83A901BF01CE010196CC
:102FA0000E9414124D815E8157FD0AC02F81388521
:102FB000421753070CF49A01F801E20FF31F108235
:102FC0002E96E4E00C94CC15FA01AA27283051F192
:102FD000203181F1E8946F936E7F6E5F7F4F8F4F4A
:102FE0009F4FAF4FB1E03ED0B4E03CD0670F781FA9
:102FF000891F9A1FA11D680F791F8A1F911DA11D8E
:103000006A0F711D811D911DA11D20D009F46894C6
:103010003F912AE0269F11243019305D3193DEF66E
:10302000CF010895462F4770405D4193B3E00FD024
:10303000C9F7F6CF462F4F70405D4A3318F0495D0F
:1030400031FD4052419302D0A9F7EACFB4E0A695F2
:103050009795879577956795BA95C9F70097610514
:10306000710508959B01AC010A2E0694579547956A
:1030700037952795BA95C9F7620F731F841F951F5F
:10308000A01D0895DC0128ED209334006C93089571
:04309000F894FFCFE2
:103094000E632063276335637C624A639B626463C7
:1030A400C3628163D1629763DE62AF636400C66307
:1030B4006500CF63C800E363C900E663CA00EE633A
:1030C400CB00F763CC001564CD002064CE002E64E1
:1030D4002C013E642D014F642E01CD642F016164E7
:1030E40030016B643101786433018264900195642A
:1030F4009101A1649201AE649301BF649401C96417
:103104009501D3649601E6649701F564980113650B
:10311400990124659A012D659B0132659C014265E4
:103124009D0156659E016F659F018565A0019C65A3
:10313400A101BC65F401CF65F501E565F601F5650E
:10314400F7010166F8011566F90126665802416621
:1031540059024E665A025C665B0266665C027066E1
:10316400687474703A2F2F796F757275726C2E6350
:103174006F6D2F696E6465782E7068703F6461743A
:10318400613D5B0000000000000000000000000042
:10319400000000000000000000000000000000002B
:1031A400000000000000000000000000000000001B
:1031B400000000000000000000000000000000000B
:1031C40000000000000000000000000000000000FB
:1031D40000000000000000000000000000000000EB
:1031E40000000000000000000000000000000000DB
:1031F40000000000000000000000000000000000CB
:1032040000000000000000000000000000000000BA
:1032140000000000000000000000000000000000AA
:10322400C65CCE04F9150D060A0AEF0134087802CB
:10323400E9035508E739E00700F8253034752D25F2
:103244003032752D253032750024474E524D4300DF
:1032540053494D2050726570617265642100436862
:1032640065636B696E672053494D2E2E2E00474EC1
:103274005353204C6F636B65642100536561726323
:1032840068696E6720474E53532E2E2E0041542BEF
:1032940048545450504152413D2255524C222C2204
:1032A400257325735D220A0041542B485454504120
:1032B4004354494F4E3D300A004E4F20524553501F
:1032C4004F4E5345005041525345204552524F52A0
:1032D40000554E4B4E4F574E002B485454504143CB
:1032E40054494F4E3A0055524C002B4353513A0027
:1032F400525353493A2025642064426D3A20256490
:103304000041542B4353510A0025730041542B535D
:10331400415042523D332C312C22434F4E5459508C
:1033240045222C2247505253220A0041542B534128
:103334005042523D332C312C2241504E222C2269D2
:103344006E7465726E65742E74656C65322E6C7461
:10335400220A0041542B53415042523D312C310A30
:103364000041542B48545450494E49540A00415486
:103374002B48545450504152413D22434944222C3D
:10338400310A0041542B485454505445524D0A00BC
:1033940041542B53415042523D302C310A00415488
:1033A4002B48545450504152413D2255524C220016
:1033B40053656E643A200041542B485454504143A1
:1033C40054494F4E004461746120726563656976A7
:1033D40065207374617475730A00536574204750D3
:1033E400525320436F6E6E656374696F6E20547917
:1033F40070650A005365742041504E202841636370
:1034040065737320506F696E74204E616D65290A6F
:1034140000416374697661746520475052532042B9
:1034240065617265720A00496E697469616C697AD2
:10343400652048545450204D6F64756C650A0053E0
:1034440065742048545450204750525320436861B7
:103454006E6E656C0A00436F6E74696E7565005319
:103464007769746368696E672050726F746F636FF5
:103474006C73004F4B004372656174656400416373
:10348400636570746564004E6F6E2D417574686F6A
:10349400726974617469766520496E666F726D61D4
:1034A40074696F6E004E6F20436F6E74656E7400A6
:1034B400526573657420436F6E74656E7400506159
:1034C400727469616C20436F6E74656E74004D751F
:1034D4006C7469706C652043686F69636573004D33
:1034E4006F766564205065726D616E656E746C797B
:1034F40000536565204F74686572004E6F74204DEB
:103504006F646966696564005573652050726F78ED
:10351400790054656D706F726172792052656469C7
:1035240072656374004261642052657175657374D9
:1035340000556E617574686F72697A6564005061D4
:10354400796D656E742052657175697265640046A3
:103554006F7262696464656E004E6F7420466F75A5
:103564006E64004D6574686F64204E6F7420416C06
:103574006C6F776564004E6F74204163636570748B
:1035840061626C650050726F78792041757468656A
:103594006E7469636174696F6E20526571756972C6
:1035A400656400526571756573742054696D652D89
:1035B4006F757400436F6E666C69637400476F6E59
:1035C40065004C656E677468205265717569726533
:1035D4006400507265636F6E646974696F6E20462F
:1035E40061696C6564005265717565737420456E1C
:1035F4007469747920546F6F204C6172676500524E
:103604006571756573742D55524920546F6F204C44
:103614006172676500556E737570706F727465645E
:10362400204D656469612054797065005265717537
:1036340065737465642052616E6765204E6F7420F3
:103644005361746973666961626C6500457870657D
:1036540063746174696F6E204661696C65640049C6
:103664006E7465726E616C20536572766572204566
:1036740072726F72004E6F7420496D706C656D6567
:103684006E74656400426164204761746577617992
:10369400005365727669636520556E617661696C65
:1036A40061626C6500476174657761792054696D66
:1036B400652D6F75740048545450205665727369B3
:1036C4006F6E206E6F7420737570706F72746564A2
:1036D400004E6F74204854545020504455004E6599
:1036E40074776F726B204572726F72004E6F206D2B
:1036F400656D6F727900444E53204572726F72008B
:10370400537461636B2042757379000000000000FC
:1037140000005F00000007000700147F147F1424DA
:103724002A7F2A1223130864623649552250000561
:10373400030000001C2241000041221C0014083E2A
:10374400081408083E08080050300000080808085B
:1037540008006060000020100804023E5149453E04
:1037640000427F400042615149462141454B311896
:1037740014127F1027454545393C4A4949300171A7
:103784000905033649494936064949291E00363692
:1037940000000056360000081422410014141414CA
:1037A4001400412214080201510906324979413EAC
:1037B4007E1111117E7F494949363E414141227FA4
:1037C4004141221C7F494949417F090909013E4180
:1037D40049497A7F0808087F00417F410020404121
:1037E4003F017F081422417F404040407F020C0289
:1037F4007F7F0408107F3E4141413E7F090909064D
:103804003E4151215E7F0919294646494949310102
:10381400017F01013F4040403F1F2040201F3F40A7
:1038240038403F631408146307087008076151495E
:103834004543007F41410002040810200041417FBC
:10384400000402010204404040404000030700001D
:1038540020545454787F48444438384444442038ED
:103864004444487F3854545418087E09010208140B
:1038740054543C7F0804047800447D4000204044B4
:103884003D007F1028440000417F40007C04180460
:10389400787C0804047838444444387C14141408AC
:1038A400081414187C7C0804040848545454200454
:1038B4003F4440203C4040207C1C2040201C3C4095
:1038C40030403C44281028440C5050503C4464542C
:1038D4004C44000836410000007F000000413608D7
:1038E4000008082A1C08081C2A08080609090600FA
:1038F4007E1111917E00417FC1007E1111917E3EA7
:10390400414141227E1111917E7E1111917E7F49A8
:1039140049C9417F4949C97F3C434243247E4A4BBC
:103924004A4162534A47427E4A4B4A423E414949D0
:103934007A7F0814224100417F41007F404040408B
:10394400444B4A4B327F0408107F7F0408107F3EAB
:103954004141413E3E4141413E3E4141413E3E4165
:1039640041413E44281028443F4040C03F7F4040EE
:103974004040444B4A4B323C4141413C3C41414133
:103984003C62534A474262534A47423649494936A0
:10399400205454D47800447DC000205454547838C2
:1039A4004444442020545454782054545478385473
:1039B40054D418385455541838454645203854556D
:1039C40054184465564D44385455541808145454E6
:1039D4003C7F1028440000447D400000417F4000AB
:1039E40048555655207C080404787C08040478382B
:1039F40044444438384444443838444444383844CB
:103A04004444380036360000384040A07800417FF6
:103A140040004854545420384242227838424222CA
:103A2400784465564D444465564D440005030000F2
:103A34002530345825303458253034582530325800
:103A440025582530325825582530335825303458D8
:0E3A54002530335825303358253034580000C3
:00000001FF
